:020000040800F2
:10000000300A0020A95900082D5700082F57000872
:10001000315700083357000835570008000000002A
:10002000000000000000000000000000375700083A
:1000300039570008000000003B5700083D570008F2
:10004000CD590008D1590008D5590008D9590008E0
:10005000DD590008E1590008455700084F570008CE
:10006000E5590008E9590008ED590008F159000860
:10007000F5590008F9590008FD590008015A00080F
:10008000055A0008095A00080D5A0008115A0008BC
:10009000155A0008195A00081D5A00085957000837
:1000A000215A000865570008255A0008295A0008F7
:1000B0006F5700082D5A0008315A00087957000878
:1000C00083570008355A0008395A00083D5A00087D
:1000D000415A0008455A00088D570008495A00083F
:1000E000A95700084D5A0008515A0008DFF8E809DE
:1000F000008880B270472DE9F84185B00400FFF711
:10010000F5FF060000251021002201AF380001F0A4
:10011000F3FA002000903000210080B289B28842BA
:1001200001D1002027E001F086FB80464046C0B2A6
:10013000002804D001F090FB4046C0B21BE0002034
:100140000190DFF89479039701200490694601A893
:1001500001F0FCFB05002800C0B2002807D12200F6
:1001600092B200233900012001F00EFB050001F0DE
:1001700073FB2800C0B206B0BDE8F08110B5FFF7F0
:10018000B5FF040020004FF6FF7180B2884203D013
:10019000200080B200F035FB10BD2DE9F04FC1B05A
:1001A0000021002200230024DFF83059287800289D
:1001B00000F0AD81DFF828090668F6687608760059
:1001C0000068C66000200600B6B2FA2E0CD2DFF836
:1001D00014690700BFB2F65D02AF84461FFA8CFCBB
:1001E00007F80C60401CEEE700202870DFF8F008EC
:1001F0000568ED6855F001050068C5600020050040
:10020000ADB2FA2D11D202AD0600B6B2AD5DEE0769
:1002100000D5491CAE0700D5521C6E0700D55B1CEB
:100220002E0700D5641C401CE9E764200D00ADB228
:100230004543FA26B5FBF6F58DF805501500ADB22D
:100240004543FA26B5FBF6F58DF804501D00ADB216
:100250004543FA26B5FBF6F58DF803502500ADB2FF
:1002600000FB05F0FA25B0FBF5F08DF802009DF8D3
:100270000500282801D2002006E09DF805003D2851
:1002800001D3012000E00220DFF85C6830709DF8A7
:100290000400282801D2002006E09DF804003D2833
:1002A00001D3012000E00220DFF8407838709DF88B
:1002B0000300282801D2002006E09DF803003D2815
:1002C00001D3012000E00220DFF824E88EF80000CE
:1002D0009DF80200282801D2002006E09DF80200C7
:1002E0003D2801D3012000E00220DFF8088888F8CB
:1002F00000003078022801D1012000E000203D7884
:10030000022D01D1012500E000253678012E01D112
:10031000012600E000263F78012F01D1012700E0EF
:100320000027DFF8D4C79CF800C0BCF1010F04D14E
:100330005FF001098DF8019003E05FF000098DF88E
:100340000190DFF814CB5FF000098CF80090DFF823
:100350000C9B5FF0000A89F800A0DFF8C0AA5FF0EC
:10036000000B8AF800B09DF801B0BBF1010F21D15C
:1003700081465FFA89F9B9F1010F0AD1A9465FFAFE
:1003800089F9B9F1010F04D15FF001098CF80090EF
:100390002CE0B4465FFA8CFCBCF1010F26D1BC46C0
:1003A0005FFA8CFCBCF1010F20D15FF0010C8AF8E0
:1003B00000C01BE084465FFA8CFCBCF1010F05D144
:1003C000BC465FFA8CFCBCF1010F0BD0B4465FFA5F
:1003D0008CFCBCF1010F09D1AC465FFA8CFCBCF17E
:1003E000010F03D15FF0010C89F800C09EF800C036
:1003F000BCF1020F02D15FF0010901E05FF00009DA
:1004000098F800C0BCF1020F02D15FF0010A01E0D0
:100410005FF0000A9EF800C0BCF1010F02D15FF04E
:10042000010E01E05FF0000E98F800C0BCF1010F72
:1004300002D15FF0010801E05FF00008DFF850CC66
:100440009CF800C0BCF1010F04D15FF0010B8DF8E6
:1004500000B003E05FF0000B8DF800B05FF0000C1F
:10046000DFF85CBA8BF800C05FF0000CDFF824BC4A
:100470008BF800C0DFF8DCCA5FF0000B8CF800B02E
:100480009DF800B0BBF1010F23D1CB465FFA8BFB87
:10049000BBF1010F0CD1D3465FFA8BFBBBF1010F0F
:1004A00006D15FF0010CDFF818BA8BF800C02EE01F
:1004B000F3465FFA8BFBBBF1010F28D1C3465FFA0D
:1004C0008BFBBBF1010F22D15FF0010B8CF800B068
:1004D0001DE0CC465FFA8CFCBCF1010F05D1C4468F
:1004E0005FFA8CFCBCF1010F0BD0F4465FFA8CFC78
:1004F000BCF1010F0BD1D4465FFA8CFCBCF1010FAB
:1005000005D15FF0010CDFF88CBB8BF800C041B067
:10051000BDE8F08F70B504000D0016002800C0B2D1
:1005200054F8300000280CD03200D2B22800C0B2FB
:1005300004EBC00081882800C0B254F8300001F0FC
:1005400030FC70BD2DE9F843040014F001072500CC
:100550003800C0B2012801D115F00105DFF8A86A02
:10056000308885435FF000084046C0B210281BD297
:100570000121308811FA08F2104212D111FA08F163
:10058000280080B2084202D05FF0010901E05FF06C
:1005900000094A46D2B24146C9B2DFF8700AFFF7F5
:1005A000B9FF18F10108DFE7DFF86C0B0580BDE843
:1005B000F18370B5040000252800C0B2082812D2CB
:1005C0000121A9402000C0B2084201D0012600E06C
:1005D00000263200D2B22900C9B2DFF8BC0AFFF708
:1005E00099FF6D1CE8E7DFF8340B047070BD70B53F
:1005F00004002000C0B2422824D10025DFF8086A98
:10060000308880050CD54FF48071DFF84C0B01F079
:10061000BDFB012802D14FF4007000E0002005432B
:10062000DFF8F41A0A883088824330882840024371
:100630000A80DFF8280B0A880270098889B2090A43
:10064000417009E02000C0B2402805D1DFF8CC0A93
:100650000078DFF8081B087070BD10B50400220098
:10066000D2B22021DFF8F00A01F09BFB10BD80B56B
:10067000DFF8EC1A0878002804D000200870012068
:10068000FFF7EBFF01BD0020DFF8CC170978002948
:1006900001D050F40040DFF8C4170978002901D0D8
:1006A00050F48040DFF818180978002901D050F480
:1006B0000050DFF8E0190978002901D050F480508B
:1006C000DFF858170978002901D050F40060DFF8EE
:1006D00084180978002901D050F48060DFF8841A6A
:1006E0000978012901D150F40070DFF87C1A0978EB
:1006F000012901D150F08000DFF8FC1309780129AD
:1007000001D150F04000DFF888190978012901D1A2
:1007100050F0200080B2704770B5002400250126FB
:10072000DFF8480A0078002804D0002004000020E8
:10073000050029E0DFF8380A0078002804D00020FE
:100740000400012005001FE0DFF8400C00780028BD
:1007500004D0012004000020050015E0DFF8300C73
:100760000078002804D001200400002005000BE0E0
:10077000DFF8200C0078002804D0002004000120BD
:10078000050001E0002006003000C0B2002819D0AA
:100790002800C0B2002801D0012200E00022D2B21D
:1007A0000421DFF8B40901F0FCFA2000C0B20028EF
:1007B00001D0012200E00022D2B28021DFF8700DCA
:1007C00001F0EFFA70BD80B5DFF8CC0B007800289F
:1007D00001D0012200E00022D2B20421DFF8780922
:1007E00001F0DFFADFF8B40B0078002801D0012215
:1007F00000E00022D2B28021DFF8340D01F0D1FAFE
:1008000001BD2DE9F84F040000208DF80200DFF84B
:10081000900B0480200080B2FFF76DFCDFF8841B92
:10082000200080B2C00B0870DFF87C2B200080B263
:10083000800B10F001001070DFF8703B200080B2D8
:10084000400B10F001001870DFF8486B200080B2F8
:10085000000B10F001003070DFF8347B200080B214
:10086000C00A10F001003870DFF820EB200080B2E1
:10087000800A10F001008EF80000DFF8F4882000F4
:1008800080B2400A10F0010088F80000DFF8DC9820
:10089000200080B2000A10F0010089F8000099F8E9
:1008A000005098F800A09EF800008DF801003878FC
:1008B0008DF80000307893F800C092F800B01AEB81
:1008C000050A9DF8015015EB0A0A9DF8005015EB3A
:1008D0000A0A10EB0A001CEB00001BEB00000D786D
:1008E0002D182800C0B2022812D3002089F8000079
:1008F000002088F8000000208EF8000000203870EA
:100900000020307000201870002010700020087047
:10091000DFF87C0B2100C9B2C9090170DFF8146C43
:1009200014F0010131702100C1F3C001DFF8682A21
:1009300011702100C1F34011DFF8602A11700078B6
:10094000002802D0FFF7E8FE01E0FFF73CFF307817
:1009500000280BD00120DFF8E01B087001224FF4C3
:100960000071DFF8F40701F01CFA0AE00020DFF85C
:10097000C81B087000224FF40071DFF8DC0701F09B
:1009800010FABDE8F18F38B505000C00002C01D13C
:1009900000201FE0280080B2002804D1FFF773FE7A
:1009A0002080012016E0280080B2332811D201F007
:1009B00076FA0100681E80B24200100080B2085C26
:1009C00013009BB20B445B7850EA03202080012087
:1009D00000E0002032BD38B504000D00200080B2D8
:1009E000002805D1280080B2FFF70BFF012000E0AE
:1009F000002032BD2DE9F04105000E0014001F005B
:100A0000002C09D0300080B2002805D03800310019
:100A100080B289B2884201D2002025E0280080B24D
:100A2000332806D2290089B2300080B24118342917
:100A300001D3002018E05FF000084046310080B28A
:100A400089B288420FD2404680B204EB400118EBD5
:100A5000050080B2FFF797FF002801D1002003E0D6
:100A600018F10108E9E70120BDE8F081DFF8FC1B7F
:100A7000087070472DE9F84F04000D00160000279C
:100A80005FF00009DFF824BB8BF8004055F08000D0
:100A90008BF801008BF802605FF0030A514689B2BF
:100AA000584601F061FC8046404680B2000A51463B
:100AB00089B20BF80100504680B2584480F801809A
:100AC0001AF1020A6423524692B25946DFF8A00B8B
:100AD00001F0D0FCBDE8F18F00FC010823060020E6
:100AE000BC04002008030020240600202506002066
:100AF0002606002027060020110600202DE9F04FD1
:100B0000A7B000250020ADF804005FF00008002029
:100B10008DF80A00002400270020ADF81000002006
:100B2000ADF80E000020ADF80C000020ADF802007A
:100B30000020ADF80000DFF83C6B3078002800F0B2
:100B40006A8172B63078002817D0DFF82C0B008845
:100B50000500280080B21F2801D31E200500A946E9
:100B60001FFA89F9DFF814AB0DF1140B4A46514610
:100B7000584602F0E3F80020307062B6280080B2D8
:100B8000042803D20320FFF771FF44E19DF81460AD
:100B90003000C0B2012804D03000C0B2002840F0BC
:100BA0003A8105A8290089B2084410F8020C05A969
:100BB0002A0092B2114411F8011C51EA0021ADF84B
:100BC0000810290089B2891E05A801F0CDFBADF8F7
:100BD0000600BDF80600BDF80810884203D00320C7
:100BE000FFF744FF17E105A847783900C9B2032988
:100BF00040F09780290089B208290ED20320FFF720
:100C000035FF3000C0B2002806D003223900C9B237
:100C10003000C0B2FFF72EFFFDE0817890F803802E
:100C200058EA0128017990F8059059EA01294846C7
:100C300080B2002803D0484680B234280ED3032067
:100C4000FFF714FF3000C0B2002806D0032239009D
:100C5000C9B23000C0B2FFF70DFFDCE033230DAAAC
:100C6000494689B2404680B2FFF7C4FE00280ED143
:100C70000220FFF7FBFE3000C0B2002806D002229F
:100C80003900C9B23000C0B2FFF7F4FEC3E0DFF8AC
:100C90001CA98AF800608AF801704846C0B240007A
:100CA0008AF802000324002001004A4689B292B269
:100CB000914216D20DA9020092B231F8122092B2DE
:100CC000120A23009BB20AF80320641C020092B2AD
:100CD00031F81210220092B20AF80210641C401C73
:100CE000E2E7210089B2504601F03EFB83465846B8
:100CF00080B2000A210089B20AF80100641C2000B9
:100D000080B20AF800B0641C3000C0B2002807D0DE
:100D10006423220092B25146DFF8540901F0AAFB85
:100D200079E03900C9B2062967D1290089B20829BA
:100D30000ED20320FFF79AFE3000C0B2002806D082
:100D400003223900C9B23000C0B2FFF793FE62E05F
:100D5000817890F8038058EA01280179407950EAB7
:100D60000120ADF80200BDF80210404680B2FFF746
:100D700032FE00280ED10220FFF778FE3000C0B20C
:100D8000002806D002223900C9B23000C0B2FFF7F5
:100D900071FE40E03000C0B200282DD05FF0060A9E
:100DA0000DF1140BDFF804984C46524659462000CA
:100DB00001F0C4FF0624210089B2484601F0D4FAAC
:100DC000ADF80000BDF8000080B2000A210089B231
:100DD00009F80100641CBDF80000210089B209F87F
:100DE0000100641CADF804406423BDF804204946AA
:100DF000DFF87C0801F03EFB0DE00120FFF736FE36
:100E00003000C0B2002806D001223900C9B230003B
:100E1000C0B2FFF72FFE27B0BDE8F08F2A060020F2
:100E200010B5DFF84C48606C002813D0606CC0B27D
:100E3000FFF71CFE200001F0C4FB200001F0F7FAD0
:100E400000F06EF9002060641E22DFF834182000E4
:100E500001F076FB10BD00002806002029060020C6
:100E60002DE9F84304000D002068DFF818188842C7
:100E700023D1DFF800683078002817D1280080B22D
:100E8000002813D0280080B21F280FD22F00BFB235
:100E9000DFF8EC87DFF8E4973A004146484601F076
:100EA0004DFFDFF8D4070580012030701E22DFF8E7
:100EB000D017DFF8BC0701F043FBBDE8F183000069
:100EC0002B06002010B501F08DFF00F045F800F072
:100ED00051F900F07AF800F023F900F0DFF800F0A3
:100EE00097F8DFF8A40702F027F90020FFF72AFBA4
:100EF0000020FFF75EFBDFF894474FF480719648BF
:100F000000F044FF20702078DFF88417087000207C
:100F1000934908700120FFF7A0FB00F081FFFFF765
:100F20002DF9DFF8700703F0E8F9DFF86C0703F03C
:100F3000E4F91E22DFF84817DFF8340701F000FB60
:100F4000FFF72BF901F045F8FFF76AFFFFF7D6FD31
:100F5000F6E700002D06002018B58FB028210022EA
:100F600005AC200000F0C8FB142100226C462000D4
:100F700000F0C2FB012005905FF480300690002154
:100F800007910121099102210C910D905FF48010CD
:100F90000E9005A803F082FB002801D000F0AAFB08
:100FA0000F20009002200190002002904FF48060FA
:100FB0000390002004900221684603F06FFD002892
:100FC00001D000F097FB10B010BD80B5DFF8B80677
:100FD000DFF8C8160160DFF8C816416000218160A3
:100FE0004221C1604FF480410161012141614021F2
:100FF00081610021C1610021016201F005FF00282B
:1010000001D000F077FB01BDE22D0008D4570008A5
:1010100010B586B01021002202AC200000F06CFB5D
:10102000082100226C46200000F066FBDFF86846CD
:10103000DFF870062060472060600020A06040F26A
:10104000E730E06000202061002060610020A061A6
:10105000200003F01BF9002801D000F04BFB4FF4F7
:101060008050029002A9200003F025FA002801D048
:1010700000F040FB00200090002001906946200015
:1010800003F032FE002801D000F034FB06B010BDA2
:10109000120600202C0600205458000810B586B017
:1010A0001021002202AC200000F026FB08210022C3
:1010B0006C46200000F020FBDFF8D8455FF0804050
:1010C000206041F61F4060600020A0601320E060B7
:1010D000002020610020A061200003F0D7F8002844
:1010E00001D000F007FB4FF48050029002A92000CD
:1010F00003F0E1F9002801D000F0FCFA0020009094
:10110000002001906946200003F0EEFD002801D088
:1011100000F0F0FA06B010BD000600200A0600201C
:1011200080B5DFF84C05DFF85C1501605FF4E13154
:101130004160002181600021C160002101610C211A
:101140004161002181610021C16101F033F9002872
:1011500001D000F0CFFA01BD000C0140FE050020D7
:101160000E0600200F0600201006002013060020A7
:10117000140600202DE9F84185B0102100226C46AC
:10118000200000F0B9FADFF82005016851F01001E5
:101190000160016811F0100104910499016851F097
:1011A00020010160016811F0200104910499016897
:1011B00051F004010160016811F0040104910499E7
:1011C000016851F008010160006810F00800049007
:1011D0000498DFF8D84400224FF40051200000F0BA
:1011E000E0FDD34D00224FF40861280000F0D9FD46
:1011F000DFF8BC6400222421300000F0D2FD4CF264
:10120000182701223900300000F0CBFD01224FF4F5
:10121000E061280000F0C5FD4FF40050009001206F
:10122000019000200290022003906946200000F007
:101230000DFC4FF400400090DFF87884CDF8048076
:10124000002002906946200000F000FC48F20300F4
:10125000009000200190002002906946280000F0D4
:10126000F5FB4FF4086000900120019001200290EE
:10127000022003906946280000F0E8FB40F60310C6
:101280000090CDF80480002002906946300000F004
:10129000DDFB04200090012001900120029002203B
:1012A00003906946300000F0D1FB4FF440500090AD
:1012B00000200190002002906946300000F0C6FB3B
:1012C00000970120019002200290022003906946BD
:1012D000300000F0BBFB4FF4E06000900120019073
:1012E00002200290022003906946280000F0AEFB25
:1012F0002020009001200190002002900220039005
:101300006946300000F0A2FB00220021062003F015
:10131000B5FD062003F0C7FD00220021072003F0E1
:10132000ADFD072003F0BFFD00220021172003F0D0
:10133000A5FD172003F0B7FD00220021282003F0AF
:101340009DFD282003F0AFFD0121300000F01EFDBF
:10135000DFF8641308700221300000F017FDDFF899
:101360005C1308704FF40061300000F00FFDDFF8EF
:10137000501308704FF40041200000F007FDDFF823
:101380004413087006B0BDE8F08100001506002087
:1013900016060020170600201D0600201E0600204D
:1013A000020600201A060020190600201806002058
:1013B00070B504002068B0F1804F1FD1DFF80853EA
:1013C0002878002817D15C490878002813D1DFF865
:1013D000FC020268521C0260006841F288329042AE
:1013E00009D30120087001224FF40071B04800F0C9
:1013F000D8FC0120287000F055FD47E02068A9497D
:10140000884243D100254A4E0221300000F0BEFC44
:10141000012801D155F001050121300000F0B6FC92
:10142000012801D155F00205A14E4FF400513000C2
:1014300000F0ACFC012801D155F004054FF48051B7
:10144000300000F0A3FC012801D155F00805A048A8
:101450000188FA2911D29F499F4A0B88D5540A88DE
:10146000521C0A800A88FA2A01D300220A800188C5
:10147000F92902D10121994A11700188491C018082
:101480000188B1F57A7F01D30021018070BD000091
:101490001B060020F8B504000D00160020687F49E7
:1014A000884244D18E4F3E703878422801D1FFF7F0
:1014B000DEF82800C0B200281AD13878FFF797F874
:1014C0003878422806D1082302228649200001F0FC
:1014D00099FD2CE03878402806D108230122814963
:1014E000200001F08FFD22E0200001F025FE1EE02B
:1014F000387842280AD17C480221017008230278FA
:1015000092B27A49200001F0CAFD10E038784028F4
:101510000AD17548012101700823027892B27349FB
:10152000200001F0BCFD02E0200001F005FEF1BD4D
:10153000000801401C0600202006002038B50400E9
:101540002068564988421BD16548017842290DD14F
:101550006648057864490978022902D3407855EA3B
:101560000025280080B2FEF7EDFF06E00078402855
:1015700003D15E480078FFF71CF8200001F0DCFD85
:1015800031BD10B5040020684449884202D12000D2
:1015900001F0D2FD10BD10B5040020683F4988421B
:1015A00002D1200001F0C8FD10BD0000080200209B
:1015B00070B50400200080B2B0F5004F07D14FF4A1
:1015C00000413A4800F0E2FB3E4908704CE0200040
:1015D00080B2B0F5006F07D14FF40061344800F0DD
:1015E000D5FB374908703FE0200080B2012806D1C2
:1015F00001212F4800F0CAFB2F49087034E0200079
:1016000080B2022806D10221294800F0BFFB2B49F5
:10161000087029E0200080B2B0F5807F24D14FF41B
:101620008071234800F0B2FB0500184E2800317885
:10163000C0B2884218D02E490878002808D13078E6
:10164000134A1070012008700020FFF706F80AE026
:1016500028000F4A1278C0B2904204D100200870CE
:101660000120FEF7FAFF357070BD00002206002051
:101670004C0500202106002004060020B4050020AF
:101680009405002000440040680400200C0600205F
:101690000D06002004050020BC040020005400407A
:1016A000A0860100002C01401810024000100140EB
:1016B000000C01400000311011060020120600202D
:1016C000100600200F0600202E060020D405002062
:1016D000080600200606002008030020230600203C
:1016E0000B060020FE0500201F060020FC05002040
:1016F0000E06002072B6FEE762F30F2262F31F426D
:10170000401810F0030308D0C91A1FD3DB0748BFE5
:1017100000F8012D28BF20F8022D130030B4144624
:101720001546103928BF20E93C00FAD8490728BFE0
:1017300020E90C0048BF40F8042D890028BF20F89C
:10174000022D48BF00F8012D30BC7047C91818BFE2
:1017500000F8012DCB0728BF00F8012D70470EE0DF
:1017600002684368024408305FEAC37C44BF4B44CC
:101770005B1E52F804CB43F804CB091FF9D150F893
:10178000041B0029ECD170472DE9F14F82B0894646
:1017900092469B4601208DF8000000250026DFF8C8
:1017A0009071387E012801D1022042E00120387674
:1017B0004CF25038404600F060F804002000C0B2FF
:1017C000002832D10298012802D10120060007E04A
:1017D0000298022802D10220060001E0042006003F
:1017E0000020050028003100C0B2C9B288421CD2D6
:1017F00050465946EDB22A0103F07CFB010089B244
:101800002800C0B219EB400000F02DF8404600F06F
:1018100034F8040047480168490849000160200085
:10182000C0B2002801D16D1CDCE700203876200012
:10183000C0B2BDE8FE8F00203E490A68120609D5F5
:101840003E4A3F4B13603F4B13600968090601D5C0
:1018500001210800C0B270473648016851F080018C
:101860000160002070470022314BDA61314A136871
:1018700053F0010313600180704738B5040003F092
:1018800049FB05002C480168C9070BD514F1010F6D
:10189000F8D0002C04D003F03DFB401B8442F1D271
:1018A000032013E00168890601D520210160016849
:1018B000C90606D424490968C90702D4006840074C
:1018C00003D500F004F8012000E0002032BD10B480
:1018D000002019490A68D20606D5154AD36953F083
:1018E0000203D36150F010000A68520706D5104A6F
:1018F000D36953F00103D36150F00400124B1A680E
:10190000D20708D50A4AD46954F00404D4611A688D
:10191000520852001A6040F20112904204D1196834
:1019200049084900196000E0086010BC70470000D9
:10193000D8050020102002400C2002400420024064
:1019400023016745AB89EFCD1C2002402DE9F84308
:1019500004000D0001260027DFF8E48098F8180045
:10196000012801D1022049E0012088F818002068F0
:10197000022814D14CF250394846FFF77EFF002868
:1019800037D1012000F03CF84846FFF776FF06000B
:10199000DFF8B000016831F00401016029E04CF289
:1019A00050394846FFF769FF002822D15FF0FF3029
:1019B0002860A0680700E1684FF48062A06802FB1D
:1019C00001018F4215D2380000F029F84846FFF790
:1019D00054FF0600DFF86C00016831F0020101607D
:1019E0003000C0B2002801D02F6002E017F58067F8
:1019F000E1E7002088F818003000C0B2BDE8F283AB
:101A00000021DFF83C20D161DFF838100A6852F07D
:101A100004020A600A6852F040020A60704700211E
:101A2000074AD16107490A6852F002020A60064A71
:101A300010600A6852F040020A607047000000001F
:101A4000D805002010200240142002402DE9F8475C
:101A500003005FF0000E5FF00008086830FA0EF037
:101A6000002800F00081012010FA0EF00400086840
:101A700020400500A54240F0F3804868002831D09E
:101A8000012820D0022825D003283CD011281DD0C1
:101A9000122823D0DFF844C3604523D0DFF840C3C9
:101AA00060451FD0DFF83CC360451BD0DFF838C36A
:101AB000604517D0DFF834C3604513D0DFF830C37A
:101AC00060450FD022E0C86880461FE0C868001D4E
:101AD00080461BE0C8680830804617E0C8680C30B4
:101AE000804613E08868002802D10420804609E07F
:101AF0008868012803D1082080461C6102E0082084
:101B000080465C6102E000208046FFE7B5F5807FFB
:101B100001D21E0000E01E1DB5F5807F02D25FEAF3
:101B20008E0702E0BEF10807BF005FF00F09D6F88C
:101B300000C019FA07F03CEA000C18FA07F050EA66
:101B40000C0CC6F800C04868C00040F18980A94864
:101B5000D0F800C05CF0010CC0F800C0006810F0C4
:101B6000010000900098DFF890A2704680085AF8B3
:101B700020C01EF00300C0B2800019FA00F93CEA50
:101B8000090C9E48834202D15FF0000913E09C4893
:101B9000834202D15FF001090DE09A48834202D1ED
:101BA0005FF0020907E09848834202D15FF0030921
:101BB00001E05FF004091EF00300C0B2800019FAD2
:101BC00000F9624659EA0202704680084AF820206D
:101BD0004868C00207D58D48D0F800C055EA0C0C03
:101BE000C0F800C006E08948D0F800C03CEA050C07
:101BF000C0F800C04868800207D58548D0F800C00A
:101C000055EA0C0CC0F800C006E08148D0F800C0CE
:101C10003CEA050CC0F800C04868800307D57D4841
:101C2000D0F800C055EA0C0CC0F800C006E07948B6
:101C3000D0F800C03CEA050CC0F800C04868C003FA
:101C400007D57548D0F800C055EA0C0CC0F800C0A4
:101C500006E07148D0F800C03CEA050CC0F800C0AE
:101C60001EF1010EF9E6BDE8F1872DE9F041030010
:101C700000270800F840002800F086800120B840C6
:101C800008400200002A7DD0DFF86CC138008008CF
:101C90005CF820005FF00F0E17F003085FFA88F879
:101CA0005FEA88081EFA08F818EA000004005348A2
:101CB000834202D15FF0000813E05148834202D111
:101CC0005FF001080DE04F48834202D15FF0020847
:101CD00007E04D48834202D15FF0030801E05FF066
:101CE000040817F00300C0B2800018FA00F8444559
:101CF0002CD14948D0F8008038EA0208C0F80080AA
:101D00004448D0F8008038EA0208C0F80080404813
:101D1000D0F8008038EA0208C0F800803B48D0F8CC
:101D2000008038EA0208C0F8008017F00300C0B253
:101D300080001EFA00F00400380080085CF82000E3
:101D4000A043B8465FEA98084CF82800B2F5807FB7
:101D500001D21D0000E01D1DB2F5807F01D2BE0042
:101D600002E0B7F10806B60028681EFA06FE30EA5F
:101D70000E0E0420B04050EA0E0EC5F800E0D86800
:101D80009043D8607F1C74E7BDE8F0810200906842
:101D90000B009BB2184201D0012000E00020C0B22D
:101DA00070471300DBB2002B03D00B009BB2036122
:101DB00003E00B009BB21B040361704710B50400E5
:101DC00016480168220092B2114206D0210089B261
:101DD0000160200080B2FFF7EBFB10BD0000111086
:101DE000000012100000211000002210000031102D
:101DF00000003210181002400800014000080140A5
:101E0000000C014000100140001401400804014092
:101E10000C0401400404014000040140140401408A
:101E20002DE9F8434FF4FC740025DFF82C653700EA
:101E30002A0021003800FFF75FFC64275FF00008EC
:101E4000DFF81895424639004846FFF755FC012255
:101E50001021DFF80C05FFF7A4FF40F6C4107060F6
:101E600001203070BDE8F183F8B500221021DFF8C1
:101E7000F004FFF796FFDFF8E044202060600020C8
:101E80000021C4E90201E825002614F11007320000
:101E900029003800FFF730FC04202070F1BDDFF886
:101EA000BC0470472DE9F84F4FF40041DFF8B4044B
:101EB000FFF76CFF81464846C0B2012801D10024DB
:101EC00000E00124DFF890542878012808D0032886
:101ED0000FD0042816D0052825D006282CD076E06F
:101EE0006868401E68606868012801DA022028706E
:101EF0006DE06868401E68606868012801DA0220A9
:101F0000287064E06868401E68606868012809DA23
:101F100001221021DFF84804FFF743FF3B206860EF
:101F20000520287053E06868401E686068680128D2
:101F300001DA062028704AE0D5E902014022002398
:101F400002F0EEFF8046D5E902014022002302F0B4
:101F5000E7FF0092012600272000C0B2002811D020
:101F600005EBC800D0E904AB30003900009A03F05B
:101F700011F952465B461043194305EBC802C2E90A
:101F8000040112E005EBC800D0E904AB30003900D1
:101F9000009A03F0FFF852465B4632EA000033EA4B
:101FA000010105EBC802C2E90401D5E90201401CA8
:101FB00071F1FF31C5E90201D5E90201002905DB14
:101FC00002DCB0F5E06F01D307202870FFE7BDE821
:101FD000F18F10B5DFF880432078022802D1FFF797
:101FE00043FF14E02078072807D100F09FF8032072
:101FF00020704FF4FA70606009E02078082806D15C
:1020000000F071F8032020704FF4FA70606010BD8A
:102010002DE9F84F88B08046302004900124002537
:1020200020002900049A03F0B5F8401E71F1000168
:10203000CDE90601B8F1000F0BD5C74AD2E904017A
:10204000D8F1000203F0A6F8DDE90623104019409C
:1020500046E0402098FBF0FB5FF0400998FBF9F068
:1020600009FB1089D9F14000029004990298091ADD
:102070000391DFF8E4A20AEBCB02D2E904014A465D
:1020800002F038FF06000F0020002900029A03F03A
:1020900081F8401E71F1000132003B0012EA000697
:1020A00013EA01070398012816DB0AEBCB02D2E9F9
:1020B0000601CDE9000120002900039A03F06AF827
:1020C000401E71F10001DDE9002310401940029A21
:1020D00003F060F806430F43DDE906013040394064
:1020E00009B0BDE8F08F2DE9F04733240025DFF873
:1020F000688218F1F8062A0021003000FFF7FCFA88
:10210000CC26002708F22B183A0031004046FFF792
:10211000F3FA5FF064085FF00009DFF840A24A4676
:1021200041465046FFF7E8FABDE8F0872DE9F84F41
:1021300086B0894ED6E90401CDE9040100270420C8
:1021400001905FF0FF38CDF80080032F31D2CDF839
:102150000080019C0025002D0FD801D3302C0CD21B
:10216000DDE90401220002F0C5FEC00701D500949C
:1021700003E0641C75F1FF35EDE70098002805D5F4
:10218000FFF7B1FF082030700120E2E000200700D7
:10219000009C202C09DADDE90401220002F0AAFEED
:1021A000C00702D57F1C641CF3E700983818019023
:1021B000CBE71C2F08D30198202805D1FFF793FF08
:1021C000082030700120C4E00098143003905FF0C4
:1021D0000008B8F1330F80F0A280039810EB48108C
:1021E000FFF716FF04000D005FF010095FF0000A12
:1021F0000026B9F1010BBBF1000F0AD42000290021
:102200005A4602F077FEC00703D5761CBBF1010BDE
:10221000F1E7514800EB880080F82B615FF0000B7C
:10222000B9F1180F0BD2200029004A4602F062FED5
:10223000C00701D51BF1010B19F10109F0E7464870
:1022400000EB880080F82CB10026B9F1200F0AD2EB
:10225000200029004A4602F04DFEC00700D5761C3A
:1022600019F10109F1E73C4800EB880080F82D6185
:102270005FF0000B30200290029881450BD22000C5
:1022800029004A4602F036FEC00704D51BF1010BB7
:1022900019F10109F0E7304E06EB880080F82EB105
:1022A00006EB880090F82C0106EB880191F82D11BF
:1022B000091806EB880090F82B0100280DD106EBD9
:1022C000880090F82E01411806EB880090F82E0146
:1022D000102815D35AF0040A12E006EB880090F893
:1022E0002E0100280CD106EB880090F82B01411834
:1022F00006EB880090F82B01102801D35AF0040A4D
:10230000062901D35AF0010A0C2901D35AF0020A16
:1023100006EB080080F8F8A018F1010859E7012041
:10232000332815D2411E49000C4A06EB000393F8EE
:10233000F83013F00103535406EB000393F8F83020
:10234000DBB25B0813F0010311444B70401CE7E75C
:10235000012007B0BDE8F08F100000200404002029
:10236000000C01400008014070B402004FF6FF73FA
:102370000024200080B288420FDA1D00ADB20C4E5E
:102380009BB203F0FF03200080B2105C434036F89C
:10239000133093EA1523641CEBE71C00A4B2240A53
:1023A0002000C0B250EA032080B270BC704700BF6A
:1023B0002C55000810B50400002C01D1012035E097
:1023C000A0690028FFD194F84100002805D1002021
:1023D00084F84000200002F079FF242084F84100B6
:1023E0002068C06830F400502168C860200000F008
:1023F00035FC2068006930F490402168086120684D
:10240000406930F02A00216848612068C06850F4B3
:1024100000502168C86000206064202084F84100DA
:10242000202084F8420000206063002010BD10B519
:102430000400002C01D101201BE0242084F841007D
:102440002068C06830F400502168C860200002F0A5
:102450007CFF00206064002084F84100002084F8A4
:1024600042000020206300206063002084F84000C8
:10247000002010BD2DE9FC4706000D00170098460E
:10248000002496F84100202857D1002D03D03800B1
:1024900080B2002801D1012050E00020706421208A
:1024A00086F8410002F036FD8146B784F784B068B3
:1024B000B0F5805F05D13069002802D10024AA461A
:1024C00002E02C005FF0000AF08C002821D0CDF84B
:1024D00000804B4600228021300000F05DFA002889
:1024E00004D0202086F84100032027E0002C08D1EA
:1024F000BAF80000C005C00D316848601AF1020A40
:1025000003E0207831684860641CF08C401EF08441
:10251000DAE7CDF800804B4600224021300000F081
:102520003BFA002804D0202086F84100032005E073
:10253000202086F84100002000E00220BDE8F68758
:102540007CB505000C00160095F84200202836D115
:10255000002C03D0300080B2002801D101202FE0F0
:102560000120286300206863320092B22100280015
:1025700000F054FA01000800C0B200281CD1286BFA
:10258000012817D100200090286800680090286872
:1025900040680090009828680C3050E8000F50F018
:1025A00010000200286810F10C0343E80020002806
:1025B000F1D101E0012001000800C0B200E00220DA
:1025C00076BD10B5040020680C3050E8000F30F4E0
:1025D000F0700100206810F10C0242E800100028A1
:1025E000F1D12068143050E8000F4008400001008D
:1025F000206810F1140242E800100028F1D1206B8D
:1026000001280DD120680C3050E8000F30F0100088
:102610000100206810F10C0242E800100028F1D1FE
:1026200020684069000621D52068143050E8000F6A
:1026300030F080000100206810F1140242E8001020
:102640000028F1D1A06B002810D00020A16B4863B6
:10265000A06B02F09FFE002808D0A06B02F02DFFB7
:10266000202803D110206064032034E020684069F2
:10267000400621D52068143050E8000F30F04000AB
:102680000100206810F1140242E800100028F1D186
:10269000E06B002810D00020E16B4863E06B02F093
:1026A00079FE002808D0E06B02F007FF202803D154
:1026B0001020606403200EE00020E0840020E0850C
:1026C00000206064202084F84200202084F841002B
:1026D00000202063002010BD2DE9FC470600306873
:1026E00007683068D0F80C803068D0F8149000206B
:1026F000002517F00F04002C08D1B80606D55FEAB4
:10270000886003D5300000F02EFA43E1002C77D02A
:102710005FEAC97002D418F4907F71D03800C00706
:1027200006D55FEAC85003D5706C50F001007064A4
:10273000780706D54846C00703D5706C50F00200F4
:102740007064B80706D54846C00703D5706C50F0D2
:1027500004007064380709D55FEA886002D44846EF
:10276000C00703D5706C50F008007064706C0028CE
:1027700045D0B80605D55FEA886002D5300000F084
:10278000F2F930684069800910F001000500706CB2
:10279000000701D4002D2DD0300000F061F9306821
:1027A0004069400622D53068143050E8000F30F000
:1027B00040000100306810F1140242E800100028C7
:1027C000F1D1F06B00280DD00FF2FD20F16B4863C2
:1027D000F06B02F006FE002811D0F06BF16B496B34
:1027E00088470CE0300002F06AFE08E0300002F09A
:1027F00066FE04E0300002F062FE00207064C9E072
:10280000306B012840F0B480F80640F1B1805FEAF7
:10281000C86040F1AD8000200090306800680090F2
:1028200030684068009000983068406940065CD588
:10283000F06B0068D0F804A0504680B2002853D056
:102840005046B18D80B288424ED2A6F82EA0F06BD1
:10285000806920283FD030680C3050E8000F30F4F9
:1028600080700100306810F10C0242E8001000286E
:10287000F1D13068143050E8000F400840000100EA
:10288000306810F1140242E800100028F1D13068DD
:10289000143050E8000F30F040000100306810F1B3
:1028A000140242E800100028F1D1202086F84200EE
:1028B0000020306330680C3050E8000F30F010001A
:1028C0000100306810F10C0242E800100028F1D13C
:1028D000F06B02F05FFD02207063B18DF08D091A7C
:1028E00089B23000FEF7BCFA54E0B6F82CA0F08DA7
:1028F000BAEB000AF08D002839D0504680B200288B
:1029000035D030680C3050E8000F30F49070010082
:10291000306810F10C0242E800100028F1D1306854
:10292000143050E8000F400840000100306810F1FA
:10293000140242E800100028F1D1202086F842005D
:102940000020306330680C3050E8000F30F0100089
:102950000100306810F10C0242E800100028F1D1AB
:1029600002207063514689B23000FEF779FA11E017
:10297000380606D55FEA086003D5300000F0B0F8ED
:1029800008E0780606D55FEA486003D5300000F01D
:10299000DAF8FFE7BDE8F3872DE9FC4105000E00FA
:1029A00017009846089C286800683040B04201D162
:1029B000012000E000203900C9B288422BD114F177
:1029C000010FF0D002F0A6FAB0EB0800844201D368
:1029D000002C01D103201FE02868C0684007E2D521
:1029E000802EE0D0402EDED0286800680007DAD5BF
:1029F00000200090286800680090286840680090D7
:102A00000098280000F02CF808206864002085F861
:102A10004000012000E00020BDE8F68110B4030072
:102A200099629A85DA8500205864222083F8420052
:102A30001869002805D01868C06850F480701C68B8
:102A4000E0601868406950F001001C686061186817
:102A5000C06850F020001C68E060002010BC704787
:102A600001680C3151E8001F31F490710A000168CF
:102A700011F10C0343E800210029F1D10168143160
:102A800051E8001F490849000A00016811F11403C8
:102A900043E800210029F1D1016B01290DD1016822
:102AA0000C3151E8001F31F010010A00016811F1EA
:102AB0000C0343E800210029F1D1202180F84210C5
:102AC000002101637047000038B50400656A0020EA
:102AD000E8850020E884280002F0F1FC31BD000008
:102AE000010091F8410021282BD18868B0F5805F62
:102AF0000DD1086900280AD1086A02001088C005B3
:102B0000C00D0B685860086A801C086205E0086AFE
:102B1000431C0B6200780B685860C88C401EC88448
:102B200080B200280BD10868C06830F080000B68C4
:102B3000D8600868C06850F040000B68D86000207A
:102B400000E00220704710B504002068C06830F033
:102B500040002168C860202084F84100200002F075
:102B6000AFFC002010BD7CB5040094F84200222880
:102B700072D1A068B0F5805F0DD1206900280AD11C
:102B80000025A66A20684068C005C00D3080A06A94
:102B9000801CA06217E0A56A0026A068B0F5805FDF
:102BA00005D0A068002806D12069002803D120683C
:102BB0004068287004E02068406810F07F002870AA
:102BC000A06A401CA062E08D401EE08580B2002813
:102BD00040D12068C06830F020002168C8602068BB
:102BE000C06830F480702168C8602068406940087F
:102BF000400021684861202084F842000020606382
:102C0000206B012821D10020206320680C3050E87F
:102C1000000F30F010000100206810F10C0242E8B3
:102C200000100028F1D120680068C00608D50020F7
:102C3000009020680068009020684068009000982C
:102C4000A18D2000FEF70CF902E0200002F039FC13
:102C5000002002E0002000E0022076BDF8B504006C
:102C60002068016931F44051E06801432068016146
:102C7000A1682069014365690D432068C1682D483A
:102C8000014029432068C1602068416931F44071E6
:102C9000A06901432068416120682749884202D128
:102CA00001F0DEFF01E001F0D0FF7FF063011922A7
:102CB00002FB00F36668B600B3FBF6F36426B3FBD1
:102CC000F6F302FB00F66768BF00B6FBF7F602FBFF
:102CD00000F7D4F804C05FEA8C0CB7FBFCF75FF098
:102CE000640CB7FBFCF701FB07663601323664273C
:102CF000B6FBF7F616F0F00616EB031602FB00F330
:102D00006768BF00B3FBF7F302FB00F26768BF0020
:102D1000B2FBF7F26427B2FBF7F201FB02310901C3
:102D200032316422B1FBF2F111F00F018E192168EA
:102D30008E60F1BDF3E9FFFF0038014062B38B07FD
:102D400008D0521E11F8013B00F8013B00F024802E
:102D50008B07F6D1830740F0208000BF103A07D3DD
:102D600030B4B1E83810103AA0E83810F9D230BCCD
:102D7000530724BFB1E80810A0E8081044BF51F879
:102D8000043B40F8043BD20724BF31F8022B20F863
:102D9000022B44BF0B7803707047121F17D35B00E0
:102DA00009D151F8043B20F8023B1B0C121F20F8FC
:102DB000023BF6D20BE051F8043B00F8013B1B0A42
:102DC00020F8023B1B0C121F00F8013BF3D238BF66
:102DD000121D521E24BF11F8013B00F8013BF8D828
:102DE0007047000280B50748016851F0100101608A
:102DF000032002F03DF80F2002F064FB02F0DCF942
:102E0000002002BD0020024070B50400002C01D15A
:102E10000120E1E094F83D00002805D1002084F86D
:102E20003C00200002F0E6F9242084F83D002068F0
:102E3000006840084000216808602068006850F47D
:102E40000040216808602068006830F40040216874
:102E5000086001F0FAFE0200DFF89001616881422B
:102E600008D2DFF88C118A4201D2012100E0002152
:102E7000C9B207E0DFF87C118A4201D2012100E0EB
:102E80000021C9B2012901D10120A5E0DFF86811B4
:102E9000B2FBF1F123685B689B099B010B4325683A
:102EA0006B6023681B6A6568854201D24D1C08E08F
:102EB0004FF4967505FB01F54FF47A76B5FBF6F500
:102EC0006D1C9B099B012B4325682B622368DB69E2
:102ED0006568854214D2501E65686D00B0FBF5F040
:102EE000401C0005000D042801D204253EE0501EC0
:102EF00065686D00B0FBF5F56D1C2D052D0D35E0F9
:102F0000A068002809D1551E666803204643B5FB1A
:102F1000F6F0401C0005000D0AE0551E66681920F9
:102F20004643B5FBF6F0401C0005000D50F4804010
:102F3000000501D1012519E0A068002809D1551E1E
:102F4000666803204643B5FBF6F56D1C2D052D0D77
:102F50000AE0551E666819204643B5FBF6F56D1C60
:102F60002D052D0D55F4804555F40045DFF88C00F6
:102F700003402B432068C3612068036833F0C0031B
:102F8000E0690343206A0343206803602068836884
:102F9000DFF86C00034020690343E06803432068C6
:102FA00083602068C3681B0A1B02A0690343606931
:102FB00003432068C3602068006850F00100236864
:102FC000186000202064202084F83D000020206349
:102FD000002084F83E00002070BD016849690906A0
:102FE00002D500210268116170470000A18601002E
:102FF00080841E0000093D0040420F000030FFFFAA
:10300000007CFFFF38B4040094F83D0010F0280065
:10301000282841D1002903D0100080B2002801D116
:1030200001203AE094F83C00012801D1022034E06C
:10303000012084F83C0020680068C00705D420689F
:10304000006850F00100256828602068006830F4AE
:10305000006025682860292084F83D00202084F83D
:103060003E000020206461626285608D2085E362FD
:1030700000200090206840690090206880690090DE
:103080000098002084F83C002068406850F4E0601C
:1030900025686860002000E0022032BC704738B428
:1030A000040094F83D0010F02800282841D10029A0
:1030B00003D0100080B2002801D101203AE094F83A
:1030C0003C00012801D1022034E0012084F83C00BA
:1030D00020680068C00705D42068006850F001002F
:1030E000256828602068006830F400602568286042
:1030F0002A2084F83D00202084F83E00002020642F
:1031000061626285608D2085E36200200090206806
:10311000406900902068806900900098002084F841
:103120003C002068406850F4E0602568686000203A
:1031300000E0022032BC7047010091F83D002028D9
:103140001AD1282081F83D0008680068C00705D41E
:103150000868006850F001000A681060086800689C
:1031600050F480600A6810600868406850F440704D
:103170000A685060002000E0022070472DE9F04707
:103180000400002520684668E76A94F83E8094F8B9
:103190003D904046C0B2102803D04046C0B24028FF
:1031A00076D12068806905002068D0F814A05FEA15
:1031B000CA700CD4B7F52A0F02D0B7F12A4F01D14B
:1031C000012000E00020C0B2002840F0B880504646
:1031D000C00708D5B00506D5200001F049F8200049
:1031E00000F078FBABE05FEA0A7005D5B00503D5C7
:1031F000200000F0C8FBA2E05FEA8A7005D5B005A8
:1032000003D5200000F0D8FB99E0680727D5206897
:103210004068000500F193805FEA0A6008D57005F8
:1032200006D55FEA4A7003D4200000F006F986E074
:103230005FEA4A7040F18380B00540F180804846E3
:10324000C0B2212803D1200000F06BF977E040469E
:10325000C0B2402873D1200000F0B5F96FE02068BB
:10326000406800056BD45FEA4A6008D5700506D552
:103270005FEA4A7003D4200000F012FA5FE05FEAD0
:103280004A705CD5B0055AD5200000F08AFA56E0A5
:10329000206C002803D02068D0F814A005E0206836
:1032A000806905002068D0F814A05FEA8A700CD508
:1032B000B0050AD5206C002802D02068806905007E
:1032C0002900200000F00FFD39E05FEACA6005D553
:1032D000B00503D5200000F039FD30E04846C0B20B
:1032E000212803D04846C0B2292814D15FEA0A60D9
:1032F00008D5700506D55FEA4A7003D4200000F0B7
:1033000088FC1CE05FEA4A7019D5B00517D520008B
:1033100000F0A6FC13E05FEA4A6008D5700506D508
:103320005FEA4A7003D4200000F0A8FC07E05FEADF
:103330004A7004D5B00502D5200000F0C6FCBDE8F7
:10334000F0872DE9F84F06003068D0F81490306807
:10335000D0F804A0002596F83EB05FEAC9500ED51B
:103360005FEACA500BD555F001057FF480703168D3
:1033700048613068006850F40040316808605FEAD6
:10338000895008D55FEACA5005D555F002057FF48B
:103390000070316848615FEA495038D55FEACA5029
:1033A00035D58DF800B0708D040096F83D0007000B
:1033B000306B80469DF80000202814D1002C12D1DB
:1033C0003800C0B221280AD03800C0B2292806D05F
:1033D0003800C0B2282806D1B8F1210F03D130003F
:1033E00000F081FD13E07FF480603168486155F0A2
:1033F00004055846C0B2102803D05846C0B2402831
:1034000005D13068006850F40070316808605FEAE8
:10341000095008D55FEACA5005D555F008057FF474
:10342000006031684861002D05D0306C284330645D
:10343000300000F0ADFDBDE8F18FF8B5040094F860
:103440003D5094F83E60E76A208D002840D1280066
:10345000C0B221283CD1082F17D0202F15D0DFF87B
:10346000C80C874211D02068406830F4E0602168C1
:10347000486011202063002084F83E00202084F85A
:103480003D00200002F044F84AE02068406830F433
:10349000E060216848602068006850F4007021688E
:1034A000086000202063202084F83D0094F83E004E
:1034B000402806D1002084F83E00200002F029F8C0
:1034C0002EE0002084F83E00200002F021F827E0E2
:1034D0002800C0B2212807D03000C0B240281FD138
:1034E0002800C0B222281BD1608D002806D1206898
:1034F000406830F480602168486011E094F83E0034
:10350000402803D1200000F05EF809E0606A0078EE
:1035100021680861606A401C6062608D401E6085A1
:10352000F1BD38B50400E56A94F83D00212849D181
:10353000608D00280AD0606A007821680861606A9E
:10354000401C6062608D401E60853BE0082D17D0F6
:10355000202D15D0DFF8D00B854211D020684068AF
:1035600030F4E0602168486011202063002084F876
:103570003E00202084F83D00200001F0C9FF21E03A
:103580002068406830F4E060216848602068006886
:1035900050F400702168086000202063202084F827
:1035A0003D0094F83E00402806D1002084F83E00FB
:1035B000200001F0AEFF05E0002084F83E0020006E
:1035C00001F0A6FF31BD38B5040094F83D50206DE0
:1035D000002814D1E06C012807D1A06CC0B221688A
:1035E0000861206D801C206559E0A06C80B2000A43
:1035F000C0B221680861206D401C20654FE0206D3D
:10360000012807D1A06CC0B221680861206D401C60
:10361000206544E0206D02283ED12800C0B2222857
:1036200009D12068006850F4807021680860206D1E
:10363000401C206533E0608D00280ED02800C0B209
:1036400021280AD1606A007821680861606A401CFC
:103650006062608D401E608521E0608D00281ED173
:103660002800C0B221281AD12068406830F4E060F8
:10367000216848602068006850F400702168086084
:1036800000202063202084F83D00002084F83E00C4
:10369000200001F03EFF02E02000FFF79EFC31BD5C
:1036A00070B5050095F83D00222879D1EE6A6C8D41
:1036B000042C13D328680069696A0870686A401C82
:1036C0006862688D401E6885688D032868D1286807
:1036D000406830F480602968486061E0E86A022848
:1036E00058D0012C01D0002C54D1280000F099FDB5
:1036F000002835D12868006830F4806029680860A7
:103700002868406830F4E0602968486028680069EB
:10371000696A0870686A401C6862688D401E688526
:10372000202085F83D0095F83E00402808D1002073
:1037300085F83E0000202863280001F0EBFE2FE012
:10374000002085F83E00082E01D0202E02D1002056
:10375000286301E012202863280001F0DCFE1FE04E
:103760002868406830F4E06029684860286800698B
:10377000696A0870686A401C6862688D401E6885C6
:10378000202085F83D00002085F83E002800FDF748
:1037900002FF05E02868406830F4806029684860CE
:1037A00070BD38B50400E56A608D042810D120682A
:1037B000406830F480602168486020680069616A70
:1037C0000870606A401C6062608D401E608580E009
:1037D000608D03281AD12068406830F48060216829
:1037E0004860042D07D0022D05D02068006830F411
:1037F00080602168086020680069616A0870606AFA
:10380000401C6062608D401E608562E0608D022811
:1038100055D1012D01D0102D06D12068006830F45B
:1038200080602168086010E0042D01D0022D06D1CF
:103830002068006850F480602168086005E0206816
:10384000006850F400702168086020680069616AAF
:103850000870606A401C6062608D401E6085206850
:103860000069616A0870606A401C6062608D401E79
:1038700060852068406830F44070216848602020EE
:1038800084F83D0094F83E00402808D1002084F8D8
:103890003E0000202063200001F03CFE19E00020E3
:1038A00084F83E00082D01D0202D02D10020206395
:1038B00001E012202063200001F02DFE09E02068C5
:1038C0000069616A0870606A401C6062608D401E19
:1038D000608531BD90F83E1040290FD1016D00295F
:1038E00005D1416C11F0FE01026811614AE0416CA2
:1038F00051F00101C9B20268116143E00169B1F5FB
:10390000804F24D190F83D10212905D1416C11F050
:10391000FE010268116105E0416C51F00101C9B27C
:1039200002681161416B002903D0416B896A00294B
:1039300006D1816B002925D0816B896A002921D0AD
:103940000168496851F40061026851601AE0016D34
:1039500000290AD1416C89B2C90911F0060151F060
:10396000F001C9B2026811610CE0016D012909D1B1
:10397000416C89B2C90911F0060151F0F101C9B2D7
:10398000026811617047416CC9B202681161416BF4
:10399000002903D0416B896A002906D1816B002977
:1039A00009D0816B896A002905D00168496851F402
:1039B000006102685160704738B490F83E20C36AD5
:1039C000046B90F83D10222940F01781016D002909
:1039D0000DD11100C9B2402909D10021009101681F
:1039E0004969009101688969009100990EE1016DB2
:1039F000002916D10169B1F5404F12D10021009183
:103A0000016849690091016889690091009901681C
:103A1000096851F4807105682960016D491C0165D0
:103A2000F4E0418D00290FD100210091016849691E
:103A3000009101688969009100990168096851F451
:103A4000007105682960D5E0418D012968D1DFF852
:103A5000D8168B4229D10168096831F48061056864
:103A600029600168496809050FD50168096831F4C2
:103A70008061056829600021009101684969009111
:103A80000168896900910099B4E000210091016802
:103A90004969009101688969009100990168096884
:103AA00051F4007105682960A4E0082B22D0202B76
:103AB00020D0122C01D1012B1CD1042B0AD0022BB7
:103AC00008D0102B06D00168096831F480610568C0
:103AD000296005E00168096851F480610568296082
:103AE000002100910168496900910168896900918C
:103AF00000997FE00168096831F4806105682960F8
:103B0000002100910168496900910168896900916B
:103B100000990168096851F400710568296069E03D
:103B2000418D022941D1042B19D0022B17D0102B23
:103B300015D00168096851F4006105682960002109
:103B400000910168496900910168896900910099B3
:103B50000168096831F48061056829600EE0016838
:103B6000096851F4806105682960002100910168AD
:103B70004969009101688969009100990168496863
:103B8000090537D5DFF8A0158B4207D0012B05D0EA
:103B9000082B03D0102B01D0202B2BD101684968B2
:103BA00051F480510568696024E00168096851F4A6
:103BB00080610568296001684968090511D5DFF849
:103BC00068158B4207D0012B05D0082B03D0102B92
:103BD00001D0202B05D10168496851F48051056856
:103BE0006960002100910168496900910168896953
:103BF000009100990021016508E000210091016811
:103C000049690091016889690091009931BC704748
:103C1000000038B5040094F83D50608D00281ED097
:103C2000606A007821680861606A401C6062608D8B
:103C3000401E6085608D002811D12800C0B229285F
:103C40000DD12068406830F48060216848602120F0
:103C50002063282084F83D00200001F05DFC31BD88
:103C6000418D002909D0416A097802681161416AD1
:103C7000491C4162418D491E4185704738B5040099
:103C800094F83D50608D00281ED020680069616A5C
:103C90000870606A401C6062608D401E6085608DA7
:103CA000002811D12800C0B22A280DD12068406810
:103CB00030F480602168486022202063282084F846
:103CC0003D002000FDF73AFC31BD418D002909D0AF
:103CD00001680969426A1170416A491C4162418D5B
:103CE000491E41857047F8B504000D00002694F880
:103CF0003D0010F0280028281BD12068406830F4CF
:103D0000806021684860680701D401200600280609
:103D100002D4E068070001E0A0690700002084F8F1
:103D20003C003A0092B23100C9B22000FDF7B2FB6C
:103D30000BE00020009020684069009020688069B6
:103D400000900098002084F83C00F1BD38B50400D4
:103D500094F83D502068406830F4E0602168486085
:103D6000002000902068406900902068006850F0B2
:103D700001002168086000982068006830F48060C5
:103D8000216808602068406800054ED52800C0B250
:103D9000222803D02800C0B22A2823D1A06B0068B3
:103DA00040686085608D002803D0206C50F00400CE
:103DB00020642068406830F4006021684860A06B8F
:103DC00001F078FB012830D00FF26130A16B48631D
:103DD000A06B01F006FB002827D0A06BA16B496BFC
:103DE000884722E0606B006840686085608D00282D
:103DF00003D0206C50F0040020642068406830F448
:103E0000006021684860606B01F054FB01280CD011
:103E10000FF21930616B4863606B01F0E2FA002821
:103E200003D0606B616B496B8847608D002822D09E
:103E300020684069400709D520680069616A0870F8
:103E4000606A401C6062608D401E60852068406929
:103E5000400609D520680069616A0870606A401CE4
:103E60006062608D401E6085608D002803D0206CEC
:103E700050F004002064206C002803D0200000F0E3
:103E800087F82FE02800C0B22A2807D1002020633D
:103E9000282084F83D002000FDF750FB94F83D00F9
:103EA00028280DD1A048E06200202063202084F85B
:103EB0003D00002084F83E002000FDF762FB11E089
:103EC000206B222803D02800C0B222280AD100206B
:103ED0002063202084F83D00002084F83E0020006C
:103EE000FDF72CFB31BD70B5040094F83D50E66A37
:103EF000082E01D0202E21D12800C0B228281DD1A3
:103F00008948E0622068406830F4E06021684860D9
:103F10007FF48060216848612068006830F4806028
:103F20002168086000202063202084F83D000020E4
:103F300084F83E002000FDF724FB28E02800C0B2F2
:103F4000212820D17848E06221202063202084F8B5
:103F50003D00002084F83E002068406830F4E060B6
:103F6000216848607FF480602168486120680068AB
:103F700030F48060216808602000FFF72EF82000F0
:103F800001F0CAFA03E07FF480602168486170BDE7
:103F90002DE9F041040094F83D5094F83E804046ED
:103FA000C0B2102803D04046C0B2402809D1280032
:103FB000C0B2222805D12068006830F40060216872
:103FC00008602800C0B210F02800282805D1002081
:103FD0002063282084F83D000FE020684068000539
:103FE00009D42800C0B2602805D0202084F83D0004
:103FF000002084F83E00002020632068406800050F
:1040000043D52068406830F4006021684860606BE8
:1040100090F82100012816D00FF21110616B48634F
:10402000606B01F0DEF900285BD020680068400872
:10403000400021680860202084F83D00606B616BBF
:10404000496B88474DE00FF2E500A16B4863A06B18
:1040500001F0C7F9002844D020684069400606D521
:1040600020680069616A0870606A401C60622068AC
:1040700000684008400021680860202084F83D0066
:10408000A06BA16B496B88472BE094F83D0060283A
:1040900019D1202084F83D00002020642068406968
:1040A000400606D520680069616A0870606A401C95
:1040B00060622068006840084000216808602000B5
:1040C00001F02BFA0DE020684069400606D5206813
:1040D0000069616A0870606A401C60622000FDF738
:1040E0005AFA276C17F00F0F05D02068406830F49B
:1040F000E0602168486094F83D60206C400710D56E
:104100003000C0B228280CD10748E06200202063AC
:10411000202084F83D00002084F83E002000FDF7B8
:1041200030FABDE8F08100000000FFFF7CB504001C
:1041300000200090656A95F83D60DFF83001006866
:104140001921B0FBF1F04FF47A71B0FBF1F12320AB
:10415000414300910098002804D1286C50F02000C1
:10416000286406E00098401E0090286800688005DA
:10417000F0D4686B002802D00020696B8862A86BBD
:10418000002802D00020A96B88622868006830F4FB
:1041900080602968086000206885686B002802D06C
:1041A0000020696B4863A86B002802D00020A96B2F
:1041B000486328680068400840002968086095F84E
:1041C0003D0060280BD1202085F83D00002085F8B7
:1041D0003E0000202864280001F09FF920E0300014
:1041E000C0B210F02800282811D12868006850F0CB
:1041F0000100296808602868006850F48060296818
:10420000086000202863282085F83D0005E0202074
:1042100085F83D00002085F83E002800FDF7BBF939
:1042200073BD81B001000020009010480068192281
:10423000B0FBF2F04FF47A72B0FBF2F20520424389
:1042400000920098401E00900098002805D1086C4C
:1042500050F020000864012004E008680068800530
:10426000EFD4002001B070470000000004000020DF
:10427000C16AB1F52A0F02D10121C16205E0C16A0C
:10428000B1F12A4F01D10821C162704710B5040075
:10429000002C01D101202FE094F83D00002805D129
:1042A000002084F83C00200000F0E0FF022084F8A9
:1042B0003D00211D206800F078F9012084F84600B7
:1042C000012084F83E00012084F83F00012084F89A
:1042D0004000012084F84100012084F842000120C0
:1042E00084F84300012084F84400012084F845004C
:1042F000012084F83D00002010BD010091F83D0030
:10430000012801D0012030E0022081F83D0008683A
:10431000C06850F001000B68D8600868DFF84C30C6
:1043200098420DD00868B0F1804F09D00868DFF8D6
:104330004030984204D00868DFF8383098420DD1F8
:104340000868806810F007000200062A0CD0086890
:10435000006850F001000B68186005E0086800680C
:1043600050F001000B68186000207047002C0140DD
:10437000000400400008004070B504002068C568D3
:1043800020680669B00718D5A80716D57FF0020087
:1043900021680861012020772068806910F0030FF0
:1043A00003D0200001F0BAF805E0200001F0B7F8D2
:1043B000200001F0B5F800202077700718D56807B5
:1043C00016D57FF00400216808610220207720685C
:1043D000806910F4407F03D0200001F09FF805E0D1
:1043E000200001F09CF8200001F09AF800202077CE
:1043F000300718D5280716D57FF008002168086116
:10440000042020772068C06910F0030F03D020003B
:1044100001F084F805E0200001F081F8200001F0AF
:104420007FF800202077F00618D5E80616D57FF033
:10443000100021680861082020772068C06910F406
:10444000407F03D0200001F069F805E0200001F072
:1044500066F8200001F064F800202077F00708D506
:10446000E80706D57FF00100216808612000FCF70D
:104470009FFF300608D5280606D57FF0800021680A
:104480000861200001F04DF8700608D5680606D5D1
:104490007FF0400021680861200001F043F8B00679
:1044A00008D5A80606D57FF0200021680861200005
:1044B00001F039F870BDF8B504000D00002694F83D
:1044C0003C00012801D102206EE0012084F83C006C
:1044D000022084F83D002068876837F0770737F4BA
:1044E0007F4720688760286800284ED010284CD06D
:1044F00020284AD0302848D040283CD0502826D008
:1045000060282ED0702807D0B0F5805F03D0B0F5BA
:10451000005F0FD03EE03FE0EB686A68A968206862
:1045200000F0B1F82068806850F07700070020683C
:10453000876031E0EB686A68A968206800F0A3F83A
:104540002068806850F480402168886024E0EA6830
:104550006968206800F06AF85021206800F08BF844
:104560001AE0EA686968206800F072F86021206843
:1045700000F081F810E0EA686968206800F056F8F9
:104580004021206800F077F806E02968206800F0F4
:1045900072F801E001200600012084F83D000020AF
:1045A00084F83C003000C0B2F2BD10B403681C4C6B
:1045B000A04208D0B0F1804F05D01A4A904202D0F4
:1045C000194A904204D133F070031A004B68134328
:1045D000A04208D0B0F1804F05D0124A904202D0DC
:1045E000114A904204D133F440731A00CB6813434C
:1045F00033F080034A69134303608A68C2620A6821
:104600008262A04201D10A69026301224261026909
:10461000D20703D5026952085200026110BC7047EC
:10462000002C0140000400400008004010B4046A5F
:10463000036A5B085B000362836933F0F00353EAAB
:10464000021334F00A040C438361046210BC704707
:1046500010B4046A036A33F010030362836933F40D
:10466000704353EA023334F0A00454EA0114836126
:10467000046210BC7047826832F070020A4352F044
:1046800007028260704710B4846834F47F440C439E
:10469000144354EA0324846010BC70472DE9FC479E
:1046A0000400002C01D10120F6E12078C0076BD571
:1046B000DFF8EC05016811F00C01042907D001684E
:1046C00011F00C0108290CD10068C00309D5DFF8EE
:1046D000CC050068800357D56068002854D10120BC
:1046E000DAE16068B0F5803F06D1DFF8B005016817
:1046F00051F48031016026E0606800280AD1DFF8BB
:104700009C05016831F480310160016831F4802139
:10471000016018E06068B0F5A02F0AD1DFF87C05D1
:10472000016851F480210160016851F48031016019
:1047300009E0DFF86805016831F480310160016843
:1047400031F480210160606800280ED000F0E2FBA7
:104750000500DFF848050068800315D400F0DAFB97
:10476000401B6528F5D3032096E100F0D3FB05003C
:10477000DFF828050068800306D500F0CBFB401B5E
:104780006528F5D3032087E12078800750D5DFF82E
:104790001005016811F00C0F07D0016811F00C0131
:1047A000082914D10068C00311D4DFF8F0040168AF
:1047B000890704D52169012901D001206CE1016834
:1047C00031F0F801626951EAC201016030E020690C
:1047D00000281AD00120DFF8DC14086000F09AFBF2
:1047E0000500DFF8B8040168890706D400F092FBE1
:1047F000401B0328F5D303204EE1016831F0F80196
:10480000626951EAC201016012E00020DFF8A414DD
:10481000086000F07FFB0500DFF880040068800777
:1048200006D500F077FB401B0328F5D3032033E1C6
:10483000207800072CD5A069002816D00120DFF8C9
:104840007814086000F066FB0500DFF86404006877
:10485000800706D400F05EFB401B0328F5D303203D
:104860001AE1012000F007FA12E00020DFF84814F6
:10487000086000F04FFB0500DFF834040068800793
:1048800006D500F047FB401B0328F5D3032003E1C6
:104890002078400740F18E800027DFF82084D8F888
:1048A0000000C0000DD4D8F8000050F08050C8F8C7
:1048B0000000D8F8000010F080500090009801200F
:1048C0000700DFF8FC93D9F80000C00513D4D9F82D
:1048D000000050F48070C9F8000000F01BFB0500D8
:1048E000D9F80000C00506D400F014FB401B652871
:1048F000F6D30320D0E0E068012806D1DFF8C40336
:10490000016851F00101016025E0E06800280AD14A
:10491000DFF8B0030168490849000160016831F01F
:104920000401016017E0E06805280AD1DFF894036C
:10493000016851F004010160016851F0010101605A
:1049400009E0DFF880030168490849000160016857
:1049500031F004010160E068002810D000F0DAFABC
:104960000500DFF860030068800719D400F0D2FA70
:10497000401B41F289318842F3D303208CE000F0E0
:10498000C9FA0500DFF83C030068800708D500F08D
:10499000C1FA401B41F289318842F3D303207BE006
:1049A0003800C0B2012805D1D8F8000030F080509E
:1049B000C8F80000E06900286DD0DFF8E482D8F87C
:1049C000000010F00C00082851D0E06902283BD10B
:1049D000DFF8F4A20020CAF8000000F09BFA0700FC
:1049E000DFF8B892D9F80000800106D500F092FAFD
:1049F000C01B0328F4D303204EE0206AB0F5803FAB
:104A000007D1D8F8001031F40031A0680143C8F88C
:104A10000010D8F8001031F47411206A0143606A64
:104A20000143C8F800100120CAF8000000F072FA33
:104A30000500D9F8000080012DD400F06BFA401B6E
:104A40000328F6D3032027E00020DFF87C1208605B
:104A500000F060FA0500DFF84402006880011AD512
:104A600000F058FA401B0328F5D3032014E0E06956
:104A7000012801D101200FE0D8F80000060016F44B
:104A80008030216A884204D116F47010616A88422D
:104A900001D0012000E00020BDE8F6872DE9F041BB
:104AA00004000D00002C01D101209BE0DFF81C72F6
:104AB000386810F00700A8420BD23868C008C00060
:104AC00028433860386810F00700A84201D0012060
:104AD00088E02078800716D52078400704D57048F4
:104AE000016851F4E06101602078000704D56C484A
:104AF000016851F46051016069490A6832F0F002BE
:104B0000A06802430A602078C00735D56068012894
:104B100005D162480068800310D4012062E060681B
:104B2000022805D15D480068800107D4012059E0C2
:104B30005A480068800701D4012053E0DFF8608103
:104B4000D8F800108908890060680143C8F800108F
:104B500000F0E0F90600D8F8000010F00C006168E1
:104B6000B0EB810F08D000F0D5F9801B41F28931FC
:104B70008842F0D3032035E0386810F00700854202
:104B80000BD23868C008C00028433860386810F07D
:104B90000700A84201D0012024E02078400706D574
:104BA0003F490A6832F4E062E06802430A60207814
:104BB000000707D53A48016831F46051226951EA8B
:104BC000C201016000F010F84149354A1268C2F391
:104BD0000312895CC840344908603448006800F01A
:104BE00071FC0020BDE8F081F0B400200022002319
:104BF000002400252A4E316811F00C07042F02D042
:104C0000082F02D01BE033481AE03348C1F3834732
:104C1000C05D0400C8030CD530483668C6F3404672
:104C2000805D02002B4800FB04F0B0FBF2F00300B3
:104C300003E02B4800FB04F00300180000E01948D3
:104C4000F0BC704718480068704780B5FFF7FAFF5E
:104C50002449134A1268C2F30222895CC84002BD8B
:104C600080B5FFF7EFFF1F490D4A1268C2F3C22259
:104C7000895CC84002BD81B00B490968C9084FF47E
:104C80007A72B1FBF2F101FB00F1009100BF0099D3
:104C90004A1E00920029F9D101B07047001002406D
:104CA0000410024000127A000400002000000020DE
:104CB0002410024000004242800442421C10024084
:104CC000007000402010024060004242002002407C
:104CD00098590008001BB70088590008124F0008B7
:104CE00000093D00C459000830B4020092F83C00AD
:104CF000012801D102202DE0012082F83C00022091
:104D000082F83D00106843681068846833F07003CF
:104D100008680343106843601068104DA8420BD028
:104D20001068B0F1804F07D010680D4DA84203D035
:104D300010680C4DA84206D134F0800420004C6865
:104D4000044310688460012082F83D00002082F84E
:104D50003C00002030BC704700000000002C0140E7
:104D6000000400400008004010B410F00703584C45
:104D700022684FF6FF010A4052EA032255490A43CE
:104D8000226010BC704752480068C0F30220704790
:104D9000010049B2002909D4012210F01F018A4004
:104DA0004D4903005BB25B0941F8232070470100C5
:104DB00049B200290DD4012210F01F018A40474951
:104DC00003005BB25B0941F82320BFF34F8FBFF3B1
:104DD0006F8F704710B4020052B2002A05D40A0146
:104DE0003F4B040064B21A5508E00A013D4B040031
:104DF00064B214F00F04234403F8042C10BC704771
:104E000070B4030013F00704D4F10700052801D3A0
:104E1000042001E0D4F10700251D072D01D2002553
:104E200000E0E51E012616FA00F0401E0140A940F0
:104E300016FA05F56D1E2A401143080070BC704734
:104E400010B50400601EB0F1807F01D301200EE098
:104E5000601E254908600F215FF0FF30FFF7BAFFA1
:104E6000002022490860072021490860002010BD69
:104E700010B504002000FFF777FF10BD2DE9F041C9
:104E800004000D0016000027FFF77DFF804632006A
:104E900029004046FFF7B4FF0100200040B2FFF7B1
:104EA00099FFBDE8F08110B50400200040B2FFF783
:104EB0006FFF10BD10B50400200040B2FFF777FF70
:104EC00010BD10B504002000FFF7BAFF10BD0000B0
:104ED0000CED00E00000FA0500E100E080E100E0F8
:104EE00000E400E018ED00E014E000E018E000E06D
:104EF00010E000E0D2B2203A22BF21FA02F00021F5
:104F000070472032D141D04048409140D140484084
:104F10007047010201480068704700BFF805002093
:104F200013F0004C03D55B42524263F100039CEA4C
:104F3000210C00F0178010B5644603D3494240426B
:104F400061F1000100F00EF8640004D349424042D0
:104F500061F10001244203D55B42524263F1000338
:104F600010BD0000BBBBE1B1B2F5803F80F07E8098
:104F7000022A1ED98C46B1FBF2F102FB11C31B04BD
:104F800043EA1043B3FBF2FC02FB1C3380B240EA5D
:104F90000343B3FBF2F002FB103240EA0C40002363
:104FA0007047022A05D98446B0FBF2F002FB10C21A
:104FB00070474AB105D100F0010249085FEA3000AC
:104FC000704700220023704700F0AEBA0B000200C9
:104FD000002100207047904271EB030CF6D3B3F52B
:104FE000803F2FD2F0B5B3FA83F7B1FA81F4A7F17D
:104FF0000F0E3D1B5340CEF1200602FA0EF2F34194
:105000005340B5F10F0746D80F3C2C444140C4F142
:105010002006A040F1414140B1FBF3F603FB16111D
:10502000A2FB0645001BA94102D2761E80185941F9
:1050300080EA010221FA0EF362FA0EF200215A40D0
:105040003046F0BD30B4B1FBF3FC03FB1C11A2FBF6
:105050000C45001BA94103D2ACF1010C8018594149
:1050600030BC02460B46604600217047B2F1807F9B
:1050700065D3F0B5B2FA82F7B1FA81F4C7F10F0641
:105080003D1B22FA06F307F1110EF24120355A407A
:10509000B5F10F07B8D94140C4F12006A040F14155
:1050A0004140B1FBF3FC03FB1C11A2FB0C45001BB0
:1050B000A94103D2BCF1010C801859410F2F12D322
:1050C0000F3FC90341EA5041B1FBF3F603FB161150
:1050D000A2FB0645D4EBC030A94102D2761E80184F
:1050E000594146EACC3C07B34140C7F12006B840DD
:1050F000F1414140B1FBF3F603FB1611A2FB06455B
:10510000001BA94102D2761E8018594180EA010293
:1051100021FA0EF3C7F1200462FA0EF20CFA07F03E
:105120005A402CFA04F13043F0BD80EA010221FA22
:105130000EF3002162FA0EF260465A40F0BD8C4632
:10514000B1FBF2F102FB11C31B0243EA1063B3FB94
:10515000F2FC02FB1C331B024CEA002043EA106302
:10516000B3FBF2FC02FB1C331B024CEA002043EAB7
:105170001063B3FBF2FC02FB1C331B024CEA002061
:1051800043EA1063B3FBF2FC02FB1C324CEA002042
:1051900000237047D2B2203A22BF00FA02F1002069
:1051A00070475242D041D2F1200291404140D0405C
:1051B000904041407047000081B06E48016851F056
:1051C00001010160006810F00100009000986A4839
:1051D000016851F080510160006810F0805000902B
:1051E00000986649086830F0E06050F00070086090
:1051F00001B0704718B585B004001021002201A845
:10520000FCF77AFA20685E4988422DD15948016836
:1052100051F008010160006810F00800009000984B
:10522000C0200190122002900320049001A955484B
:10523000FCF70CFC5048016851F400110160006853
:1052400010F4001000900098002200211F20FFF7AA
:1052500015FE1F20FFF727FE002200212020FFF768
:105260000DFE2020FFF71FFE06B010BD1CB5040088
:1052700020684549884212D13E48016851F40061D6
:105280000160006810F40060009000980022002186
:105290001920FFF7F3FD1920FFF705FE15E0206840
:1052A000B0F1804F11D13448016851F00101016023
:1052B000006810F0010000900098002200211C20DE
:1052C000FFF7DCFD1C20FFF7EEFD13BD30B585B008
:1052D0000400102100226846FCF70EFA20682B49D2
:1052E000884230D12448016851F4003101600068DF
:1052F00010F40030049004981E48016851F0040135
:105300000160006810F004000490049804200090EC
:1053100002200190032003901D4D69462800FCF7F0
:1053200095FB082000900020019000200290694623
:105330002800FCF78BFB002200212620FFF79EFDB2
:105340002620FFF7B0FD05B030BD10B50400206881
:105350000E4988420BD10848016831F400310160E0
:105360000C210B48FCF781FC2620FFF7A3FD10BDA4
:1053700000000000181002401C1002400400014010
:1053800000540040000C0140002C0140004400404B
:10539000000801400100002291F82100022806D0F7
:1053A00004208863002081F82000012018E00868AC
:1053B000006830F00E000B6818600868006840084C
:1053C00040000B6818600123086C8340C86B436081
:1053D000012081F82100002081F820001000C0B2D7
:1053E000704738B50400002594F82100022804D045
:1053F0000420A063012005004AE02068006830F026
:105400000E0021680860206800684008400021689C
:1054100008602068DFF88010884201D1012028E070
:105420002068DFF87810884201D1102021E0206840
:10543000DFF86C10884202D14FF4807019E02068C8
:10544000DFF86010884202D14FF4805011E02068EC
:10545000DFF85410884202D15FF4803009E0206800
:10546000DFF84810884202D15FF4801001E05FF05D
:105470008070DFF83C100860012084F821000020D3
:1054800084F82000606B002802D02000616B884700
:105490002800C0B232BD0000080002401C000240DB
:1054A0003000024044000240580002406C000240BC
:1054B0000400024090F821007047806B70477047ED
:1054C0007047704710B504004FF47A700D490978A1
:1054D000B0FBF1F00C490968B1FBF0F0FFF7F1FC0B
:1054E000002801D001200CE0102C09D2002221005C
:1054F0005FF0FF30FFF7C2FC04480460002000E0CA
:10550000012010BD08000020040000200000002041
:1055100070477047704770477047704770477047D3
:105520007047704770477047704700000000C1C067
:1055300081C1400101C3C003800241C201C6C0064F
:10554000800741C70005C1C581C4400401CCC00C1F
:10555000800D41CD000FC1CF81CE400E000AC1CADF
:1055600081CB400B01C9C009800841C801D8C018CF
:10557000801941D9001BC1DB81DA401A001EC1DE4F
:1055800081DF401F01DDC01D801C41DC0014C1D43F
:1055900081D5401501D7C017801641D601D2C0125F
:1055A000801341D30011C1D181D0401001F0C0302F
:1055B000803141F10033C1F381F240320036C1F64F
:1055C00081F7403701F5C035803441F4003CC1FC1F
:1055D00081FD403D01FFC03F803E41FE01FAC03ADF
:1055E000803B41FB0039C1F981F840380028C1E80F
:1055F00081E9402901EBC02B802A41EA01EEC02E4F
:10560000802F41EF002DC1ED81EC402C01E4C0243E
:10561000802541E50027C1E781E640260022C1E25E
:1056200081E3402301E1C021802041E001A0C0606E
:10563000806141A10063C1A381A240620066C1A64E
:1056400081A7406701A5C065806441A4006CC1AC1E
:1056500081AD406D01AFC06F806E41AE01AAC06ADE
:10566000806B41AB0069C1A981A840680078C1B8CE
:1056700081B9407901BBC07B807A41BA01BEC07E4E
:10568000807F41BF007DC1BD81BC407C01B4C0743E
:10569000807541B50077C1B781B640760072C1B25E
:1056A00081B3407301B1C071807041B00050C190AE
:1056B000819140510193C053805241920196C0564E
:1056C000805741970055C19581944054019CC05C1E
:1056D000805D419D005FC19F819E405E005AC19ADE
:1056E000819B405B0199C059805841980188C0480E
:1056F00080494189004BC18B818A404A004EC18E4E
:10570000818F404F018DC04D804C418C0044C1843D
:10571000818540450187C047804641860182C0425D
:10572000804341830041C18181804040FEE7FEE724
:10573000FEE7FEE7FEE770477047704780B500F070
:105740003DF801BD80B50120FCF738FB01BD80B5F7
:105750000220FCF733FB01BD80B54FF48070FCF7ED
:105760002DFB01BD80B50C48FEF706FE01BD80B5DE
:105770000A48FEF701FE01BD80B50948FDF7FEFCB1
:1057800001BD80B50648FDF7DCFD01BD80B50548CB
:10579000FCF7A2FF01BD0000BC04002004050020AE
:1057A000680400204C05002080B54FF40060FCF731
:1057B00005FB4FF40040FCF701FB01BD03490A68FB
:1057C0000348007882180A60704700BFF80500207F
:1057D000080000200008014000080000000C014003
:1057E00000800000000C01401000000000000000DC
:1057F0000000000000000000000000000008014060
:10580000000400000000000000000000000801404B
:10581000000200000000000000000000000C014039
:10582000000100000000000000000000000C01402A
:1058300000400000000000000000000000080140DF
:1058400000010000000C0140080000000000000002
:105850000000000000000000000000000000000048
:105860000000000000000000000000000000000038
:1058700000000000001001400020000000000000B7
:105880000000000000000000000000000000000018
:105890000000000030B4002512E050F8042BD307BC
:1058A00044BF4A44521E091F042942F8045BFAD23D
:1058B00013468C0744BF15809B1CC90748BF1D7049
:1058C00050F8041B0029E8D130BC704710B50749D7
:1058D00079441831064C7C44163404E00A68081DEB
:1058E000114488470146A142F8D110BD580000007C
:1058F0007800000000F00FF8002801D0FFF7E6FF65
:10590000AFF300800020AFF30080AFF30080FBF71F
:10591000D9FA00F002F80120704700F001B8000049
:1059200000F000F80746384600F002F8FBE70000F8
:1059300080B5AFF30080024A11001820ABBEFBE730
:105940002600020051FFFFFF20060000100000208B
:10595000000000000BBEFFFF0C0000005C00000018
:1059600000000020000000004EF6A550CFF6F560C4
:10597000014603B4684680F30988AFF30080AFF3B3
:105980000080FFF7B7FF00000203040506070809BF
:105990000A0B0C0D0E0F101000000000000000009C
:1059A000010203040607080901488047014800472F
:1059B000555A0008695900081000000000127A00CA
:1059C000010000000000000001020304FFF7FEBF19
:1059D000FFF7FEBFFFF7FEBFFFF7FEBFFFF7FEBFFB
:1059E000FFF7FEBFFFF7FEBFFFF7FEBFFFF7FEBFEB
:1059F000FFF7FEBFFFF7FEBFFFF7FEBFFFF7FEBFDB
:105A0000FFF7FEBFFFF7FEBFFFF7FEBFFFF7FEBFCA
:105A1000FFF7FEBFFFF7FEBFFFF7FEBFFFF7FEBFBA
:105A2000FFF7FEBFFFF7FEBFFFF7FEBFFFF7FEBFAA
:105A3000FFF7FEBFFFF7FEBFFFF7FEBFFFF7FEBF9A
:105A4000FFF7FEBFFFF7FEBFFFF7FEBFFFF7FEBF8A
:065A5000FFF7FEBF7047E6
:02FC0000FFFF04
:04000005080059692D
:00000001FF
