:020000040800F2
:10000000380A0020955A0008195800081B580008A3
:100010001D5800081F580008215800080000000063
:10002000000000000000000000000000235800084D
:10003000255800080000000027580008295800082B
:10004000B95A0008BD5A0008C15A0008C55A00082C
:10005000C95A0008CD5A0008315800083B5800081A
:10006000D15A0008D55A0008D95A0008DD5A0008AC
:10007000E15A0008E55A0008E95A0008ED5A00085C
:10008000F15A0008F55A0008F95A0008FD5A00080C
:10009000015B0008055B0008095B00084558000883
:1000A0000D5B000851580008115B0008155B000843
:1000B0005B580008195B00081D5B000865580008C4
:1000C0006F580008215B0008255B0008295B0008C9
:1000D0002D5B0008315B000879580008355B00088B
:1000E00095580008395B00083D5B000810B5DFF843
:1000F000501A087800280BD0DFF8484A20780028EA
:1001000006D1DFF8440A01F06AFB012020700DE0FF
:10011000087800280AD1DFF82C4A2078002805D07A
:10012000DFF8240A01F094FB0020207010BDDFF8F6
:100130001C0A008880B270472DE9F84185B00400A0
:10014000FFF7F5FF060000251021002201AF38005F
:1001500001F034FD002000903000210080B289B20F
:10016000884201D1002027E001F0C7FD80464046CB
:10017000C0B2002804D001F0D1FD4046C0B21BE05F
:1001800000200190DFF8C4790397012004906946AC
:1001900001A801F03DFE05002800C0B2002807D1EB
:1001A000220092B200233900012001F04FFD05002A
:1001B00001F0B4FD2800C0B206B0BDE8F08180B502
:1001C000FFF7B5FF01BD2DE9F04FC1B000210022BE
:1001D00000230024DFF878592878002800F0AD814A
:1001E000DFF870090668F668760876000068C66071
:1001F00000200600B6B2FA2E0CD2DFF85C690700C8
:10020000BFB2F65D02AF84461FFA8CFC07F80C60A3
:10021000401CEEE700202870DFF838090568ED681B
:1002200055F001050068C56000200500ADB2FA2D4B
:1002300011D202AD0600B6B2AD5DEE0700D5491C85
:10024000AE0700D5521C6E0700D55B1C2E0700D5EB
:10025000641C401CE9E764200D00ADB24543FA265A
:10026000B5FBF6F58DF805501500ADB24543FA26FD
:10027000B5FBF6F58DF804501D00ADB24543FA26E6
:10028000B5FBF6F58DF803502500ADB200FB05F087
:10029000FA25B0FBF5F08DF802009DF8050028283E
:1002A00001D2002006E09DF805003D2801D3012081
:1002B00000E00220DFF8A46830709DF804002828D0
:1002C00001D2002006E09DF804003D2801D3012062
:1002D00000E00220DFF8887838709DF803002828B5
:1002E00001D2002006E09DF803003D2801D3012043
:1002F00000E00220DFF86CE88EF800009DF80200B4
:10030000282801D2002006E09DF802003D2801D3F4
:10031000012000E00220DFF8508888F800003078E3
:10032000022801D1012000E000203D78022D01D1FA
:10033000012500E000253678012E01D1012600E0DC
:1003400000263F78012F01D1012700E00027DFF8C8
:100350001CC89CF800C0BCF1010F04D15FF001097A
:100360008DF8019003E05FF000098DF80190DFF84F
:1003700024CB5FF000098CF80090DFF81C9B5FF045
:10038000000A89F800A0DFF8E8A75FF0000B8AF800
:1003900000B09DF801B0BBF1010F21D181465FFA99
:1003A00089F9B9F1010F0AD1A9465FFA89F9B9F1C2
:1003B000010F04D15FF001098CF800902CE0B446E5
:1003C0005FFA8CFCBCF1010F26D1BC465FFA8CFCB5
:1003D000BCF1010F20D15FF0010C8AF800C01BE0D6
:1003E00084465FFA8CFCBCF1010F05D1BC465FFA74
:1003F0008CFCBCF1010F0BD0B4465FFA8CFCBCF155
:10040000010F09D1AC465FFA8CFCBCF1010F03D19E
:100410005FF0010C89F800C09EF800C0BCF1020F2B
:1004200002D15FF0010901E05FF0000998F800C017
:10043000BCF1020F02D15FF0010A01E05FF0000A97
:100440009EF800C0BCF1010F02D15FF0010E01E087
:100450005FF0000E98F800C0BCF1010F02D15FF010
:10046000010801E05FF00008DFF818CC9CF800C03C
:10047000BCF1010F04D15FF0010B8DF800B003E077
:100480005FF0000B8DF800B05FF0000CDFF8A0BA51
:100490008BF800C05FF0000CDFF8ECBB8BF800C0FD
:1004A000DFF824CB5FF0000B8CF800B09DF800B0B3
:1004B000BBF1010F23D1CB465FFA8BFBBBF1010FE0
:1004C0000CD1D3465FFA8BFBBBF1010F06D15FF075
:1004D000010CDFF85CBA8BF800C02EE0F3465FFA3F
:1004E0008BFBBBF1010F28D1C3465FFA8BFBBBF13D
:1004F000010F22D15FF0010B8CF800B01DE0CC465B
:100500005FFA8CFCBCF1010F05D1C4465FFA8CFC8C
:10051000BCF1010F0BD0F4465FFA8CFCBCF1010F6B
:100520000BD1D4465FFA8CFCBCF1010F05D15FF012
:10053000010CDFF854BB8BF800C041B0BDE8F08F70
:1005400070B504000D0016002800C0B254F8300049
:10055000002829D02800C0B254F83000DFF86C1A07
:10056000884214D12800C0B204EBC0008088102853
:100570000DD1DFF85C1A0878002807D13000C0B22E
:10058000012803D10120DFF8B82510700E70320069
:10059000D2B22800C0B204EBC00081882800C0B2EB
:1005A00054F8300001F05FFE70BD2DE9F8430400FF
:1005B00014F0010725003800C0B2012801D115F060
:1005C0000105DFF8C86A308885435FF000084046BF
:1005D000C0B210281BD20121308811FA08F2104253
:1005E00012D111FA08F1280080B2084202D05FF05F
:1005F000010901E05FF000094A46D2B24146C9B2A2
:10060000DFF88C0AFFF79CFF18F10108DFE7DFF83D
:10061000040B0580BDE8F18370B5040000252800B7
:10062000C0B2082812D20121A9402000C0B208425D
:1006300001D0012600E000263200D2B22900C9B262
:10064000DFF8D40AFFF77CFF6D1CE8E7DFF8480B02
:10065000047070BD70B504002000C0B2422824D1DF
:100660000025DFF8286A308880050CD54FF48071AA
:10067000DFF8580901F0ECFD012802D14FF40070B9
:1006800000E000200543DFF88C1A0A883088824396
:100690003088284002430A80DFF8380B0A8802704D
:1006A000098889B2090A417009E02000C0B24028D7
:1006B00005D1DFF8E40A0078DFF8181B087070BD78
:1006C00010B504002200D2B22021DFF8000901F0A9
:1006D000CAFD10BD80B5DFF8001B0878002804D0E3
:1006E000002008700120FFF7EBFF01BD0020DFF8BC
:1006F000A4170978002901D050F40040DFF89817BA
:100700000978002901D050F48040DFF824180978D6
:10071000002901D050F40050DFF86C190978002945
:1007200001D050F48050DFF848140978002901D036
:1007300050F40060DFF890180978002901D050F4D7
:100740008060DFF8981A0978012901D150F400700F
:10075000DFF88C1A0978012901D150F08000DFF808
:100760000C140978012901D150F04000DFF8141968
:100770000978012901D150F0200080B2704770B58E
:10078000002400250126DFF85C0A0078002804D048
:10079000002004000020050029E0DFF84C0A007862
:1007A000002804D000200400012005001FE0DFF82D
:1007B000540C0078002804D001200400002005001B
:1007C00015E0DFF8440C0078002804D00120040074
:1007D000002005000BE0DFF8340C0078002804D07E
:1007E000002004000120050001E000200600300088
:1007F000C0B2002819D02800C0B2002801D00122C0
:1008000000E00022D2B20421DFF8C00701F02BFD86
:100810002000C0B2002801D0012200E00022D2B2A4
:100820008021DFF8E40C01F01EFD70BD80B5DFF81B
:10083000E00B0078002801D0012200E00022D2B2B3
:100840000421DFF8880701F00EFDDFF8C80B0078FF
:10085000002801D0012200E00022D2B28021DFF87E
:10086000A80C01F000FD01BD2DE9F84F04000020A7
:100870008DF80200DFF8A00B0480200080B2FFF7A3
:100880005BFCDFF8981B200080B2C00B0870DFF81B
:10089000902B200080B2800B10F001001070DFF868
:1008A000843B200080B2400B10F001001870DFF88C
:1008B0005C6B200080B2000B10F001003070DFF89C
:1008C000487B200080B2C00A10F001003870DFF8C9
:1008D00034EB200080B2800A10F001008EF8000096
:1008E000DFF80489200080B2400A10F0010088F887
:1008F0000000DFF8F098200080B2000A10F001003C
:1009000089F8000099F8005098F800A09EF80000BF
:100910008DF8010038788DF80000307893F800C029
:1009200092F800B01AEB050A9DF8015015EB0A0A7F
:100930009DF8005015EB0A0A10EB0A001CEB0000B2
:100940001BEB00000D782D182800C0B2022812D32E
:10095000002089F80000002088F8000000208EF8B0
:100960000000002038700020307000201870002037
:10097000107000200870DFF8940B2100C9B2C9097B
:100980000170DFF8286C14F0010131702100C1F30F
:10099000C001DFF87C2A11702100C1F34011DFF89B
:1009A000742A11700078002802D0FFF7E8FE01E0F9
:1009B000FFF73CFF307800280BD00120DFF8F01B58
:1009C000087001224FF40071DFF8000601F04BFCC3
:1009D0000AE00020DFF8D81B087000224FF40071F5
:1009E000DFF8E80501F03FFCBDE8F18F38B5050000
:1009F0000C00002C01D100201FE0280080B200284C
:100A000004D1FFF773FE2080012016E0280080B299
:100A1000332811D201F09FFC0100681E80B2420011
:100A2000100080B2085C13009BB20B445B7850EA64
:100A300003202080012000E0002032BD38B50400F2
:100A40000D00200080B2002805D1280080B2FFF7F9
:100A50000BFF012000E0002032BD2DE9F041050030
:100A60000E0014001F00002C09D0300080B20028B6
:100A700005D03800310080B289B2884201D200200E
:100A800025E0280080B2332806D2290089B2300040
:100A900080B24118342901D3002018E05FF000082B
:100AA0004046310080B289B288420FD2404680B2BF
:100AB00004EB400118EB050080B2FFF797FF002818
:100AC00001D1002003E018F10108E9E70120BDE8A9
:100AD000F081DFF8101C087070472DE9F84F040012
:100AE0000D00160000275FF00009DFF838BB8BF817
:100AF000004055F080008BF801008BF802605FF039
:100B0000030A514689B2584601F0ACFE8046404681
:100B100080B2000A514689B20BF80100504680B2FB
:100B2000584480F801801AF1020A6423524692B2B6
:100B30005946DFF8B40B01F01BFFBDE8F18F000050
:100B40002E0600202F0600200405002000FC0108CE
:100B500023060020BC0400200803002024060020F7
:100B6000250600202606002027060020110600206A
:100B70002A0600202DE9F04FA7B000250020ADF88F
:100B800004005FF0000800208DF80A000024002710
:100B90000020ADF810000020ADF80E000020ADF8E8
:100BA0000C000020ADF802000020ADF80000DFF8D6
:100BB0003C6B3078002800F06A8172B630780028EB
:100BC00017D0DFF82C0B00880500280080B21F2802
:100BD00001D31E200500A9461FFA89F9DFF814ABDE
:100BE0000DF1140B4A465146584602F025FB0020F1
:100BF000307062B6280080B2042803D20320FFF7C9
:100C000068FF44E19DF814603000C0B2012804D0B0
:100C10003000C0B2002840F03A8105A8290089B20E
:100C2000084410F8020C05A92A0092B2114411F8E8
:100C3000011C51EA0021ADF80810290089B2891E73
:100C400005A801F00FFEADF80600BDF80600BDF8DE
:100C50000810884203D00320FFF73BFF17E105A8E7
:100C600047783900C9B2032940F09780290089B23A
:100C700008290ED20320FFF72CFF3000C0B2002855
:100C800006D003223900C9B23000C0B2FFF725FFF9
:100C9000FDE0817890F8038058EA0128017990F806
:100CA000059059EA0129484680B2002803D04846F9
:100CB00080B234280ED30320FFF70BFF3000C0B200
:100CC000002806D003223900C9B23000C0B2FFF7B5
:100CD00004FFDCE033230DAA494689B2404680B2C6
:100CE000FFF7BBFE00280ED10220FFF7F2FE300016
:100CF000C0B2002806D002223900C9B23000C0B20A
:100D0000FFF7EBFEC3E0DFF81CA98AF800608AF861
:100D100001704846C0B240008AF802000324002057
:100D200001004A4689B292B2914216D20DA9020040
:100D300092B231F8122092B2120A23009BB20AF842
:100D40000320641C020092B231F81210220092B209
:100D50000AF80210641C401CE2E7210089B25046E8
:100D600001F080FD8346584680B2000A210089B216
:100D70000AF80100641C200080B20AF800B0641C6C
:100D80003000C0B2002807D06423220092B251463E
:100D9000DFF8540901F0ECFD79E03900C9B2062909
:100DA00067D1290089B208290ED20320FFF791FEEE
:100DB0003000C0B2002806D003223900C9B230008A
:100DC000C0B2FFF78AFE62E0817890F8038058EAAB
:100DD00001280179407950EA0120ADF80200BDF800
:100DE0000210404680B2FFF729FE00280ED10220F3
:100DF000FFF76FFE3000C0B2002806D00222390093
:100E0000C9B23000C0B2FFF768FE40E03000C0B2A7
:100E100000282DD05FF0060A0DF1140BDFF80498BE
:100E20004C4652465946200002F006FA062421009C
:100E300089B2484601F016FDADF80000BDF800008B
:100E400080B2000A210089B209F80100641CBDF8D3
:100E50000000210089B209F80100641CADF80440CB
:100E60006423BDF804204946DFF87C0801F080FDCA
:100E70000DE00120FFF72DFE3000C0B2002806D0A3
:100E800001223900C9B23000C0B2FFF726FE27B0F8
:100E9000BDE8F08F280600202906002010B5DFF8F5
:100EA0004848606C002813D0606CC0B2FFF711FE98
:100EB000200001F004FE200001F037FD00F06EF983
:100EC000002060641E22DFF83018200001F0B6FD1B
:100ED00010BD2DE9F84304000D002068DFF81C1850
:100EE000884223D1DFF804683078002817D1280021
:100EF00080B2002813D0280080B21F280FD22F0004
:100F0000BFB2DFF8F487DFF8EC973A004146484675
:100F100002F092F9DFF8D8070580012030701E2218
:100F2000DFF8D417DFF8C00701F088FDBDE8F183D2
:100F30002B06002010B502F0D3F900F04BF800F0BA
:100F400055F900F080F800F029F900F0E7F800F01A
:100F5000A1F8DFF8AC0702F06DFB0020FFF725FBDE
:100F60000020FFF759FBDFF89C474FF480711748CA
:100F700001F06EF920702078DFF88C1708700020DF
:100F8000954908700120FFF79BFB01F0ABF9FFF7D3
:100F900016F9DFF8780700F05BFCDFF8740700F063
:100FA0001EFC1E22DFF85017DFF83C0701F046FD5B
:100FB000FFF709F9FFF79AF801F077FAFFF76EFFEC
:100FC000FFF7D8FDF4E700002D060020000C0140DB
:100FD0000800002018B58FB02821002205AC2000A1
:100FE00000F0ECFD142100226C46200000F0E6FD2C
:100FF000012005905FF480300690002107910121C7
:10100000099102210C910D905FF480100E9005A8BB
:1010100003F0BAFB002801D000F0A8FB0F200090DD
:1010200002200190002002904FF480600390002085
:1010300004900221684603F0A7FD002801D000F0CB
:1010400095FB10B010BD80B5DFF8B406DFF8C4160C
:101050000160DFF8C4164160002181604221C16057
:101060004FF48041016101214161402181610021F2
:10107000C1610021016202F045F9002801D000F0B1
:1010800075FB01BD120600202C060020DE32000890
:10109000C058000810B586B01021002202AC200014
:1010A00000F08CFD082100226C46200000F086FD37
:1010B000DFF85C46DFF864062060472060600020AF
:1010C000A06040F2E730E060002020610020606115
:1010D0000020A061200000F04BFB002801D000F0B0
:1010E00045FB4FF48050029002A9200000F073FCF1
:1010F000002801D000F03AFB002000900020019071
:101100006946200003F066FE002801D000F02EFBA7
:1011100006B010BD000600204059000810B586B08A
:101120001021002202AC200000F048FD082100221E
:101130006C46200000F042FDDFF8D0455FF08040B3
:10114000206041F61F4060600020A0601320E06036
:10115000002020610020A061200000F009FB002891
:1011600001D000F003FB4FF48050029002A9200050
:1011700000F031FC002801D000F0F8FA00200090C7
:10118000002001906946200003F024FE002801D0D1
:1011900000F0ECFA06B010BD0A06002080B5DFF8BA
:1011A0004805DFF8581501605FF4E1314160002126
:1011B00081600021C160002101610C214161002199
:1011C00081610021C16101F073FB002801D000F0B2
:1011D000CDFA01BDFE0500200E0600200F060020FE
:1011E0001006002013060020140600202DE9F84107
:1011F00085B0102100226C46200000F0DFFCDFF8F3
:101200002005016851F010010160016811F0100122
:1012100004910499016851F020010160016811F006
:10122000200104910499016851F0040101600168F2
:1012300011F0040104910499016851F00801016062
:10124000006810F0080004900498DFF8D8440022E9
:101250004FF40051200001F006F8AB4D00224FF48E
:101260000861280000F0FFFFDFF8BC6400222421A1
:10127000300000F0F8FF4CF218270122390030004E
:1012800000F0F1FF01224FF4E061280000F0EBFFD5
:101290004FF40050009001200190002002900220A5
:1012A00003906946200000F033FE4FF400400090A8
:1012B000DFF87884CDF80480002002906946200091
:1012C00000F026FE48F2030000900020019000206C
:1012D00002906946280000F01BFE4FF40860009061
:1012E000012001900120029002200390694628000D
:1012F00000F00EFE40F603100090CDF804800020B0
:1013000002906946300000F003FE042000900120A6
:10131000019001200290022003906946300000F005
:10132000F7FD4FF440500090002001900020029003
:101330006946300000F0ECFD00970120019002208A
:101340000290022003906946300000F0E1FD4FF466
:10135000E0600090012001900220029002200390A2
:101360006946280000F0D4FD202000900120019063
:1013700000200290022003906946300000F0C8FD72
:1013800000220021062003F0EFFD062003F001FEFD
:1013900000220021072003F0E7FD072003F0F9FDFC
:1013A00000220021172003F0DFFD172003F0F1FDDC
:1013B00000220021282003F0D7FD282003F0E9FDBA
:1013C0000121300000F044FFDFF8641308700221AF
:1013D000300000F03DFFDFF85C1308704FF400614F
:1013E000300000F035FFDFF8501308704FF4004173
:1013F000200000F02DFFDFF84413087006B0BDE8B0
:10140000F0810000150600201606002017060020B7
:101410001D0600201E060020020600201A060020DD
:10142000190600201806002070B504002068B0F1ED
:10143000804F1FD1DFF808532878002817D15C4966
:101440000878002813D1DFF8FC020268521C026001
:10145000006841F28832904209D3012008700122CD
:101460004FF40071B04800F0FEFE0120287000F03B
:1014700075FF47E02068A949884243D10025224EE4
:101480000221300000F0E4FE012801D155F00105F1
:101490000121300000F0DCFE012801D155F00205E9
:1014A000A14E4FF40051300000F0D2FE012801D1CE
:1014B00055F004054FF48051300000F0C9FE0128BA
:1014C00001D155F00805A0480188FA2911D29F4999
:1014D0009F4A0B88D5540A88521C0A800A88FA2A27
:1014E00001D300220A800188F92902D10121994AF9
:1014F00011700188491C01800188B1F57A7F01D300
:101500000021018070BD0000000801401B06002082
:10151000F8B504000D00160020687E49884244D1C9
:101520008D4F3E703878422801D1FFF7D3F828005C
:10153000C0B200281AD13878FFF78CF838784228E2
:1015400006D1082302228549200001F0D9FF2CE0B2
:101550003878402806D1082301228049200001F074
:10156000CFFF22E0200002F065F81EE03878422824
:101570000AD17B48022101700823027892B279498E
:10158000200002F00AF810E0387840280AD17448A8
:10159000012101700823027892B27249200001F003
:1015A000FCFF02E0200002F045F8F1BD1C0600201F
:1015B0002006002038B504002068564988421BD117
:1015C0006548017842290DD1664805786449097853
:1015D000022902D3407855EA0025280080B2FEF7A0
:1015E000E4FF06E00078402803D15E480078FFF76A
:1015F00013F8200002F01EF831BD10B50400206879
:101600004449884202D1200002F014F810BD10B500
:10161000040020683F49884202D1200002F00AF805
:1016200010BD00000802002070B50400200080B248
:10163000B0F5004F07D14FF400413A4800F008FEE2
:101640003E4908704CE0200080B2B0F5006F07D131
:101650004FF40061344800F0FBFD374908703FE06B
:10166000200080B2012806D101212F4800F0F0FDB2
:101670002F49087034E0200080B2022806D10221F0
:10168000294800F0E5FD2B49087029E0200080B2D0
:10169000B0F5807F24D14FF48071234800F0D8FD4D
:1016A0000500184E28003178C0B2884218D02E4963
:1016B0000878002808D13078134A1070012008708B
:1016C0000020FEF7FDFF0AE028000F4A1278C0B2A2
:1016D000904204D1002008700120FEF7F1FF357020
:1016E00070BD0000220600204C05002021060020CD
:1016F00004060020B40500209405002000440040AA
:10170000680400200C0600200D06002004050020BF
:10171000BC04002000540040A0860100002C0140C1
:101720001810024000100140000C01400000311070
:101730001106002012060020100600200F060020CF
:1017400030060020D40500200806002006060020F0
:1017500008030020230600200B060020FE050020C1
:101760001F060020FC0500200E06002072B6FEE7D2
:1017700010B50400002C01D101202FE094F83D00A9
:10178000002805D1002084F83C00200003F082FCF2
:10179000022084F83D00211D206800F096F9012008
:1017A00084F84600012084F83E00012084F83F00C0
:1017B000012084F84000012084F84100012084F8D1
:1017C0004200012084F84300012084F844000120F5
:1017D00084F84500012084F83D00002010BD010080
:1017E00091F83D00012801D0012030E0022081F86D
:1017F0003D000868C06850F001000B68D8600868B8
:10180000DFF8883098420DD00868B0F1804F09D0D9
:101810000868DFF87C30984204D00868DFF874303C
:1018200098420DD10868806810F007000200062A6F
:101830000CD00868006850F001000B68186005E0E3
:101840000868006850F001000B68186000207047BD
:1018500001000868C068400840000A68D060086855
:10186000006A41F2111210420BD10868006A40F27E
:101870004442104205D108680068400840000A68E8
:101880001060012081F83D0000207047002C0140CD
:10189000000400400008004070B504002068C568DE
:1018A00020680669B00718D5A80716D57FF0020092
:1018B00021680861012020772068806910F0030FFB
:1018C00003D0200003F07AFC05E0200003F077FC51
:1018D000200003F075FC00202077700718D56807FA
:1018E00016D57FF004002168086102202077206867
:1018F000806910F4407F03D0200003F05FFC05E016
:10190000200003F05CFC200003F05AFC002020774C
:10191000300718D5280716D57FF008002168086120
:10192000042020772068C06910F0030F03D0200046
:1019300003F044FC05E0200003F041FC200003F02C
:101940003FFC00202077F00618D5E80616D57FF07A
:10195000100021680861082020772068C06910F411
:10196000407F03D0200003F029FC05E0200003F0B5
:1019700026FC200003F024FC00202077F00708D587
:10198000E80706D57FF00100216808612000FFF715
:101990004BFD300608D5280606D57FF0800021686B
:1019A0000861200003F00DFC700608D5680606D516
:1019B0007FF0400021680861200003F003FCB006BE
:1019C00008D5A80606D57FF0200021680861200010
:1019D00003F0F9FB70BDF8B504000D00002694F883
:1019E0003C00012801D102206EE0012084F83C0077
:1019F000022084F83D002068876837F0770737F4C5
:101A00007F4720688760286800284ED010284CD077
:101A100020284AD0302848D040283CD0502826D012
:101A200060282ED0702807D0B0F5805F03D0B0F5C5
:101A3000005F0FD03EE03FE0EB686A68A96820686D
:101A400000F0B1F82068806850F077000700206847
:101A5000876031E0EB686A68A968206800F0A3F845
:101A60002068806850F480402168886024E0EA683B
:101A70006968206800F06AF85021206800F08BF84F
:101A80001AE0EA686968206800F072F8602120684E
:101A900000F081F810E0EA686968206800F056F804
:101AA0004021206800F077F806E02968206800F0FF
:101AB00072F801E001200600012084F83D000020BA
:101AC00084F83C003000C0B2F2BD10B403681C4C76
:101AD000A04208D0B0F1804F05D01A4A904202D0FF
:101AE000194A904204D133F070031A004B68134333
:101AF000A04208D0B0F1804F05D0124A904202D0E7
:101B0000114A904204D133F440731A00CB68134356
:101B100033F080034A69134303608A68C2620A682B
:101B20008262A04201D10A69026301224261026914
:101B3000D20703D5026952085200026110BC7047F7
:101B4000002C0140000400400008004010B4046A6A
:101B5000036A5B085B000362836933F0F00353EAB6
:101B6000021334F00A040C438361046210BC704712
:101B700010B4046A036A33F010030362836933F418
:101B8000704353EA023334F0A00454EA0114836131
:101B9000046210BC7047826832F070020A4352F04F
:101BA00007028260704710B4846834F47F440C43A9
:101BB000144354EA0324846010BC704762F30F227C
:101BC00062F31F42401810F0030308D0C91A1FD354
:101BD000DB0748BF00F8012D28BF20F8022D1300B5
:101BE00030B414461546103928BF20E93C00FAD815
:101BF000490728BF20E90C0048BF40F8042D8900A0
:101C000028BF20F8022D48BF00F8012D30BC7047D6
:101C1000C91818BF00F8012DCB0728BF00F8012D07
:101C200070470EE002684368024408305FEAC37CF4
:101C300044BF4B445B1E52F804CB43F804CB091F4E
:101C4000F9D150F8041B0029ECD170472DE9F14F70
:101C500082B0894692469B4601208DF800000025FF
:101C60000026DFF89071387E012801D1022042E081
:101C7000012038764CF25038404600F060F80400FD
:101C80002000C0B2002832D10298012802D10120E0
:101C9000060007E00298022802D10220060001E0B7
:101CA000042006000020050028003100C0B2C9B29F
:101CB00088421CD250465946EDB22A0103F084FAFC
:101CC000010089B22800C0B219EB400000F02DF8E5
:101CD000404600F034F804004748016849084900CC
:101CE00001602000C0B2002801D16D1CDCE700209B
:101CF00038762000C0B2BDE8FE8F00203E490A6859
:101D0000120609D53E4A3F4B13603F4B13600968EA
:101D1000090601D501210800C0B2704736480168A4
:101D200051F080010160002070470022314BDA61E0
:101D3000314A136853F0010313600180704738B5CE
:101D4000040003F051FA05002C480168C9070BD5BF
:101D500014F1010FF8D0002C04D003F045FA401B19
:101D60008442F1D2032013E00168890601D52021C5
:101D700001600168C90606D424490968C90702D46C
:101D80000068400703D500F004F8012000E00020BF
:101D900032BD10B4002019490A68D20606D5154A8A
:101DA000D36953F00203D36150F010000A68520760
:101DB00006D5104AD36953F00103D36150F00400F3
:101DC000124B1A68D20708D50A4AD46954F00404A1
:101DD000D4611A68520852001A6040F2011290420F
:101DE00004D1196849084900196000E0086010BC76
:101DF00070470000D8050020102002400C2002404F
:101E00000420024023016745AB89EFCD1C2002402E
:101E10002DE9F84304000D0001260027DFF8E480D7
:101E200098F81800012801D1022049E0012088F823
:101E300018002068022814D14CF250394846FFF7A8
:101E40007EFF002837D1012000F03CF84846FFF71C
:101E500076FF0600DFF8B000016831F00401016090
:101E600029E04CF250394846FFF769FF002822D19B
:101E70005FF0FF302860A0680700E1684FF48062DF
:101E8000A06802FB01018F4215D2380000F029F84A
:101E90004846FFF754FF0600DFF86C00016831F098
:101EA000020101603000C0B2002801D02F6002E0C2
:101EB00017F58067E1E7002088F818003000C0B20D
:101EC000BDE8F2830021DFF83C20D161DFF8381053
:101ED0000A6852F004020A600A6852F040020A607E
:101EE00070470021074AD16107490A6852F002028F
:101EF0000A60064A10600A6852F040020A607047A1
:101F000000000000D80500201020024014200240EC
:101F10002DE9F84703005FF0000E5FF00008086845
:101F200030FA0EF0002800F00081012010FA0EF0C7
:101F30000400086820400500A54240F0F38048688E
:101F4000002831D0012820D0022825D003283CD0F9
:101F500011281DD0122823D0DFF844C3604523D0B8
:101F6000DFF840C360451FD0DFF83CC360451BD09D
:101F7000DFF838C3604517D0DFF834C3604513D0AD
:101F8000DFF830C360450FD022E0C86880461FE00C
:101F9000C868001D80461BE0C8680830804617E00E
:101FA000C8680C30804613E08868002802D10420FD
:101FB000804609E08868012803D1082080461C611A
:101FC00002E0082080465C6102E000208046FFE7D6
:101FD000B5F5807F01D21E0000E01E1DB5F5807FA3
:101FE00002D25FEA8E0702E0BEF10807BF005FF091
:101FF0000F09D6F800C019FA07F03CEA000C18FAED
:1020000007F050EA0C0CC6F800C04868C00040F168
:102010008980A948D0F800C05CF0010CC0F800C06D
:10202000006810F0010000900098DFF890A2704660
:1020300080085AF820C01EF00300C0B2800019FAD0
:1020400000F93CEA090C9E48834202D15FF0000986
:1020500013E09C48834202D15FF001090DE09A48E9
:10206000834202D15FF0020907E09848834202D11F
:102070005FF0030901E05FF004091EF00300C0B245
:10208000800019FA00F9624659EA02027046800897
:102090004AF820204868C00207D58D48D0F800C013
:1020A00055EA0C0CC0F800C006E08948D0F800C022
:1020B0003CEA050CC0F800C04868800207D5854896
:1020C000D0F800C055EA0C0CC0F800C006E081480A
:1020D000D0F800C03CEA050CC0F800C04868800396
:1020E00007D57D48D0F800C055EA0C0CC0F800C0F8
:1020F00006E07948D0F800C03CEA050CC0F800C002
:102100004868C00307D57548D0F800C055EA0C0CE4
:10211000C0F800C006E07148D0F800C03CEA050CE9
:10212000C0F800C01EF1010EF9E6BDE8F1872DE907
:10213000F041030000270800F840002800F08680E6
:102140000120B84008400200002A7DD0DFF86CC1B1
:10215000380080085CF820005FF00F0E17F00308CD
:102160005FFA88F85FEA88081EFA08F818EA0000A3
:1021700004005348834202D15FF0000813E0514845
:10218000834202D15FF001080DE04F48834202D143
:102190005FF0020807E04D48834202D15FF0030878
:1021A00001E05FF0040817F00300C0B2800018FAE5
:1021B00000F844452CD14948D0F8008038EA02089C
:1021C000C0F800804448D0F8008038EA0208C0F81F
:1021D00000804048D0F8008038EA0208C0F800804B
:1021E0003B48D0F8008038EA0208C0F8008017F0B9
:1021F0000300C0B280001EFA00F00400380080081E
:102200005CF82000A043B8465FEA98084CF8280024
:10221000B2F5807F01D21D0000E01D1DB2F5807F68
:1022200001D2BE0002E0B7F10806B60028681EFA27
:1022300006FE30EA0E0E0420B04050EA0E0EC5F83D
:1022400000E0D8689043D8607F1C74E7BDE8F08157
:10225000020090680B009BB2184201D0012000E000
:102260000020C0B270471300DBB2002B03D00B007C
:102270009BB2036103E00B009BB21B040361704738
:1022800010B5040016480168220092B2114206D02F
:10229000210089B20160200080B2FFF7C5F910BDAE
:1022A0000000111000001210000021100000221088
:1022B00000003110000032101810024008000140E8
:1022C00000080140000C01400010014000140140D2
:1022D000080401400C0401400404014000040140D2
:1022E000140401402DE9F8434FF4FC740025DFF895
:1022F000606537002A0021003800FFF75FFC642783
:102300005FF00008DFF84C95424639004846FFF779
:1023100055FC01221021DFF84005FFF7A4FF40F62D
:10232000C410706001203070BDE8F183F8B5DFF8AB
:1023300020453B20606000200021C4E90201E8251F
:10234000002614F11007320029003800FFF736FC90
:1023500005202070F1BDDFF8FC0470472DE9F84F2F
:102360004FF40041DFF8F404FFF772FF814648465E
:10237000C0B2012801D1002500E00125DFF8D0849A
:1023800098F80000012806D003281DD0052831D078
:1023900006283CD087E0D8F80400401EC8F80400A6
:1023A000D8F8040001280EDADFF8B4040078002819
:1023B00003D0022088F8000005E0032088F8000020
:1023C0000120C8F804006EE0D8F80400401EC8F8E8
:1023D0000400D8F8040001280BDADFF88404007840
:1023E000002803D0022088F8000002E00120C8F88D
:1023F000040058E0D8F80400401EC8F80400D8F8DB
:102400000400012802DA062088F800004BE0D8E931
:1024100002014022002302F0EDFE0400D8E902018F
:102420004022002302F0E6FE009201260027280049
:10243000C0B2002811D008EBC400D0E904AB3000D2
:102440003900009A03F010F852465B4610431943D6
:1024500008EBC402C2E9040112E008EBC400D0E9B1
:1024600004AB30003900009A02F0FEFF52465B4692
:1024700032EA000033EA010108EBC402C2E90401B8
:10248000D8E90201401C71F1FF31C8E90201D8E925
:102490000201002906DB02DCB0F5E06F02D3072061
:1024A00088F80000FFE7BDE8F18F38B5DFF8B043EA
:1024B0002078002806D0DFF898030178032901D19D
:1024C00002210170DFF888532878022802D1FFF733
:1024D0002DFF18E02878072809D100F0A3F8032081
:1024E00028704FF4FA706860002020700BE02878A4
:1024F000082808D100F073F8032028704FF4FA7010
:1025000068600020207031BD2DE9F84F88B080460A
:10251000302004900124002520002900049A02F0B4
:10252000A3FF401E71F10001CDE90601B8F1000FD3
:102530000BD5C74AD2E90401D8F1000202F094FF9A
:10254000DDE906231040194046E0402098FBF0FBEF
:102550005FF0400998FBF9F009FB1089D9F14000C0
:10256000029004990298091A0391DFF8E4A20AEB99
:10257000CB02D2E904014A4602F026FE06000F0013
:1025800020002900029A02F06FFF401E71F1000145
:1025900032003B0012EA000613EA01070398012803
:1025A00016DB0AEBCB02D2E90601CDE900012000DF
:1025B0002900039A02F058FF401E71F10001DDE985
:1025C000002310401940029A02F04EFF06430F43C9
:1025D000DDE906013040394009B0BDE8F08F2DE952
:1025E000F04733240025DFF8688218F1F8062A0046
:1025F00021003000FFF7E2FACC26002708F22B1862
:102600003A0031004046FFF7D9FA5FF064085FF006
:102610000009DFF840A24A4641465046FFF7CEFA8D
:10262000BDE8F0872DE9F84F86B0894ED6E9040160
:10263000CDE904010027042001905FF0FF38CDF8B8
:102640000080032F31D2CDF80080019C0025002DA1
:102650000FD801D3302C0CD2DDE90401220002F0A6
:10266000B3FDC00701D5009403E0641C75F1FF358C
:10267000EDE70098002805D5FFF7B1FF082030707E
:102680000120E2E000200700009C202C09DADDE9AF
:102690000401220002F098FDC00702D57F1C641CD3
:1026A000F3E7009838180190CBE71C2F08D3019866
:1026B000202805D1FFF793FF082030700120C4E0E7
:1026C0000098143003905FF00008B8F1330F80F0E9
:1026D000A280039810EB4810FFF716FF04000D00CE
:1026E0005FF010095FF0000A0026B9F1010BBBF1A1
:1026F000000F0AD4200029005A4602F065FDC007E9
:1027000003D5761CBBF1010BF1E7514800EB8800C3
:1027100080F82B615FF0000BB9F1180F0BD220008D
:1027200029004A4602F050FDC00701D51BF1010BFC
:1027300019F10109F0E7464800EB880080F82CB158
:102740000026B9F1200F0AD2200029004A4602F0E3
:102750003BFDC00700D5761C19F10109F1E73C48A3
:1027600000EB880080F82D615FF0000B30200290B4
:10277000029881450BD2200029004A4602F024FD30
:10278000C00704D51BF1010B19F10109F0E7304E28
:1027900006EB880080F82EB106EB880090F82C013B
:1027A00006EB880191F82D11091806EB880090F8C6
:1027B0002B0100280DD106EB880090F82E0141185E
:1027C00006EB880090F82E01102815D35AF0040A61
:1027D00012E006EB880090F82E0100280CD106EBE1
:1027E000880090F82B01411806EB880090F82B0127
:1027F000102801D35AF0040A062901D35AF0010A1D
:102800000C2901D35AF0020A06EB080080F8F8A060
:1028100018F1010859E70120332815D2411E49005B
:102820000C4A06EB000393F8F83013F001035354FD
:1028300006EB000393F8F830DBB25B0813F00103FA
:1028400011444B70401CE7E7012007B0BDE8F08F52
:102850001000002004040020000C0140000801408A
:102860002E06002070B402004FF6FF7300242000F3
:1028700080B288420FDA1D00ADB20C4E9BB203F05D
:10288000FF03200080B2105C434036F8133093EA17
:102890001523641CEBE71C00A4B2240A2000C0B27C
:1028A00050EA032080B270BC704700BF1856000881
:1028B00010B50400002C01D1012035E0A0690028EA
:1028C000FFD194F84100002805D1002084F8400091
:1028D000200002F00FFC242084F841002068C0682A
:1028E00030F400502168C860200000F035FC2068FA
:1028F000006930F49040216808612068406930F038
:102900002A00216848612068C06850F4005021689E
:10291000C86000206064202084F84100202084F8F2
:10292000420000206063002010BD10B50400002CA0
:1029300001D101201BE0242084F841002068C068F8
:1029400030F400502168C860200002F012FC002022
:102950006064002084F84100002084F842000020D8
:10296000206300206063002084F84000002010BD38
:102970002DE9FC4706000D0017009846002496F844
:102980004100202857D1002D03D0380080B2002804
:1029900001D1012050E000207064212086F8410020
:1029A00002F022FC8146B784F784B068B0F5805FFE
:1029B00005D13069002802D10024AA4602E02C008B
:1029C0005FF0000AF08C002821D0CDF800804B4643
:1029D00000228021300000F05DFA002804D0202081
:1029E00086F84100032027E0002C08D1BAF8000047
:1029F000C005C00D316848601AF1020A03E0207872
:102A000031684860641CF08C401EF084DAE7CDF831
:102A100000804B4600224021300000F03BFA0028A5
:102A200004D0202086F84100032005E0202086F80D
:102A30004100002000E00220BDE8F6877CB50500DB
:102A40000C00160095F84200202836D1002C03D047
:102A5000300080B2002801D101202FE0012028633E
:102A600000206863320092B22100280000F054FA7E
:102A700001000800C0B200281CD1286B012817D122
:102A80000020009028680068009028684068009046
:102A9000009828680C3050E8000F50F01000020039
:102AA000286810F10C0343E800200028F1D101E070
:102AB000012001000800C0B200E0022076BD10B580
:102AC000040020680C3050E8000F30F4F070010072
:102AD000206810F10C0242E800100028F1D12068B3
:102AE000143050E8000F400840000100206810F149
:102AF000140242E800100028F1D1206B01280DD10A
:102B000020680C3050E8000F30F010000100206801
:102B100010F10C0242E800100028F1D12068406951
:102B2000000621D52068143050E8000F30F08000F6
:102B30000100206810F1140242E800100028F1D1D1
:102B4000A06B002810D00020A16B4863A06B02F09E
:102B50009DFC002808D0A06B02F02BFD202803D19B
:102B600010206064032034E020684069400621D5CD
:102B70002068143050E8000F30F040000100206859
:102B800010F1140242E800100028F1D1E06B002897
:102B900010D00020E16B4863E06B02F077FC002866
:102BA00008D0E06B02F005FD202803D110206064FE
:102BB00003200EE00020E0840020E0850020606417
:102BC000202084F84200202084F841000020206367
:102BD000002010BD2DE9FC4706003068076830680A
:102BE000D0F80C803068D0F814900020002517F041
:102BF0000F04002C08D1B80606D55FEA886003D51B
:102C0000300000F02EFA43E1002C77D05FEAC97063
:102C100002D418F4907F71D03800C00706D55FEA5F
:102C2000C85003D5706C50F001007064780706D569
:102C30004846C00703D5706C50F002007064B807B6
:102C400006D54846C00703D5706C50F00400706488
:102C5000380709D55FEA886002D44846C00703D523
:102C6000706C50F008007064706C002845D0B80695
:102C700005D55FEA886002D5300000F0F2F93068CF
:102C80004069800910F001000500706C000701D454
:102C9000002D2DD0300000F061F930684069400609
:102CA00022D53068143050E8000F30F040000100A9
:102CB000306810F1140242E800100028F1D1F06BE6
:102CC00000280DD00FF2FD20F16B4863F06B02F08D
:102CD00004FC002811D0F06BF16B496B88470CE0C5
:102CE000300002F068FC08E0300002F064FC04E010
:102CF000300002F060FC00207064C9E0306B0128F5
:102D000040F0B480F80640F1B1805FEAC86040F15D
:102D1000AD80002000903068006800903068406806
:102D2000009000983068406940065CD5F06B006800
:102D3000D0F804A0504680B2002853D05046B18D40
:102D400080B288424ED2A6F82EA0F06B806920286F
:102D50003FD030680C3050E8000F30F48070010034
:102D6000306810F10C0242E800100028F1D1306800
:102D7000143050E8000F400840000100306810F1A6
:102D8000140242E800100028F1D13068143050E8F5
:102D9000000F30F040000100306810F1140242E8EA
:102DA00000100028F1D1202086F842000020306376
:102DB00030680C3050E8000F30F01000010030682F
:102DC00010F10C0242E800100028F1D1F06B02F083
:102DD0005DFB02207063B18DF08D091A89B230005D
:102DE000FEF777F854E0B6F82CA0F08DBAEB000AA5
:102DF000F08D002839D0504680B2002835D0306898
:102E00000C3050E8000F30F490700100306810F181
:102E10000C0242E800100028F1D13068143050E86C
:102E2000000F400840000100306810F1140242E831
:102E300000100028F1D1202086F8420000203063E5
:102E400030680C3050E8000F30F01000010030689E
:102E500010F10C0242E800100028F1D1022070634A
:102E6000514689B23000FEF734F811E0380606D535
:102E70005FEA086003D5300000F0B0F808E078069B
:102E800006D55FEA486003D5300000F0DAF8FFE7C6
:102E9000BDE8F3872DE9FC4105000E0017009846B8
:102EA000089C286800683040B04201D1012000E051
:102EB00000203900C9B288422BD114F1010FF0D0A3
:102EC00002F092F9B0EB0800844201D3002C01D14A
:102ED00003201FE02868C0684007E2D5802EE0D0BC
:102EE000402EDED0286800680007DAD50020009068
:102EF00028680068009028684068009000982800C2
:102F000000F02CF808206864002085F840000120BB
:102F100000E00020BDE8F68110B4030099629A85B4
:102F2000DA8500205864222083F8420018690028BE
:102F300005D01868C06850F480701C68E06018689C
:102F4000406950F001001C6860611868C06850F06A
:102F500020001C68E060002010BC704701680C3144
:102F600051E8001F31F490710A00016811F10C035F
:102F700043E800210029F1D10168143151E8001F14
:102F8000490849000A00016811F1140343E80021CF
:102F90000029F1D1016B01290DD101680C3151E8F3
:102FA000001F31F010010A00016811F10C0343E821
:102FB00000210029F1D1202180F842100021016375
:102FC0007047000038B50400656A0020E8850020DD
:102FD000E884280002F0EFFA31BD0000010091F80A
:102FE000410021282BD18868B0F5805F0DD1086998
:102FF00000280AD1086A02001088C005C00D0B68BD
:103000005860086A801C086205E0086A431C0B626D
:1030100000780B685860C88C401EC88480B20028B5
:103020000BD10868C06830F080000B68D860086871
:10303000C06850F040000B68D860002000E002201B
:10304000704710B504002068C06830F04000216867
:10305000C860202084F84100200002F0ADFA002072
:1030600010BD7CB5040094F84200222872D1A068FB
:10307000B0F5805F0DD1206900280AD10025A66A2D
:1030800020684068C005C00D3080A06A801CA06226
:1030900017E0A56A0026A068B0F5805F05D0A0689B
:1030A000002806D12069002803D1206840682870D4
:1030B00004E02068406810F07F002870A06A401C7F
:1030C000A062E08D401EE08580B2002840D12068DB
:1030D000C06830F020002168C8602068C06830F403
:1030E00080702168C86020684069400840002168FD
:1030F0004861202084F8420000206063206B012892
:1031000021D10020206320680C3050E8000F30F0FF
:1031100010000100206810F10C0242E800100028A5
:10312000F1D120680068C00608D500200090206812
:10313000006800902068406800900098A18D2000F1
:10314000FDF7C7FE02E0200002F037FA002002E09F
:10315000002000E0022076BDF8B504002068016977
:1031600031F44051E068014320680161A1682069A1
:10317000014365690D432068C1682D48014029431A
:103180002068C1602068416931F44071A069014341
:103190002068416120682749884202D101F0D6FDAC
:1031A00001E001F0C8FD7FF06301192202FB00F38A
:1031B0006668B600B3FBF6F36426B3FBF6F302FBD6
:1031C00000F66768BF00B6FBF7F602FB00F7D4F81D
:1031D00004C05FEA8C0CB7FBFCF75FF0640CB7FB34
:1031E000FCF701FB0766360132366427B6FBF7F6BB
:1031F00016F0F00616EB031602FB00F36768BF003B
:10320000B3FBF7F302FB00F26768BF00B2FBF7F213
:103210006427B2FBF7F201FB02310901323164226B
:10322000B1FBF2F111F00F018E1921688E60F1BD32
:10323000F3E9FFFF0038014062B38B0708D0521E4C
:1032400011F8013B00F8013B00F024808B07F6D118
:10325000830740F0208000BF103A07D330B4B1E8B4
:103260003810103AA0E83810F9D230BC530724BF08
:10327000B1E80810A0E8081044BF51F8043B40F83A
:10328000043BD20724BF31F8022B20F8022B44BFA5
:103290000B7803707047121F17D35B0009D151F8E8
:1032A000043B20F8023B1B0C121F20F8023BF6D215
:1032B0000BE051F8043B00F8013B1B0A20F8023BED
:1032C0001B0C121F00F8013BF3D238BF121D521E17
:1032D00024BF11F8013B00F8013BF8D87047000209
:1032E00080B50748016851F010010160032001F02A
:1032F00035FE0F2002F062F901F072FE002002BDDF
:103300000020024070B50400002C01D10120E1E052
:1033100094F83D00002805D1002084F83C002000EE
:1033200001F07CFE242084F83D00206800684008FD
:103330004000216808602068006850F4004021685F
:1033400008602068006830F400402168086001F0DF
:10335000F2FC0200DFF890016168814208D2DFF8D8
:103360008C118A4201D2012100E00021C9B207E09C
:10337000DFF87C118A4201D2012100E00021C9B2AC
:10338000012901D10120A5E0DFF86811B2FBF1F1BC
:1033900023685B689B099B010B4325686B6023686E
:1033A0001B6A6568854201D24D1C08E04FF4967592
:1033B00005FB01F54FF47A76B5FBF6F56D1C9B091C
:1033C0009B012B4325682B622368DB696568854276
:1033D00014D2501E65686D00B0FBF5F0401C00056E
:1033E000000D042801D204253EE0501E65686D00E2
:1033F000B0FBF5F56D1C2D052D0D35E0A0680028FE
:1034000009D1551E666803204643B5FBF6F0401C03
:103410000005000D0AE0551E666819204643B5FBFD
:10342000F6F0401C0005000D50F48040000501D16D
:10343000012519E0A068002809D1551E66680320FF
:103440004643B5FBF6F56D1C2D052D0D0AE0551E06
:10345000666819204643B5FBF6F56D1C2D052D0D4C
:1034600055F4804555F40045DFF88C0003402B43AC
:103470002068C3612068036833F0C003E069034338
:10348000206A03432068036020688368DFF86C00CB
:10349000034020690343E068034320688360206899
:1034A000C3681B0A1B02A0690343606903432068C9
:1034B000C3602068006850F0010023681860002095
:1034C0002064202084F83D0000202063002084F840
:1034D0003E00002070BD01684969090602D500213F
:1034E0000268116170470000A186010080841E00FF
:1034F00000093D0040420F000030FFFF007CFFFF4D
:1035000038B4040094F83D0010F02800282841D178
:10351000002903D0100080B2002801D101203AE038
:1035200094F83C00012801D1022034E0012084F805
:103530003C0020680068C00705D42068006850F08F
:103540000100256828602068006830F40060256864
:103550002860292084F83D00202084F83E000020C7
:10356000206461626285608D2085E36200200090A6
:1035700020684069009020688069009000980020D1
:1035800084F83C002068406850F4E060256868607A
:10359000002000E0022032BC704738B4040094F8E8
:1035A0003D0010F02800282841D1002903D0100048
:1035B00080B2002801D101203AE094F83C000128B3
:1035C00001D1022034E0012084F83C00206800682A
:1035D000C00705D42068006850F001002568286005
:1035E0002068006830F40060256828602A2084F88C
:1035F0003D00202084F83E00002020646162628546
:10360000608D2085E3620020009020684069009072
:103610002068806900900098002084F83C002068B1
:10362000406850F4E06025686860002000E00220F7
:1036300032BC7047010091F83D0020281AD12820A3
:1036400081F83D0008680068C00705D40868006874
:1036500050F001000A6810600868006850F480604B
:103660000A6810600868406850F440700A6850604A
:10367000002000E0022070472DE9F04704000025FB
:1036800020684668E76A94F83E8094F83D9040468A
:10369000C0B2102803D04046C0B2402876D120687E
:1036A000806905002068D0F814A05FEACA700CD4C5
:1036B000B7F52A0F02D0B7F12A4F01D1012000E05F
:1036C0000020C0B2002840F0B8805046C00708D59E
:1036D000B00506D5200001F049F8200000F078FB85
:1036E000ABE05FEA0A7005D5B00503D5200000F015
:1036F000C8FBA2E05FEA8A7005D5B00503D52000BB
:1037000000F0D8FB99E0680727D5206840680005DD
:1037100000F193805FEA0A6008D5700506D55FEA7C
:103720004A7003D4200000F006F986E05FEA4A7090
:1037300040F18380B00540F180804846C0B2212826
:1037400003D1200000F06BF977E04046C0B240287A
:1037500073D1200000F0B5F96FE0206840680005E3
:103760006BD45FEA4A6008D5700506D55FEA4A70F7
:1037700003D4200000F012FA5FE05FEA4A705CD5E3
:10378000B0055AD5200000F08AFA56E0206C0028D7
:1037900003D02068D0F814A005E0206880690500F7
:1037A0002068D0F814A05FEA8A700CD5B0050AD55D
:1037B000206C002802D020688069050029002000C4
:1037C00000F00FFD39E05FEACA6005D5B00503D50A
:1037D000200000F039FD30E04846C0B2212803D077
:1037E0004846C0B2292814D15FEA0A6008D570059E
:1037F00006D55FEA4A7003D4200000F088FC1CE084
:103800005FEA4A7019D5B00517D5200000F0A6FC74
:1038100013E05FEA4A6008D5700506D55FEA4A7092
:1038200003D4200000F0A8FC07E05FEA4A7004D54A
:10383000B00502D5200000F0C6FCBDE8F0872DE9F8
:10384000F84F06003068D0F814903068D0F804A023
:10385000002596F83EB05FEAC9500ED55FEACA501F
:103860000BD555F001057FF48070316848613068F0
:10387000006850F40040316808605FEA895008D55C
:103880005FEACA5005D555F002057FF40070316833
:1038900048615FEA495038D55FEACA5035D58DF89E
:1038A00000B0708D040096F83D000700306B804634
:1038B0009DF80000202814D1002C12D13800C0B28D
:1038C00021280AD03800C0B2292806D03800C0B25A
:1038D000282806D1B8F1210F03D1300000F081FD76
:1038E00013E07FF480603168486155F00405584664
:1038F000C0B2102803D05846C0B2402805D1306865
:10390000006850F40070316808605FEA095008D51B
:103910005FEACA5005D555F008057FF400603168AC
:103920004861002D05D0306C28433064300000F031
:10393000ADFDBDE8F18FF8B5040094F83D5094F862
:103940003E60E76A208D002840D12800C0B22128BF
:103950003CD1082F17D0202F15D0DFF8C80C874294
:1039600011D02068406830F4E06021684860112080
:103970002063002084F83E00202084F83D002000D1
:1039800001F042FE4AE02068406830F4E0602168BF
:1039900048602068006850F40070216808600020CA
:1039A0002063202084F83D0094F83E00402806D192
:1039B000002084F83E00200001F027FE2EE00020C9
:1039C00084F83E00200001F01FFE27E02800C0B26E
:1039D000212807D03000C0B240281FD12800C0B233
:1039E00022281BD1608D002806D12068406830F461
:1039F00080602168486011E094F83E00402803D1BF
:103A0000200000F05EF809E0606A00782168086133
:103A1000606A401C6062608D401E6085F1BD38B5F3
:103A20000400E56A94F83D00212849D1608D002802
:103A30000AD0606A007821680861606A401C606290
:103A4000608D401E60853BE0082D17D0202D15D0DD
:103A5000DFF8D00B854211D02068406830F4E06078
:103A60002168486011202063002084F83E00202057
:103A700084F83D00200001F0C7FD21E02068406887
:103A800030F4E060216848602068006850F40070FD
:103A90002168086000202063202084F83D0094F80D
:103AA0003E00402806D1002084F83E00200001F0AE
:103AB000ACFD05E0002084F83E00200001F0A4FDEC
:103AC00031BD38B5040094F83D50206D002814D164
:103AD000E06C012807D1A06CC0B221680861206D9C
:103AE000801C206559E0A06C80B2000AC0B2216839
:103AF0000861206D401C20654FE0206D012807D132
:103B0000A06CC0B221680861206D401C206544E0B3
:103B1000206D02283ED12800C0B2222809D1206899
:103B2000006850F4807021680860206D401C20659A
:103B300033E0608D00280ED02800C0B221280AD1C1
:103B4000606A007821680861606A401C6062608D6C
:103B5000401E608521E0608D00281ED12800C0B283
:103B600021281AD12068406830F4E060216848605C
:103B70002068006850F4007021680860002020630D
:103B8000202084F83D00002084F83E00200001F051
:103B90003CFD02E02000FFF79EFC31BD70B5050042
:103BA00095F83D00222879D1EE6A6C8D042C13D350
:103BB00028680069696A0870686A401C6862688DD4
:103BC000401E6885688D032868D12868406830F4F5
:103BD00080602968486061E0E86A022858D0012CBA
:103BE00001D0002C54D1280000F099FD002835D1D7
:103BF0002868006830F48060296808602868406898
:103C000030F4E0602968486028680069696A0870D3
:103C1000686A401C6862688D401E6885202085F8AF
:103C20003D0095F83E00402808D1002085F83E0070
:103C300000202863280001F0E9FC2FE0002085F82F
:103C40003E00082E01D0202E02D10020286301E082
:103C500012202863280001F0DAFC1FE02868406881
:103C600030F4E0602968486028680069696A087073
:103C7000686A401C6862688D401E6885202085F84F
:103C80003D00002085F83E002800FDF7C0FC05E05F
:103C90002868406830F480602968486070BD38B595
:103CA0000400E56A608D042810D12068406830F473
:103CB00080602168486020680069616A0870606AF5
:103CC000401C6062608D401E608580E0608D03282E
:103CD0001AD12068406830F4806021684860042D63
:103CE00007D0022D05D02068006830F4806021687C
:103CF000086020680069616A0870606A401C606240
:103D0000608D401E608562E0608D022855D1012DD6
:103D100001D0102D06D12068006830F48060216841
:103D2000086010E0042D01D0022D06D12068006843
:103D300050F480602168086005E02068006850F455
:103D400000702168086020680069616A0870606A14
:103D5000401C6062608D401E608520680069616A59
:103D60000870606A401C6062608D401E608520683B
:103D7000406830F4407021684860202084F83D009D
:103D800094F83E00402808D1002084F83E0000202E
:103D90002063200001F03AFC19E0002084F83E0086
:103DA000082D01D0202D02D10020206301E0122037
:103DB0002063200001F02BFC09E020680069616AA3
:103DC0000870606A401C6062608D401E608531BD75
:103DD00090F83E1040290FD1016D002905D1416CAA
:103DE00011F0FE01026811614AE0416C51F00101DD
:103DF000C9B20268116143E00169B1F5804F24D175
:103E000090F83D10212905D1416C11F0FE010268A6
:103E1000116105E0416C51F00101C9B20268116104
:103E2000416B002903D0416B896A002906D1816B5F
:103E3000002925D0816B896A002921D00168496851
:103E400051F40061026851601AE0016D00290AD145
:103E5000416C89B2C90911F0060151F0F001C9B2F3
:103E6000026811610CE0016D012909D1416C89B230
:103E7000C90911F0060151F0F101C9B202681161DE
:103E80007047416CC9B202681161416B002903D0CF
:103E9000416B896A002906D1816B002909D0816BA9
:103EA000896A002905D00168496851F400610268F7
:103EB0005160704738B490F83E20C36A046B90F8A4
:103EC0003D10222940F01781016D00290DD111000C
:103ED000C9B2402909D100210091016849690091C6
:103EE00001688969009100990EE1016D002916D1E0
:103EF0000169B1F5404F12D1002100910168496973
:103F0000009101688969009100990168096851F47C
:103F1000807105682960016D491C0165F4E0418DDF
:103F200000290FD1002100910168496900910168C1
:103F30008969009100990168096851F40071056868
:103F40002960D5E0418D012968D1DFF8D8168B4270
:103F500029D10168096831F4806105682960016828
:103F6000496809050FD50168096831F48061056861
:103F700029600021009101684969009101688969FF
:103F800000910099B4E00021009101684969009115
:103F900001688969009100990168096851F400710C
:103FA00005682960A4E0082B22D0202B20D0122CF9
:103FB00001D1012B1CD1042B0AD0022B08D0102BCD
:103FC00006D00168096831F480610568296005E060
:103FD0000168096851F48061056829600021009139
:103FE00001684969009101688969009100997FE041
:103FF0000168096831F48061056829600021009139
:104000000168496900910168896900910099016816
:10401000096851F400710568296069E0418D022941
:1040200041D1042B19D0022B17D0102B15D00168C9
:10403000096851F400610568296000210091016858
:1040400049690091016889690091009901680968CE
:1040500031F48061056829600EE00168096851F457
:10406000806105682960002100910168496900911B
:10407000016889690091009901684968090537D587
:10408000DFF8A0158B4207D0012B05D0082B03D0F9
:10409000102B01D0202B2BD10168496851F480519D
:1040A0000568696024E00168096851F48061056869
:1040B000296001684968090511D5DFF868158B4248
:1040C00007D0012B05D0082B03D0102B01D0202BBB
:1040D00005D10168496851F4805105686960002183
:1040E000009101684969009101688969009100990E
:1040F0000021016508E000210091016849690091F3
:10410000016889690091009931BC7047000038B599
:10411000040094F83D50608D00281ED0606A00783D
:1041200021680861606A401C6062608D401E608585
:10413000608D002811D12800C0B229280DD1206837
:10414000406830F480602168486021202063282086
:1041500084F83D00200001F05BFA31BD418D00295B
:1041600009D0416A097802681161416A491C4162BB
:10417000418D491E4185704738B5040094F83D5083
:10418000608D00281ED020680069616A0870606A2E
:10419000401C6062608D401E6085608D002811D1DA
:1041A0002800C0B22A280DD12068406830F4806011
:1041B0002168486022202063282084F83D002000E8
:1041C000FDF7F8F931BD418D002909D00168096971
:1041D000426A1170416A491C4162418D491E418504
:1041E0007047F8B504000D00002694F83D0010F06B
:1041F000280028281BD12068406830F4806021689E
:104200004860680701D401200600280602D4E0684F
:10421000070001E0A0690700002084F83C003A0094
:1042200092B23100C9B22000FDF772F90BE0002014
:104230000090206840690090206880690090009894
:10424000002084F83C00F1BD38B5040094F83D50DE
:104250002068406830F4E0602168486000200090E9
:104260002068406900902068006850F001002168D3
:10427000086000982068006830F480602168086059
:104280002068406800054ED52800C0B2222803D01F
:104290002800C0B22A2823D1A06B0068406860853E
:1042A000608D002803D0206C50F00400206420684A
:1042B000406830F4006021684860A06B01F076F936
:1042C000012830D00FF26130A16B4863A06B01F080
:1042D00004F9002827D0A06BA16B496B884722E026
:1042E000606B006840686085608D002803D0206C9A
:1042F00050F0040020642068406830F400602168B9
:104300004860606B01F052F901280CD00FF21930AF
:10431000616B4863606B01F0E0F8002803D0606BCC
:10432000616B496B8847608D002822D02068406906
:10433000400709D520680069616A0870606A401CFE
:104340006062608D401E608520684069400609D526
:1043500020680069616A0870606A401C6062608D54
:10436000401E6085608D002803D0206C50F0040052
:104370002064206C002803D0200000F087F82FE094
:104380002800C0B22A2807D100202063282084F802
:104390003D002000FDF70EF994F83D0028280DD1CE
:1043A000A048E06200202063202084F83D00002027
:1043B00084F83E002000FDF720F911E0206B222850
:1043C00003D02800C0B222280AD100202063202078
:1043D00084F83D00002084F83E002000FDF7EAF854
:1043E00031BD70B5040094F83D50E66A082E01D046
:1043F000202E21D12800C0B228281DD18948E06292
:104400002068406830F4E060216848607FF4806094
:10441000216848612068006830F480602168086085
:1044200000202063202084F83D00002084F83E0016
:104430002000FDF7E2F828E02800C0B2212820D1B2
:104440007848E06221202063202084F83D0000208D
:1044500084F83E002068406830F4E06021684860DD
:104460007FF48060216848612068006830F48060D3
:10447000216808602000FFF72EF8200001F0C8F83E
:1044800003E07FF480602168486170BD2DE9F04150
:10449000040094F83D5094F83E804046C0B2102885
:1044A00003D04046C0B2402809D12800C0B222281B
:1044B00005D12068006830F4006021680860280099
:1044C000C0B210F02800282805D100202063282041
:1044D00084F83D000FE020684068000509D42800FA
:1044E000C0B2602805D0202084F83D00002084F868
:1044F0003E000020206320684068000543D5206806
:10450000406830F4006021684860606B90F82100DA
:10451000012816D00FF21110616B4863606B00F038
:10452000DCFF00285BD0206800684008400021685C
:104530000860202084F83D00606B616B496B884700
:104540004DE00FF2E500A16B4863A06B00F0C5FFE2
:10455000002844D020684069400606D520680069DC
:10456000616A0870606A401C6062206800684008E8
:10457000400021680860202084F83D00A06BA16BFA
:10458000496B88472BE094F83D00602819D1202022
:1045900084F83D000020206420684069400606D56C
:1045A00020680069616A0870606A401C6062206867
:1045B00000684008400021680860200001F029F8E8
:1045C0000DE020684069400606D520680069616AF0
:1045D0000870606A401C60622000FDF718F8276CC4
:1045E00017F00F0F05D02068406830F4E0602168B4
:1045F000486094F83D60206C400710D53000C0B290
:1046000028280CD10748E06200202063202084F88D
:104610003D00002084F83E002000FCF7EEFFBDE8DE
:10462000F08100000000FFFF7CB504000020009036
:10463000656A95F83D60DFF8300100681921B0FB2C
:10464000F1F04FF47A71B0FBF1F123204143009176
:104650000098002804D1286C50F02000286406E05F
:104660000098401E0090286800688005F0D4686BB0
:10467000002802D00020696B8862A86B002802D055
:104680000020A96B88622868006830F4806029687F
:10469000086000206885686B002802D00020696BE4
:1046A0004863A86B002802D00020A96B48632868E3
:1046B0000068400840002968086095F83D006028BF
:1046C0000BD1202085F83D00002085F83E00002019
:1046D0002864280000F09DFF20E03000C0B210F0F8
:1046E0002800282811D12868006850F001002968A6
:1046F00008602868006850F480602968086000201D
:104700002863282085F83D0005E0202085F83D003D
:10471000002085F83E002800FCF779FF73BD81B0CA
:10472000010000200090104800681922B0FBF2F050
:104730004FF47A72B0FBF2F20520424300920098E7
:10474000401E00900098002805D1086C50F0200011
:104750000864012004E0086800688005EFD40020A8
:1047600001B070470000000004000020C16AB1F5EC
:104770002A0F02D10121C16205E0C16AB1F12A4FBD
:1047800001D10821C16270472DE9FC470400002CCB
:1047900001D10120F6E12078C0076BD5DFF8EC05E8
:1047A000016811F00C01042907D0016811F00C0117
:1047B00008290CD10068C00309D5DFF8CC050068D2
:1047C000800357D56068002854D10120DAE1606881
:1047D000B0F5803F06D1DFF8B005016851F48031B3
:1047E000016026E0606800280AD1DFF89C050168B6
:1047F00031F480310160016831F48021016018E0FA
:104800006068B0F5A02F0AD1DFF87C05016851F48B
:1048100080210160016851F48031016009E0DFF816
:104820006805016831F480310160016831F480214C
:104830000160606800280ED000F0D6FC0500DFF8AB
:1048400048050068800315D400F0CEFC401B6528A5
:10485000F5D3032096E100F0C7FC0500DFF828053A
:104860000068800306D500F0BFFC401B6528F5D327
:10487000032087E12078800750D5DFF81005016814
:1048800011F00C0F07D0016811F00C01082914D1A8
:104890000068C00311D4DFF8F0040168890704D56B
:1048A0002169012901D001206CE1016831F0F80192
:1048B000626951EAC201016030E0206900281AD023
:1048C0000120DFF8DC14086000F08EFC0500DFF842
:1048D000B8040168890706D400F086FC401B032851
:1048E000F5D303204EE1016831F0F801626951EA25
:1048F000C201016012E00020DFF8A414086000F09B
:1049000073FC0500DFF880040068800706D500F01E
:104910006BFC401B0328F5D3032033E1207800070C
:104920002CD5A069002816D00120DFF87814086083
:1049300000F05AFC0500DFF864040068800706D424
:1049400000F052FC401B0328F5D303201AE101209C
:1049500000F007FA12E00020DFF84814086000F0C9
:1049600043FC0500DFF834040068800706D500F03A
:104970003BFC401B0328F5D3032003E120784007CC
:1049800040F18E800027DFF82084D8F80000C000B6
:104990000DD4D8F8000050F08050C8F80000D8F8C6
:1049A000000010F080500090009801200700DFF810
:1049B000FC93D9F80000C00513D4D9F8000050F4D6
:1049C0008070C9F8000000F00FFC0500D9F8000065
:1049D000C00506D400F008FC401B6528F6D3032070
:1049E000D0E0E068012806D1DFF8C403016851F087
:1049F0000101016025E0E06800280AD1DFF8B0037A
:104A00000168490849000160016831F00401016052
:104A100017E0E06805280AD1DFF89403016851F037
:104A200004010160016851F00101016009E0DFF853
:104A300080030168490849000160016831F0040100
:104A40000160E068002810D000F0CEFB0500DFF820
:104A500060030068800719D400F0C6FB401B41F2D8
:104A600089318842F3D303208CE000F0BDFB0500C0
:104A7000DFF83C030068800708D500F0B5FB401B59
:104A800041F289318842F3D303207BE03800C0B281
:104A9000012805D1D8F8000030F08050C8F8000097
:104AA000E06900286DD0DFF8E482D8F8000010F04B
:104AB0000C00082851D0E06902283BD1DFF8F4A2AD
:104AC0000020CAF8000000F08FFB0700DFF8B89262
:104AD000D9F80000800106D500F086FBC01B032832
:104AE000F4D303204EE0206AB0F5803F07D1D8F818
:104AF000001031F40031A0680143C8F80010D8F864
:104B0000001031F47411206A0143606A0143C8F84F
:104B100000100120CAF8000000F066FB0500D9F87B
:104B2000000080012DD400F05FFB401B0328F6D36A
:104B3000032027E00020DFF87C12086000F054FB1F
:104B40000500DFF84402006880011AD500F04CFB34
:104B5000401B0328F5D3032014E0E069012801D1AC
:104B600001200FE0D8F80000060016F48030216A1A
:104B7000884204D116F47010616A884201D0012085
:104B800000E00020BDE8F6872DE9F04104000D00AB
:104B9000002C01D101209BE0DFF81C72386810F076
:104BA0000700A8420BD23868C008C000284338600C
:104BB000386810F00700A84201D0012088E0207872
:104BC000800716D52078400704D57048016851F455
:104BD000E06101602078000704D56C48016851F459
:104BE0006051016069490A6832F0F002A06802432E
:104BF0000A602078C00735D56068012805D1624871
:104C00000068800310D4012062E06068022805D1AA
:104C10005D480068800107D4012059E05A480068C7
:104C2000800701D4012053E0DFF86081D8F800103C
:104C30008908890060680143C8F8001000F0D4FAC0
:104C40000600D8F8000010F00C006168B0EB810F8E
:104C500008D000F0C9FA801B41F289318842F0D3B4
:104C6000032035E0386810F0070085420BD2386821
:104C7000C008C00028433860386810F00700A84218
:104C800001D0012024E02078400706D53F490A687A
:104C900032F4E062E06802430A602078000707D53A
:104CA0003A48016831F46051226951EAC201016059
:104CB00000F010F84149354A1268C2F30312895CCA
:104CC000C840344908603448006800F077FC002090
:104CD000BDE8F081F0B4002000220023002400256C
:104CE0002A4E316811F00C07042F02D0082F02D091
:104CF0001BE033481AE03348C1F38347C05D04002A
:104D0000C8030CD530483668C6F34046805D0200C3
:104D10002B4800FB04F0B0FBF2F0030003E02B484B
:104D200000FB04F00300180000E01948F0BC7047D5
:104D300018480068704780B5FFF7FAFF2449134A06
:104D40001268C2F30222895CC84002BD80B5FFF739
:104D5000EFFF1F490D4A1268C2F3C222895CC840A6
:104D600002BD81B00B490968C9084FF47A72B1FBE2
:104D7000F2F101FB00F1009100BF00994A1E009280
:104D80000029F9D101B07047001002400410024020
:104D900000127A00040000200000002024100240CD
:104DA00000004242800442421C1002400070004059
:104DB000201002406000424200200240845A000855
:104DC000001BB700745A0008E651000800093D00B6
:104DD000B05A000830B4020092F83C00012801D11A
:104DE00002202DE0012082F83C00022082F83D00E4
:104DF000106843681068846833F0700308680343E0
:104E0000106843601068104DA8420BD01068B0F1D4
:104E1000804F07D010680D4DA84203D010680C4D8C
:104E2000A84206D134F0800420004C680443106886
:104E30008460012082F83D00002082F83C000020C0
:104E400030BC704700000000002C0140000400400E
:104E50000008004010B410F00703584C22684FF6C9
:104E6000FF010A4052EA032255490A43226010BC5E
:104E7000704752480068C0F302207047010049B2F1
:104E8000002909D4012210F01F018A404D49030076
:104E90005BB25B0941F823207047010049B2002949
:104EA0000DD4012210F01F018A40474903005BB274
:104EB0005B0941F82320BFF34F8FBFF36F8F70471B
:104EC00010B4020052B2002A05D40A013F4B04007C
:104ED00064B21A5508E00A013D4B040064B214F0B4
:104EE0000F04234403F8042C10BC704770B4030073
:104EF00013F00704D4F10700052801D3042001E0D2
:104F0000D4F10700251D072D01D2002500E0E51E84
:104F1000012616FA00F0401E0140A94016FA05F5D8
:104F20006D1E2A401143080070BC704710B5040084
:104F3000601EB0F1807F01D301200EE0601E254984
:104F400008600F215FF0FF30FFF7BAFF0020224911
:104F50000860072021490860002010BD10B504003A
:104F60002000FFF777FF10BD2DE9F04104000D0090
:104F700016000027FFF77DFF8046320029004046DB
:104F8000FFF7B4FF0100200040B2FFF799FFBDE832
:104F9000F08110B50400200040B2FFF76FFF10BD94
:104FA00010B50400200040B2FFF777FF10BD10B528
:104FB00004002000FFF7BAFF10BD00000CED00E078
:104FC0000000FA0500E100E080E100E000E400E01C
:104FD00018ED00E014E000E018E000E010E000E070
:104FE00081B06E48016851F001010160006810F065
:104FF0000100009000986A48016851F080510160FA
:10500000006810F08050009000986649086830F001
:10501000E06050F00070086001B0704718B585B0CE
:1050200004001021002201A8FCF7C8FD20685E4999
:1050300088422DD15948016851F00801016000688B
:1050400010F0080000900098C020019012200290FB
:105050000320049001A95548FCF75AFF5048016805
:1050600051F400110160006810F4001000900098E5
:10507000002200211F20FFF777FF1F20FFF789FF85
:10508000002200212020FFF76FFF2020FFF781FF83
:1050900006B010BD1CB5040020684549884212D1F5
:1050A0003E48016851F400610160006810F400603E
:1050B00000900098002200211920FFF755FF1920C9
:1050C000FFF767FF15E02068B0F1804F11D1344839
:1050D000016851F001010160006810F001000090CA
:1050E0000098002200211C20FFF73EFF1C20FFF744
:1050F00050FF13BD30B585B0040010210022684672
:10510000FCF75CFD20682B49884230D124480168B7
:1051100051F400310160006810F4003004900498EC
:105120001E48016851F004010160006810F004009D
:105130000490049804200090022001900320039022
:105140001D4D69462800FCF7E3FE08200090002072
:1051500001900020029069462800FCF7D9FE002249
:1051600000212620FFF700FF2620FFF712FF05B0E1
:1051700030BD10B5040020680E4988420BD10848A4
:10518000016831F4003101600C210B48FCF7CFFFBE
:105190002620FFF705FF10BD000000001810024098
:1051A0001C1002400400014000540040000C01406B
:1051B000002C014000440040000801407047704747
:1051C0007047704770477047D2B2203A22BF21FA29
:1051D00002F0002170472032D141D0404840914038
:1051E000D14048407047010201480068704700BF45
:1051F000F805002013F0004C03D55B42524263F1E6
:1052000000039CEA210C00F0178010B5644603D31C
:105210004942404261F1000100F00EF8640004D3FD
:105220004942404261F10001244203D55B425242AF
:1052300063F1000310BD0000BBBBE1B1B2F5803FDC
:1052400080F07E80022A1ED98C46B1FBF2F102FB6F
:1052500011C31B0443EA1043B3FBF2FC02FB1C33F3
:1052600080B240EA0343B3FBF2F002FB103240EAA3
:105270000C4000237047022A05D98446B0FBF2F0A7
:1052800002FB10C270474AB105D100F00102490883
:105290005FEA3000704700220023704700F0BAB97F
:1052A0000B000200002100207047904271EB030CBC
:1052B000F6D3B3F5803F2FD2F0B5B3FA83F7B1FA46
:1052C00081F4A7F10F0E3D1B5340CEF1200602FAE8
:1052D0000EF2F3415340B5F10F0746D80F3C2C4472
:1052E0004140C4F12006A040F1414140B1FBF3F63A
:1052F00003FB1611A2FB0645001BA94102D2761E34
:105300008018594180EA010221FA0EF362FA0EF286
:1053100000215A403046F0BD30B4B1FBF3FC03FB32
:105320001C11A2FB0C45001BA94103D2ACF1010CDE
:105330008018594130BC02460B4660460021704738
:10534000B2F1807F65D3F0B5B2FA82F7B1FA81F499
:10535000C7F10F063D1B22FA06F307F1110EF241C9
:1053600020355A40B5F10F07B8D94140C4F12006A5
:10537000A040F1414140B1FBF3FC03FB1C11A2FB37
:105380000C45001BA94103D2BCF1010C8018594106
:105390000F2F12D30F3FC90341EA5041B1FBF3F67F
:1053A00003FB1611A2FB0645D4EBC030A94102D283
:1053B000761E8018594146EACC3C07B34140C7F1FC
:1053C0002006B840F1414140B1FBF3F603FB161152
:1053D000A2FB0645001BA94102D2761E8018594146
:1053E00080EA010221FA0EF3C7F1200462FA0EF2FC
:1053F0000CFA07F05A402CFA04F13043F0BD80EA71
:10540000010221FA0EF3002162FA0EF260465A40C0
:10541000F0BD8C46B1FBF2F102FB11C31B0243EA63
:105420001063B3FBF2FC02FB1C331B024CEA0020AE
:1054300043EA1063B3FBF2FC02FB1C331B024CEA91
:10544000002043EA1063B3FBF2FC02FB1C331B0297
:105450004CEA002043EA1063B3FBF2FC02FB1C326F
:105460004CEA002000237047D2B2203A22BF00FA53
:1054700002F1002070475242D041D2F12002914007
:105480004140D04090404140704700000100002260
:1054900091F82100022806D004208863002081F8BA
:1054A0002000012018E00868006830F00E000B684A
:1054B000186008680068400840000B681860012305
:1054C000086C8340C86B4360012081F821000020F4
:1054D00081F820001000C0B2704738B504000025E4
:1054E00094F82100022804D00420A06301200500C4
:1054F0004AE02068006830F00E00216808602068EB
:10550000006840084000216808602068DFF88010CB
:10551000884201D1012028E02068DFF87810884215
:1055200001D1102021E02068DFF86C10884202D100
:105530004FF4807019E02068DFF86010884202D1D3
:105540004FF4805011E02068DFF85410884202D1F7
:105550005FF4803009E02068DFF84810884202D10B
:105560005FF4801001E05FF08070DFF83C100860AD
:10557000012084F82100002084F82000606B0028BE
:1055800002D02000616B88472800C0B232BD000005
:10559000080002401C00024030000240440002406B
:1055A000580002406C0002400400024090F82100C4
:1055B0007047806B704770477047704710B50400A4
:1055C0004FF47A700D490978B0FBF1F00C49096885
:1055D000B1FBF0F0FFF7EBFC002801D001200CE05C
:1055E000102C09D2002221005FF0FF30FFF7BCFC35
:1055F00004480460002000E0012010BD09000020E4
:10560000040000200000002070477047704770477A
:1056100070477047704700000000C1C081C1400161
:1056200001C3C003800241C201C6C006800741C752
:105630000005C1C581C4400401CCC00C800D41CD22
:10564000000FC1CF81CE400E000AC1CA81CB400BF2
:1056500001C9C009800841C801D8C018801941D9C2
:10566000001BC1DB81DA401A001EC1DE81DF401F52
:1056700001DDC01D801C41DC0014C1D481D5401562
:1056800001D7C017801641D601D2C012801341D372
:105690000011C1D181D0401001F0C030803141F102
:1056A0000033C1F381F240320036C1F681F7403752
:1056B00001F5C035803441F4003CC1FC81FD403D22
:1056C00001FFC03F803E41FE01FAC03A803B41FBF2
:1056D0000039C1F981F840380028C1E881E9402942
:1056E00001EBC02B802A41EA01EEC02E802F41EF52
:1056F000002DC1ED81EC402C01E4C024802541E562
:105700000027C1E781E640260022C1E281E3402371
:1057100001E1C021802041E001A0C060806141A181
:105720000063C1A381A240620066C1A681A7406751
:1057300001A5C065806441A4006CC1AC81AD406D21
:1057400001AFC06F806E41AE01AAC06A806B41ABF1
:105750000069C1A981A840680078C1B881B94079C1
:1057600001BBC07B807A41BA01BEC07E807F41BF51
:10577000007DC1BD81BC407C01B4C074807541B561
:105780000077C1B781B640760072C1B281B3407371
:1057900001B1C071807041B00050C1908191405101
:1057A0000193C053805241920196C0568057419751
:1057B0000055C19581944054019CC05C805D419D21
:1057C000005FC19F819E405E005AC19A819B405BF1
:1057D0000199C059805841980188C0488049418941
:1057E000004BC18B818A404A004EC18E818F404F51
:1057F000018DC04D804C418C0044C1848185404561
:105800000187C047804641860182C0428043418370
:105810000041C18181804040FEE7FEE7FEE7FEE7F0
:10582000FEE770477047704780B500F03DF801BD56
:1058300080B50120FCF724FD01BD80B50220FCF7F6
:105840001FFD01BD80B54FF48070FCF719FD01BD4F
:1058500080B50C48FCF720F801BD80B50A48FCF77C
:105860001BF801BD80B50948FDF706FF01BD80B5F5
:105870000648FDF7E4FF01BD80B50548FDF7AAF92C
:1058800001BD0000BC0400200405002068040020C5
:105890004C05002080B54FF40060FCF7F1FC4FF49C
:1058A0000040FCF7EDFC01BD03490A68034800789D
:1058B00082180A60704700BFF80500200900002028
:1058C0000008014000080000000C014000800000BA
:1058D000000C01401000000000000000000000006B
:1058E000000000000000000000080140000400006B
:1058F000000000000000000000080140000200005D
:105900000000000000000000000C01400001000049
:105910000000000000000000000C014000400000FA
:10592000000000000000000000080140000100002D
:10593000000C014008000000000000000000000012
:105940000000000000000000000000000000000057
:105950000000000000000000000000000000000047
:1059600000100140002000000000000000000000C6
:105970000000000000000000000000000000000027
:1059800030B4002512E050F8042BD30744BF4A443A
:10599000521E091F042942F8045BFAD213468C07F1
:1059A00044BF15809B1CC90748BF1D7050F8041BDD
:1059B0000029E8D130BC704710B507497944183147
:1059C000064C7C44163404E00A68081D11448847DC
:1059D0000146A142F8D110BD580000007800000037
:1059E00000F00FF8002801D0FFF7E6FFAFF30080CA
:1059F0000020AFF30080AFF30080FBF79BFA00F0CC
:105A000002F80120704700F001B8000000F000F833
:105A10000746384600F002F8FBE7000080B5AFF318
:105A20000080024A11001820ABBEFBE726000200EE
:105A300051FFFFFF240600001000002000000000BE
:105A4000E3C1FFFF0C0000005C000000000000202C
:105A5000000000004EF6A550CFF6F560014603B4F5
:105A6000684680F30988AFF30080AFF30080FFF74A
:105A7000B7FF000002030405060708090A0B0C0D16
:105A80000E0F1010000000000000000001020304CF
:105A9000060708090148804701480047415B0008A4
:105AA000555A00081000000000127A0001010000A1
:105AB0000000000001020304FFF7FEBFFFF7FEBF76
:105AC000FFF7FEBFFFF7FEBFFFF7FEBFFFF7FEBF0A
:105AD000FFF7FEBFFFF7FEBFFFF7FEBFFFF7FEBFFA
