:020000040800F2
:1000000000050020D11500086D1500086F150008C7
:100010007115000873150008751500080000000030
:10002000000000000000000000000000771500083C
:1000300079150008000000007B1500087D150008F8
:10004000F9150008FD15000801160008051600083E
:10005000091600080D1600081116000815160008EC
:10006000191600081D16000821160008251600089C
:10007000291600082D16000831160008351600084C
:10008000391600083D1600084116000845160008FC
:10009000491600084D1600085116000855160008AC
:1000A000591600085D16000861160008651600085C
:1000B00081150008691600086D1600087116000801
:1000C00075160008791600087D16000881160008CC
:1000D00085160008891600088D160008911600087C
:1000E00095160008991600089D1600082DE9F8439A
:1000F000040016D02078DFF85C64C10713D570685F
:1001000000F00C00042807D0706800F00C000828EC
:1001100040D17068C1033DD53068810303D5606864
:10012000002800F058812078DFF83894810719D52D
:10013000706810F00C0F07D0706800F00C000828F1
:1001400060D17068C1035DD43068810703D522692E
:10015000012A40F040813068616920F0F80040EAEF
:10016000C1003060207801077BD5A069DFF8F81363
:10017000002800F09D8001220A6000F023FA054665
:10018000706A81075ED400F01DFA401B0228F7D97F
:10019000032023E16068B0F5803F04D1306840F46B
:1001A0008030306014E008B930680AE0B0F5A02F64
:1001B000306806D140F480203060316841F48031ED
:1001C00005E020F480303060316821F48021316016
:1001D000606858B100F0F6F9054630688103A2D492
:1001E00000F0F0F9401B6528F7D3D1E700F0EAF9F9
:1001F00005463068810396D500F0E4F9401B652878
:10020000F7D3C5E7206970B10121C9F8001000F0EB
:10021000D9F90546306881079DD400F0D3F9401B19
:100220000228F7D9B4E70022C9F8002000F0CAF983
:1002300005463068810795D500F0C4F9401B0228B7
:10024000F7D9A5E7DFF810231068C0084FF47A71DA
:10025000B0FBF1F1009100BF0098411E0028009111
:10026000F9D12078410768D5F0690025C10009D48B
:10027000F06940F08050F0610125F06900F0805095
:1002800000900098DFF8E4723868C1051DD4386822
:1002900040F48070386000F095F980463868C105F8
:1002A00013D400F08FF9A0EB08006528F6D36FE7B0
:1002B000086000F087F90546706A8107D1D500F023
:1002C00081F9401B0228F7D962E7E068012808D0CD
:1002D00008B9306A09E00528306A06D140F0040008
:1002E0003062306A40F0010005E0400840003062B2
:1002F000306A20F00400306241F28938E06858B179
:1003000000F060F90746306A810711D400F05AF90D
:10031000C01B4045F7D33BE700F054F90746306A6D
:10032000810705D500F04EF9C01B4045F7D32FE7F4
:100330001DB1F06920F08050F061E06900284CD0D8
:10034000716801F00C01082938D002282AD100F088
:1003500047F805463068810105D500F033F9401BA8
:100360000228F7D914E7206AB0F5803F05D17168FB
:10037000A06821F40031014371607268206A616AEB
:1003800022F4741202430A437260012000F029F83B
:1003900004463068810120D400F014F9001B0228C3
:1003A000F7D9F5E600F01CF804463068810114D551
:1003B00000F008F9001B0228F7D9E9E601280AD065
:1003C0007068226A00F48031914202BF00F470101C
:1003D000616A884201D0012000E00020BDE8F2837C
:1003E0000020C9F8600000F0EDB82DE9F0410400EC
:1003F00088464ED05E4F00F077F802D200F06FF8DA
:1004000047D12068534D810712D5400703D569684D
:1004100041F4E06169602078010703D5686840F421
:10042000605068606968A06821F0F001014369606C
:100430002178C80725D56068012802D129688A0378
:1004400003E00228296802D18A0102D421E08A0748
:100450001FD56968890840EA8100686000F0B2F839
:1004600006466868616800F00C00B0EB810F08D0A8
:1004700000F0A8F8801B41F289318842F1D30320B3
:100480002BE0386800F00700804504D200F027F820
:1004900001D0012021E02078420705D56968E06895
:1004A00021F4E061014369602178080706D5696895
:1004B000206921F4605141EAC001696000F01AF836
:1004C0006A682C49244BC2F30312895CC840186047
:1004D0002348006800F07CF80020BDE8F08139680E
:1004E000C90848EAC1013960386800F00700404592
:1004F0007047000010B5204920480A6802F00C043B
:10050000042C14D0082C11D11FA3C2F38344D203AE
:100510001B5D08D5096858431FA3C1F34041595CCE
:10052000B0FBF1F010BD1648584310BD0B4810BD8C
:100530000948114A006813681249C3F3022206E011
:1005400005480D4A006813680E49C3F3C222895C4E
:10055000C8407047001002400C00002000127A00D2
:100560000800002000004242800442420070004027
:1005700000200240C015000804100240001BB70014
:1005800000093D00F01500080203040506070809EC
:100590000A0B0C0D0E0F101001020EE002684368EA
:1005A000024408305FEAC37C44BF4B445B1E52F8F0
:1005B00004CB43F804CB091FF9D150F8041B0029E0
:1005C000ECD1704701484068704700BF0000002030
:1005D00038B50D4D0D4B2A7804464FF47A711868E2
:1005E000B1FBF2F2B0FBF2F000F051F850B9102C70
:1005F00008D2002221464FF0FF3000F020F8AC6016
:10060000002032BD012032BD000000200C0000207F
:100610000901020002D4264881547047254B02F09C
:100620000F021A4402F8041C704723490A6860F359
:100630000A2240F2FA5060F31F420A60704770B518
:100640001D4B1C68C4F302230124C3F10705052DCB
:100650002EBF0F2504FA05F56D1E1E1D072E34BF93
:100660000023DB1E2940994004FA03F3BDE87040E3
:100670005B1E1A401143CBE7010007D4012200F0B2
:100680001F010E4B8A40400943F820207047401E4E
:10069000B0F1807F01D3012070470949094A4860C1
:1006A0000023F02010708B60072008600020704746
:1006B00000E400E018ED00E00CED00E000E100E0F7
:1006C00010E000E023ED00E038B5040001D1012086
:1006D00032BD00F049F818B900F042F800F003FA12
:1006E0002AE090F83D10012901D001207047022135
:1006F00080F83D100168CA6842F00102CA600168D2
:10070000DFF86C20914218BFB1F1804F07D0DFF8BD
:10071000642091421CBFDFF86030994205D189689E
:1007200001F00701062905D001680A68084642F071
:10073000010202600020704702206870211D2068BD
:1007400000F013F90120A8720121A970E870297145
:100750006871A971E871297268726970002032BDF0
:10076000002129702046704704F13C0568787047E5
:10077000002C0140000400400008004070B5044611
:100780002068C5680669B10714D5AA0712D56FF0AD
:100790000201016101222277806910F0030F2046D7
:1007A00002D000F0FDF903E000F0FBF900F07BF867
:1007B00000202077700715D56A0713D520686FF0E1
:1007C0000401016102222277806910F4407F2046F3
:1007D00002D000F0E5F903E000F0E3F900F063F87F
:1007E00000202077300715D52A0713D520686FF031
:1007F0000801016104222277C06910F0030F20462E
:1008000002D000F0CDF903E000F0CBF900F04BF896
:1008100000202077F00615D5EA0613D520686FF082
:100820001001016108222277C06910F4407F204640
:1008300002D000F0B5F903E000F0B3F900F033F8AE
:100840000020207706F0010205F001010A4206D0DF
:1008500021686FF001020A61204600F029FB300692
:1008600008D52A0606D521686FF080000861204669
:1008700000F038FB700608D56A0606D521686FF0CF
:1008800040000861204600F02EFBB0060AD5AA06FB
:1008900008D521686FF0200008612046BDE870404F
:1008A00000F022BB70BD204600F01FBB70B50446AF
:1008B00004F13C0600253078012801D1022070BDEA
:1008C0000120307002227270DFF80C0122689368F8
:1008D000034093600868020018BF102830D0202819
:1008E00018BF30282CD0402826D0502819D0602896
:1008F0001BD0702806D0B0F5805F27D0B0F5005F20
:1009000007D022E000F02CF82068816841F07701E0
:1009100005E000F025F82068816841F4804181609D
:1009200014E000F019F850210BE0CA68496820680B
:1009300000F06BF8602104E000F00EF8402100E0C8
:100940000146206800F073F800E001250120707076
:1009500000213170284670BDCA684968206845E0AA
:10096000CB684A688968206869E070B503681B4CE9
:100970001B4A1C4DA04218BFB0F1804F03D0A842C3
:1009800018BF904209D123F070064B683343A04250
:100990001CBFB0F1804FA84201D0904203D123F494
:1009A0004072CB6813434A6923F08003134303600A
:1009B000A0428B68C3620A68826202D109690A4A4E
:1009C0001160012343610169CA0703D50169490820
:1009D0004900016170BD00008800FFFF002C01404C
:1009E0000008004000040040302C014010B5036AAC
:1009F000046A64086400046223F00A03846924F032
:100A0000F00444EA0214846123E010B5036A046A26
:100A100024F01004046223F0A003846924F47044D9
:100A200044EA0234846143EA0113036210BD826820
:100A300022F07002114341F007018160704710B548
:100A4000846824F47F442143114341EA03218160F7
:100A500010BD1943016210BD4A4881B0026842F0DE
:100A600001020260016801F00101009100994268F1
:100A700042F0805242600222406800F080500090B4
:100A800000984148016862F31A61016001B0704743
:100A900018B585B004461021002201A800F026FAFE
:100AA00021683A4A91421CD1364C216841F0080134
:100AB00021601221206800F008000090C020009AF8
:100AC000019002910322049201A9314800F018FA22
:100AD000606840F400106060606800F400100090EE
:100AE000009806B010BD0068B0F1804F00D070478C
:100AF00080B52848016841F00101016000220068CA
:100B000000F0010000900021009B1C20FFF797FDE2
:100B1000BDE802401C20FFF7AFBD18B585B0044604
:100B200010210022684600F0E1F921681A4A91423A
:100B300026D11448194C416841F4003141604168A4
:100B400001F4003104910499026842F00402026049
:100B50000221006800F0040004901420049A009020
:100B60000191032203926946204600F0C9F908204A
:100B700000210090019102912046694600F0C0F9E1
:100B800006B010BD1810024004000140005400409F
:100B9000000C01401C1002400044004000080140CD
:100BA0007047704750F83130002B00D1704710B5B6
:100BB00000EBC1041846A188BDE8104000F06FBAF0
:100BC00070B50446C00758BF04F001040025DFF8E3
:100BD000E46224FA05F202F00102E9B23046FFF7BE
:100BE000E1FF6D1CEBB2102BF3D3DFF8CC020481D4
:100BF00070BD70B504460025DFF8C0620123AB402C
:100C000013EA040218BF0122E9B23046FFF7CAFF17
:100C10006D1CEBB2082BF1D3A748047170BD70B501
:100C200086B000F05BFA00F010F91021002268464F
:100C300000F05CF9A248A34C0268A34DA34E42F019
:100C400010020260016801F010010491049A036827
:100C500043F020030360016801F020010491049A2D
:100C6000036843F004030360016801F00401049188
:100C70000499026842F0080202600022006800F055
:100C8000080004904FF400510498204600F007FA41
:100C900000224FF40861284600F001FA00222421C6
:100CA000304600F0FCF901224CF21821304600F0E9
:100CB000F6F901224FF4E061284600F0F0F9012135
:100CC00001914FF4005000F0ADF8204600F018F903
:100CD0004FF4004000F0A1F8204600F0ABF848F2D5
:100CE000030000F09AF8284600F0A4F84FF4F060F2
:100CF00000F0A3F8284600F003F943F6031000F0D3
:100D00008CF800F096F80121019102910420022153
:100D10000090039100F08DF84CF2082000F08DF85F
:100D2000304600F0EDF84FF4006000900121019191
:100D3000029128460221039100F07CF801210191E3
:100D4000302000F06FF8304600F0DAF86049614C6E
:100D500061486160206000224FF48041A260E2603F
:100D600021616261A261E2612262204600F0C8F95D
:100D700008B100F0B5F8594860654FF4E131A1655C
:100D80000020E065206660660C21E06620676067F1
:100D9000A16604F1540000F07BFA08B100F0A0F85D
:100DA0001021002202A800F0A1F80020009001907C
:100DB00004F198054FF08040286041F61F41132050
:100DC0000022E8606960AA602A61AA612846FFF7EC
:100DD0007BFC08B100F084F84FF48050029002A927
:100DE0002846FFF763FD08B100F07AF80020009074
:100DF00001906946284600F0BDFA08B100F070F88D
:100E0000204600F027FA0020FFF7DAFE0020FFF767
:100E1000F0FE2846FFF765FCFEE7002100900191F7
:100E200002917047022100900022039102926946CC
:100E300070473046694600F063B801210090019187
:100E40000222029203926946704700B58FB02821B2
:100E5000002205A800F04AF814210022684600F09C
:100E600045F84FF480310022069107920D91012040
:100E70000590099002224FF480110C920E9105A862
:100E8000FFF734F908B100F02BF8022101910F208F
:100E90004FF480610090002203910292049202219B
:100EA0006846FFF7A2FA08B100F01AF80FB000BDCB
:100EB00070470000D8130008F00000205814000804
:100EC000181002400010014000080140000C0140D1
:100ED000A0860100100000200054004000440040A3
:100EE00072B6FEE770477047704770474018491C5C
:100EF0001CBFB1F1010100F8012DF9D170470000CC
:100F00002DE9F84F00239E46674CDFF8A081684E1C
:100F1000DFF8A0B14FF00F0902460CE02568284029
:100F2000206007E0C4F804C04F68FF03F6D52068CE
:100F3000054325605B1C0D6835FA03F000F0AD80B9
:100F4000012000FA03FC0CEA05056545F2D148686A
:100F500058B301281AD002281FD0032833D01128F3
:100F600017D012281DD0544FB8421CBF534FB8425F
:100F70001BD0534FB8421CBF524FB84215D0524FEE
:100F8000B8421CBF514FB8420FD01EE0D1F80CE060
:100F90001BE0C86800F1040E17E0C86800F1080EF5
:100FA00013E0C86800F10C0E0FE0886810B94FF02C
:100FB000040E0AE001284FF0080E14BFC2F814C056
:100FC000C2F810C001E04FF0000EB5F5807F03D2EB
:100FD00010464FEA830C04E0A3F10807101D4FEA06
:100FE000870CD0F800A009FA0CF72AEA07070EFAD6
:100FF0000CFC4CEA070CC0F800C04868C00099D54A
:10100000376847F0010737609F00306800F0010043
:10101000009007F00C0C0098980858F820A009FAE6
:101020000CF72AEA070A5A4508BF00270ED0284FB6
:10103000BA4208BF012709D0264FBA4208BF02278B
:1010400004D0254FBA420CBF0327042707FA0CF738
:1010500047EA0A0C48F820C0E8434F68D4F808C0B3
:10106000FF024CBF45EA0C0C00EA0C0CC4F808C0A7
:101070004F68D4F80CC0BF024CBF45EA0C0C00EA24
:101080000C0CC4F80CC04F68D4F804C0BF034CBFAC
:1010900045EA0C0C00EA0C0C44E7BDE8F18F02B9FC
:1010A000090401617047000000040140080001408C
:1010B000181002400008014000001110000012103A
:1010C000000021100000221000003110000032103A
:1010D000000C0140001001400014014080B5074899
:1010E000016841F0100101600320FFF79EFA0F2014
:1010F000FFF76EFAFFF7B0FC002002BD00200240AF
:10110000F8B5040025D004F13C05697821B9002028
:1011100028702046FFF7BCFC24226A702068DFF8A4
:101120001C7101684908490001602068026842F4A6
:10113000004202602068016821F400410160FFF76D
:10114000F7F901466068B84205D2DFF8F420914211
:1011500005D20120F2BDDFF8EC008142F9D320680E
:10116000DFF8E4204368B1FBF2F29B0942EA831303
:10117000436023681E6A6068B84206D34FF49670D5
:1011800042434FF47A70B2FBF0F2521CB60942EAC5
:1011900086121A62491E2268D3696668BE4206D268
:1011A000760000F044F8042913D2042111E0A0686D
:1011B00020B906EB460600F03AF805E01920464350
:1011C00000F035F841F4804108050CBF012141F4DD
:1011D0000041DFF8780003400B43D36122681368B5
:1011E000E069216A23F0C00303430B4313602268C4
:1011F000DFF85C00936821690340E0680B43034318
:1012000093602268D368A06961691B0A40EA0323DE
:101210000B43D36020212068026842F00102026083
:1012200000206860697020630021A970F2BDB1FBE5
:10123000F6F1491CC1F30B0170470000A1860100C3
:1012400080841E0000093D0040420F000030FFFF77
:10125000007CFFFF90F83D10202916D1282380F84C
:101260003D3001680A68D30703D40A6842F00102DE
:101270000A6001680A6842F480620A600068416896
:1012800041F4407141600020704702207047000027
:10129000F8B5040001D10120F2BD04F13C056878E5
:1012A00020B9002129702046FFF737FC0220687022
:1012B00019272068C16821F00C01C1606FF0630636
:1012C00022681369A069E16923F47C530343206A0F
:1012D0000B43E16803430B4343F40063136122684B
:1012E0002248D368A168034020690B436169034326
:1012F0000B43D3602068416921F44071416120684B
:101300001B49884202D1FFF71BF901E0FFF710F9F2
:10131000474360688000B7FBF0F06421B0FBF1F157
:1013200006FB0106360132366420B6FBF0F04200BF
:1013300002F4F07202EB0112216800F00F00801835
:1013400088602068016921F4804101612068416959
:1013500021F02A0141612068C16841F40051C16057
:101360000020686001216970F2BD0000F3E9FFFF11
:101370000038014070B500F13C031A78012A01D110
:10138000022070BD01221A7002245C7005686E682C
:10139000AC680A6826F0700616436E6002680B4857
:1013A000824218BFB2F1804F05D0094882421CBF6B
:1013B000084DAA4204D1486824F080040443946094
:1013C000012159700020187070BD0000002C0140F0
:1013D0000004004000080040000801400008000030
:1013E000000C014000800000000C014010000000D3
:1013F00000000000000000000000000000000000ED
:10140000000801400004000000000000000000008F
:101410000008014000020000000000000000000081
:10142000000C01400001000000000000000000006E
:10143000000C01400040000000000000000000001F
:101440000008014000010000000C014008000000FD
:10145000000000000000000000000000000000008C
:10146000000000000000000000000000000000007C
:1014700000000000000000000010014000200000FB
:10148000000000000000000000000000000000005C
:10149000000000000000000030B4002512E050F809
:1014A000042BD30744BF4A44521E091F042942F8A3
:1014B000045BFAD213468C0744BF15809B1CC907F6
:1014C00048BF1D7050F8041B0029E8D130BC70479C
:1014D00010B5074979441831064C7C44163404E0B1
:1014E0000A68081D114488470146A142F8D110BD81
:1014F000580000007800000000F00FF8002801D02C
:10150000FFF7E6FFAFF300800020AFF30080AFF3FA
:101510000080FFF784FB00F002F80120704700F024
:1015200001B8000000F000F80746384600F002F865
:10153000FBE7000080B5AFF30080024A11001820DD
:10154000ABBEFBE72600020051FFFFFFEC000000EE
:10155000100000200000000043F0FFFF100000001A
:10156000800000000000002000000000FEE7FEE711
:10157000FEE7FEE7FEE770477047704700F006B8E9
:101580000148FFF7FBB80000A800002002494A68A4
:10159000087882184A607047000000204EF6A55077
:1015A000CFF6F560014603B4684680F30988AFF3CF
:1015B0000080AFF30080FFF79FFF0000704700003E
:1015C00000000000000000000102030406070809F3
:1015D0000148804701480047BD1500089D150008D7
:1015E00001000000000000001000000000127A005E
:1015F0000000000001020304FFF7FEBFFFF7FEBF7B
:10160000FFF7FEBFFFF7FEBFFFF7FEBFFFF7FEBF0E
:10161000FFF7FEBFFFF7FEBFFFF7FEBFFFF7FEBFFE
:10162000FFF7FEBFFFF7FEBFFFF7FEBFFFF7FEBFEE
:10163000FFF7FEBFFFF7FEBFFFF7FEBFFFF7FEBFDE
:10164000FFF7FEBFFFF7FEBFFFF7FEBFFFF7FEBFCE
:10165000FFF7FEBFFFF7FEBFFFF7FEBFFFF7FEBFBE
:10166000FFF7FEBFFFF7FEBFFFF7FEBFFFF7FEBFAE
:10167000FFF7FEBFFFF7FEBFFFF7FEBFFFF7FEBF9E
:10168000FFF7FEBFFFF7FEBFFFF7FEBFFFF7FEBF8E
:10169000FFF7FEBFFFF7FEBFFFF7FEBFFFF7FEBF7E
:040000050800159D3D
:00000001FF
