:020000040800F2
:1000000068070020D93B0008693900086B390008EF
:100010006D3900086F3900087139000800000000D0
:10002000000000000000000000000000733900081C
:100030007539000800000000773900087939000898
:10004000FD3B0008013C0008053C0008093C000895
:100050000D3C0008113C0008813900088B3900086C
:10006000153C0008193C00081D3C0008213C000814
:10007000253C0008293C00082D3C0008313C0008C4
:10008000353C0008393C00083D3C0008413C000874
:10009000453C0008493C00084D3C000895390008E3
:1000A000513C0008553C0008593C00085D3C0008E4
:1000B000A1390008613C0008653C0008AB39000824
:1000C000B5390008693C00086D3C0008713C000827
:1000D000753C0008793C00087D3C0008813C000824
:1000E000C9390008853C0008893C000870B5040047
:1000F000002C01D10120E1E094F83D00002805D159
:10010000002084F83C00200001F050FA242084F8FC
:100110003D002068006840084000216808602068B1
:10012000006850F40040216808602068006830F4DE
:1001300000402168086001F0AAFD0200DFF890018C
:100140006168814208D2DFF88C118A4201D2012114
:1001500000E00021C9B207E0DFF87C118A4201D239
:10016000012100E00021C9B2012901D10120A5E04F
:10017000DFF86811B2FBF1F123685B689B099B0112
:100180000B4325686B6023681B6A6568854201D252
:100190004D1C08E04FF4967505FB01F54FF47A7697
:1001A000B5FBF6F56D1C9B099B012B4325682B6263
:1001B0002368DB696568854214D2501E65686D004E
:1001C000B0FBF5F0401C0005000D042801D2042509
:1001D0003EE0501E65686D00B0FBF5F56D1C2D0509
:1001E0002D0D35E0A068002809D1551E6668032052
:1001F0004643B5FBF6F0401C0005000D0AE0551E15
:10020000666819204643B5FBF6F0401C0005000D5A
:1002100050F48040000501D1012519E0A0680028B4
:1002200009D1551E666803204643B5FBF6F56D1CE3
:100230002D052D0D0AE0551E666819204643B5FBB5
:10024000F6F56D1C2D052D0D55F4804555F4004532
:10025000DFF88C0003402B432068C36120680368EB
:1002600033F0C003E0690343206A0343206803605E
:1002700020688368DFF86C00034020690343E0686E
:100280000343206883602068C3681B0A1B02A069BF
:100290000343606903432068C3602068006850F02E
:1002A00001002368186000202064202084F83D00AD
:1002B00000202063002084F83E00002070BD01680B
:1002C0004969090602D500210268116170470000E2
:1002D000A186010080841E0000093D0040420F00FD
:1002E0000030FFFF007CFFFF38B4040094F83D00AD
:1002F00010F02800282841D1002903D0100080B236
:10030000002801D101203AE094F83C00012801D1F5
:10031000022034E0012084F83C0020680068C00717
:1003200005D42068006850F0010025682860206826
:10033000006830F4006025682860292084F83D00BA
:10034000202084F83E000020206461626285608D78
:100350002085E362002000902068406900902068BA
:10036000806900900098002084F83C002068406874
:1003700050F4E06025686860002000E0022032BC94
:10038000704738B4040094F83D0010F02800282885
:1003900041D1002903D0100080B2002801D10120F2
:1003A0003AE094F83C00012801D1022034E0012019
:1003B00084F83C0020680068C00705D42068006805
:1003C00050F00100256828602068006830F4006063
:1003D000256828602A2084F83D00202084F83E000B
:1003E0000020206461626285608D2085E3620020C8
:1003F0000090206840690090206880690090009813
:10040000002084F83C002068406850F4E0602568D3
:100410006860002000E0022032BC7047010091F8C3
:100420003D0020281AD1282081F83D000868006886
:10043000C00705D40868006850F001000A68106021
:100440000868006850F480600A68106008684068B6
:1004500050F440700A685060002000E002207047AD
:100460002DE9F0470400002520684668E76A94F803
:100470003E8094F83D904046C0B2102803D04046DC
:10048000C0B2402876D12068806905002068D0F885
:1004900014A05FEACA700CD4B7F52A0F02D0B7F1E6
:1004A0002A4F01D1012000E00020C0B2002840F016
:1004B000B8805046C00708D5B00506D5200001F029
:1004C00049F8200000F078FBABE05FEA0A7005D540
:1004D000B00503D5200000F0C8FBA2E05FEA8A70F7
:1004E00005D5B00503D5200000F0D8FB99E06807DA
:1004F00027D520684068000500F193805FEA0A6014
:1005000008D5700506D55FEA4A7003D4200000F0D4
:1005100006F986E05FEA4A7040F18380B00540F159
:1005200080804846C0B2212803D1200000F06BF93A
:1005300077E04046C0B2402873D1200000F0B5F902
:100540006FE02068406800056BD45FEA4A6008D518
:10055000700506D55FEA4A7003D4200000F012FA55
:100560005FE05FEA4A705CD5B0055AD5200000F024
:100570008AFA56E0206C002803D02068D0F814A036
:1005800005E02068806905002068D0F814A05FEAC3
:100590008A700CD5B0050AD5206C002802D02068DE
:1005A000806905002900200000F00FFD39E05FEAB6
:1005B000CA6005D5B00503D5200000F039FD30E054
:1005C0004846C0B2212803D04846C0B2292814D1D9
:1005D0005FEA0A6008D5700506D55FEA4A7003D461
:1005E000200000F088FC1CE05FEA4A7019D5B005D5
:1005F00017D5200000F0A6FC13E05FEA4A6008D59A
:10060000700506D55FEA4A7003D4200000F0A8FC0C
:1006100007E05FEA4A7004D5B00502D5200000F07B
:10062000C6FCBDE8F0872DE9F84F06003068D0F829
:1006300014903068D0F804A0002596F83EB05FEA28
:10064000C9500ED55FEACA500BD555F001057FF4AD
:100650008070316848613068006850F4004031684B
:1006600008605FEA895008D55FEACA5005D555F0A1
:1006700002057FF40070316848615FEA495038D55F
:100680005FEACA5035D58DF800B0708D040096F839
:100690003D000700306B80469DF80000202814D1F3
:1006A000002C12D13800C0B221280AD03800C0B2C4
:1006B000292806D03800C0B2282806D1B8F1210F69
:1006C00003D1300000F081FD13E07FF480603168D9
:1006D000486155F004055846C0B2102803D058466A
:1006E000C0B2402805D13068006850F4007031680D
:1006F00008605FEA095008D55FEACA5005D555F091
:1007000008057FF4006031684861002D05D0306C29
:1007100028433064300000F0ADFDBDE8F18FF8B53E
:10072000040094F83D5094F83E60E76A208D00285C
:1007300040D12800C0B221283CD1082F17D0202F4B
:1007400015D0DFF8C80C874211D02068406830F41B
:10075000E0602168486011202063002084F83E009A
:10076000202084F83D00200001F0E0FA4AE02068F3
:10077000406830F4E060216848602068006850F408
:1007800000702168086000202063202084F83D006C
:1007900094F83E00402806D1002084F83E00200056
:1007A00001F0C5FA2EE0002084F83E00200001F0A0
:1007B000BDFA27E02800C0B2212807D03000C0B21F
:1007C00040281FD12800C0B222281BD1608D0028EC
:1007D00006D12068406830F480602168486011E0EC
:1007E00094F83E00402803D1200000F05EF809E0B4
:1007F000606A007821680861606A401C6062608DF0
:10080000401E6085F1BD38B50400E56A94F83D00EE
:10081000212849D1608D00280AD0606A00782168BB
:100820000861606A401C6062608D401E60853BE02C
:10083000082D17D0202D15D0DFF8D00B854211D010
:100840002068406830F4E06021684860112020632F
:10085000002084F83E00202084F83D00200001F0B4
:1008600065FA21E02068406830F4E0602168486063
:100870002068006850F40070216808600020206340
:10088000202084F83D0094F83E00402806D1002046
:1008900084F83E00200001F04AFA05E0002084F8C8
:1008A0003E00200001F042FA31BD38B5040094F852
:1008B0003D50206D002814D1E06C012807D1A06CB8
:1008C000C0B221680861206D801C206559E0A06CD1
:1008D00080B2000AC0B221680861206D401C20650A
:1008E0004FE0206D012807D1A06CC0B221680861DB
:1008F000206D401C206544E0206D02283ED1280078
:10090000C0B2222809D12068006850F480702168A4
:100910000860206D401C206533E0608D00280ED0FB
:100920002800C0B221280AD1606A007821680861D5
:10093000606A401C6062608D401E608521E0608DB1
:1009400000281ED12800C0B221281AD12068406892
:1009500030F4E060216848602068006850F400705E
:100960002168086000202063202084F83D000020DA
:1009700084F83E00200001F0DAF902E02000FFF7E1
:100980009EFC31BD70B5050095F83D00222879D157
:10099000EE6A6C8D042C13D328680069696A0870AC
:1009A000686A401C6862688D401E6885688D0328EF
:1009B00068D12868406830F480602968486061E048
:1009C000E86A022858D0012C01D0002C54D128000C
:1009D00000F099FD002835D12868006830F4806067
:1009E000296808602868406830F4E0602968486039
:1009F00028680069696A0870686A401C6862688DC6
:100A0000401E6885202085F83D0095F83E0040286E
:100A100008D1002085F83E0000202863280001F05E
:100A200087F92FE0002085F83E00082E01D0202E07
:100A300002D10020286301E012202863280001F081
:100A400078F91FE02868406830F4E0602968486061
:100A500028680069696A0870686A401C6862688D65
:100A6000401E6885202085F83D00002085F83E0066
:100A7000280001F097FC05E02868406830F48060A9
:100A80002968486070BD38B50400E56A608D0428A7
:100A900010D12068406830F4806021684860206888
:100AA0000069616A0870606A401C6062608D401E67
:100AB000608580E0608D03281AD12068406830F49A
:100AC000806021684860042D07D0022D05D0206881
:100AD000006830F480602168086020680069616AFD
:100AE0000870606A401C6062608D401E608562E034
:100AF000608D022855D1012D01D0102D06D120681E
:100B0000006830F480602168086010E0042D01D096
:100B1000022D06D12068006850F4806021680860CA
:100B200005E02068006850F40070216808602068C3
:100B30000069616A0870606A401C6062608D401ED6
:100B4000608520680069616A0870606A401C6062A4
:100B5000608D401E60852068406830F440702168D8
:100B60004860202084F83D0094F83E00402808D1D9
:100B7000002084F83E0000202063200001F0D8F817
:100B800019E0002084F83E00082D01D0202D02D16C
:100B90000020206301E012202063200001F0C9F84A
:100BA00009E020680069616A0870606A401C606240
:100BB000608D401E608531BD90F83E1040290FD1F8
:100BC000016D002905D1416C11F0FE01026811612F
:100BD0004AE0416C51F00101C9B20268116143E081
:100BE0000169B1F5804F24D190F83D10212905D13C
:100BF000416C11F0FE010268116105E0416C51F099
:100C00000101C9B202681161416B002903D0416B37
:100C1000896A002906D1816B002925D0816B896AF8
:100C2000002921D00168496851F4006102685160CF
:100C30001AE0016D00290AD1416C89B2C90911F08D
:100C4000060151F0F001C9B2026811610CE0016DBA
:100C5000012909D1416C89B2C90911F0060151F08D
:100C6000F101C9B2026811617047416CC9B20268F2
:100C70001161416B002903D0416B896A002906D1BB
:100C8000816B002909D0816B896A002905D0016830
:100C9000496851F4006102685160704738B490F8B7
:100CA0003E20C36A046B90F83D10222940F0178162
:100CB000016D00290DD11100C9B2402909D10021CF
:100CC0000091016849690091016889690091009962
:100CD0000EE1016D002916D10169B1F5404F12D125
:100CE00000210091016849690091016889690091BA
:100CF00000990168096851F4807105682960016DE7
:100D0000491C0165F4E0418D00290FD100210091BB
:100D10000168496900910168896900910099016839
:100D2000096851F4007105682960D5E0418D0129F9
:100D300068D1DFF8D8168B4229D10168096831F4EF
:100D40008061056829600168496809050FD5016857
:100D5000096831F48061056829600021009101680B
:100D6000496900910168896900910099B4E0002106
:100D700000910168496900910168896900910099B1
:100D80000168096851F4007105682960A4E0082B26
:100D900022D0202B20D0122C01D1012B1CD1042BCE
:100DA0000AD0022B08D0102B06D00168096831F454
:100DB00080610568296005E00168096851F4806177
:100DC0000568296000210091016849690091016866
:100DD0008969009100997FE00168096831F48061B8
:100DE0000568296000210091016849690091016846
:100DF0008969009100990168096851F400710568DA
:100E0000296069E0418D022941D1042B19D0022BC0
:100E100017D0102B15D00168096851F400610568DE
:100E20002960002100910168496900910168896980
:100E3000009100990168096831F4806105682960B2
:100E40000EE00168096851F480610568296000219D
:100E500000910168496900910168896900910099D0
:100E600001684968090537D5DFF8A0158B4207D01E
:100E7000012B05D0082B03D0102B01D0202B2BD118
:100E80000168496851F480510568696024E001688F
:100E9000096851F48061056829600168496809059D
:100EA00011D5DFF868158B4207D0012B05D0082B30
:100EB00003D0102B01D0202B05D10168496851F4D3
:100EC00080510568696000210091016849690091BD
:100ED00001688969009100990021016508E00021FD
:100EE0000091016849690091016889690091009940
:100EF00031BC7047000038B5040094F83D50608D57
:100F000000281ED0606A007821680861606A401C71
:100F10006062608D401E6085608D002811D12800C0
:100F2000C0B229280DD12068406830F48060216863
:100F3000486021202063282084F83D00200001F033
:100F4000D9FA31BD418D002909D0416A097802687A
:100F50001161416A491C4162418D491E41857047BA
:100F600038B5040094F83D50608D00281ED02068EC
:100F70000069616A0870606A401C6062608D401E92
:100F80006085608D002811D12800C0B22A280DD1BB
:100F90002068406830F48060216848602220206327
:100FA000282084F83D00200001F0CFF931BD418DAB
:100FB000002909D001680969426A1170416A491C17
:100FC0004162418D491E41857047F8B504000D000E
:100FD000002694F83D0010F0280028281BD1206836
:100FE000406830F4806021684860680701D40120BF
:100FF0000600280602D4E068070001E0A0690700A7
:10100000002084F83C003A0092B23100C9B22000BE
:1010100001F04DF90BE0002000902068406900903D
:101020002068806900900098002084F83C00F1BDA1
:1010300038B5040094F83D502068406830F4E06012
:101040002168486000200090206840690090206876
:10105000006850F00100216808600098206800686E
:1010600030F48060216808602068406800054ED533
:101070002800C0B2222803D02800C0B22A2823D1D9
:10108000A06B006840686085608D002803D0206CEC
:1010900050F0040020642068406830F4006021684B
:1010A0004860A06B01F0A4FA012830D00FF2613043
:1010B000A16B4863A06B01F033FA002827D0A06B26
:1010C000A16B496B884722E0606B006840686085CF
:1010D000608D002803D0206C50F00400206420684C
:1010E000406830F4006021684860606B01F080FA6D
:1010F00001280CD00FF21930616B4863606B01F06E
:101100000FFA002803D0606B616B496B8847608DD4
:10111000002822D020684069400709D5206800696E
:10112000616A0870606A401C6062608D401E608564
:1011300020684069400609D520680069616A087026
:10114000606A401C6062608D401E6085608D002872
:1011500003D0206C50F004002064206C002803D0E1
:10116000200000F087F82FE02800C0B22A2807D11D
:1011700000202063282084F83D00200001F0E5F8DD
:1011800094F83D0028280DD1A048E062002020639B
:10119000202084F83D00002084F83E00200001F06B
:1011A000F7F811E0206B222803D02800C0B22228D3
:1011B0000AD100202063202084F83D00002084F81C
:1011C0003E00200001F0C1F831BD70B5040094F874
:1011D0003D50E66A082E01D0202E21D12800C0B251
:1011E00028281DD18948E0622068406830F4E0601A
:1011F000216848607FF48060216848612068006849
:1012000030F480602168086000202063202084F88A
:101210003D00002084F83E00200001F0B9F828E0ED
:101220002800C0B2212820D17848E0622120206324
:10123000202084F83D00002084F83E0020684068AB
:1012400030F4E060216848607FF480602168486184
:101250002068006830F48060216808602000FFF793
:101260002EF8200001F046F903E07FF48060216849
:10127000486170BD2DE9F041040094F83D5094F8A8
:101280003E804046C0B2102803D04046C0B240283D
:1012900009D12800C0B2222805D12068006830F4A6
:1012A0000060216808602800C0B210F028002828DB
:1012B00005D100202063282084F83D000FE020683D
:1012C0004068000509D42800C0B2602805D020205D
:1012D00084F83D00002084F83E0000202063206850
:1012E0004068000543D52068406830F400602168FC
:1012F0004860606B90F82100012816D00FF21110A1
:10130000616B4863606B01F00BF900285BD02068CB
:1013100000684008400021680860202084F83D00F3
:10132000606B616B496B88474DE00FF2E500A16B84
:101330004863A06B01F0F4F8002844D020684069AD
:10134000400606D520680069616A0870606A401C22
:101350006062206800684008400021680860202022
:1013600084F83D00A06BA16B496B88472BE094F893
:101370003D00602819D1202084F83D000020206421
:1013800020684069400606D520680069616A0870D7
:10139000606A401C60622068006840084000216864
:1013A0000860200001F027F90DE020684069400640
:1013B00006D520680069616A0870606A401C606236
:1013C000200000F0EFFF276C17F00F0F05D020680A
:1013D000406830F4E0602168486094F83D60206C1B
:1013E000400710D53000C0B228280CD10748E06271
:1013F00000202063202084F83D00002084F83E0077
:10140000200000F0C5FFBDE8F08100000000FFFFF4
:101410007CB5040000200090656A95F83D60DFF817
:10142000300100681921B0FBF1F04FF47A71B0FB84
:10143000F1F12320414300910098002804D1286C49
:1014400050F02000286406E00098401E00902868B4
:1014500000688005F0D4686B002802D00020696B1A
:101460008862A86B002802D00020A96B88622868D7
:10147000006830F480602968086000206885686B27
:10148000002802D00020696B4863A86B002802D0B6
:101490000020A96B4863286800684008400029685C
:1014A000086095F83D0060280BD1202085F83D00AC
:1014B000002085F83E0000202864280001F09BF8F9
:1014C00020E03000C0B210F02800282811D1286890
:1014D000006850F00100296808602868006850F42E
:1014E00080602968086000202863282085F83D0076
:1014F00005E0202085F83D00002085F83E0028000A
:1015000000F050FF73BD81B0010000200090104832
:1015100000681922B0FBF2F04FF47A72B0FBF2F2DD
:101520000520424300920098401E00900098002839
:1015300005D1086C50F020000864012004E0086820
:1015400000688005EFD4002001B070470000000063
:1015500004000020C16AB1F52A0F02D10121C16245
:1015600005E0C16AB1F12A4F01D10821C16270477B
:1015700081B05448016851F001010160006810F029
:101580000100009000985048016851F080510160BE
:10159000006810F08050009000984C49086830F0C6
:1015A000E06050F00070086001B0704718B585B079
:1015B00004001021002201A801F01EF8206844490F
:1015C00088422DD13F48016851F008010160006850
:1015D00010F0080000900098C020019012200290A6
:1015E0000320049001A93B4801F03AF8364801680D
:1015F00051F400110160006810F400100090009890
:10160000002200211F2001F0FCF91F2001F00EFA3A
:1016100000220021202001F0F4F9202001F006FA38
:1016200006B010BD1CB504002068B0F1804F11D188
:101630002548016851F001010160006810F00100C7
:1016400000900098002200211C2001F0DAF91C20F3
:1016500001F0ECF913BD30B585B004001021002273
:10166000684600F0C9FF20681B49884228D1164807
:10167000016851F400310160006810F400300490FA
:1016800004981048016851F004010160006810F0EE
:10169000040004900498142000900220019003207C
:1016A00003900E4D6946280000F0DAFF08200090F4
:1016B00000200190002002906946280000F0D0FF31
:1016C00005B030BD181002401C100240040001405B
:1016D00000540040000C014000440040000801405C
:1016E0002DE9FC470400002C01D10120F6E120780F
:1016F000C0076BD5DFF8EC05016811F00C01042977
:1017000007D0016811F00C0108290CD10068C00352
:1017100009D5DFF8CC050068800357D5606800283C
:1017200054D10120DAE16068B0F5803F06D1DFF8DE
:10173000B005016851F48031016026E0606800283E
:101740000AD1DFF89C05016831F48031016001683D
:1017500031F48021016018E06068B0F5A02F0AD153
:10176000DFF87C05016851F480210160016851F4C3
:101770008031016009E0DFF86805016831F48031EB
:101780000160016831F480210160606800280ED09A
:1017900001F06AF90500DFF848050068800315D4F8
:1017A00001F062F9401B6528F5D3032096E101F0B2
:1017B0005BF90500DFF828050068800306D501F015
:1017C00053F9401B6528F5D3032087E12078800773
:1017D00050D5DFF81005016811F00C0F07D0016833
:1017E00011F00C01082914D10068C00311D4DFF8EE
:1017F000F0040168890704D52169012901D001207D
:101800006CE1016831F0F801626951EAC2010160DE
:1018100030E0206900281AD00120DFF8DC140860CD
:1018200001F022F90500DFF8B8040168890706D441
:1018300001F01AF9401B0328F5D303204EE101689B
:1018400031F0F801626951EAC201016012E0002042
:10185000DFF8A414086001F007F90500DFF8800440
:101860000068800706D501F0FFF8401B0328F5D378
:10187000032033E1207800072CD5A069002816D07A
:101880000120DFF87814086001F0EEF80500DFF8B9
:1018900064040068800706D401F0E6F8401B0328C2
:1018A000F5D303201AE1012000F007FA12E000202E
:1018B000DFF84814086001F0D7F80500DFF83404B9
:1018C0000068800706D501F0CFF8401B0328F5D348
:1018D000032003E12078400740F18E800027DFF8E5
:1018E0002084D8F80000C0000DD4D8F8000050F0D3
:1018F0008050C8F80000D8F8000010F08050009028
:10190000009801200700DFF8FC93D9F80000C0051B
:1019100013D4D9F8000050F48070C9F8000001F029
:10192000A3F80500D9F80000C00506D401F09CF822
:10193000401B6528F6D30320D0E0E068012806D1DB
:10194000DFF8C403016851F00101016025E0E0689F
:1019500000280AD1DFF8B003016849084900016096
:10196000016831F00401016017E0E06805280AD140
:10197000DFF89403016851F004010160016851F03F
:101980000101016009E0DFF88003016849084900AE
:101990000160016831F004010160E068002810D0A6
:1019A00001F062F80500DFF860030068800719D4D1
:1019B00001F05AF8401B41F289318842F3D30320E9
:1019C0008CE001F051F80500DFF83C030068800767
:1019D00008D501F049F8401B41F289318842F3D320
:1019E00003207BE03800C0B2012805D1D8F8000000
:1019F00030F08050C8F80000E06900286DD0DFF8B2
:101A0000E482D8F8000010F00C00082851D0E069FA
:101A100002283BD1DFF8F4A20020CAF8000001F050
:101A200023F80700DFF8B892D9F80000800106D546
:101A300001F01AF8C01B0328F4D303204EE0206AFB
:101A4000B0F5803F07D1D8F8001031F40031A0681C
:101A50000143C8F80010D8F8001031F47411206A5E
:101A60000143606A0143C8F800100120CAF8000071
:101A700000F0FAFF0500D9F8000080012DD400F035
:101A8000F3FF401B0328F6D3032027E00020DFF8F4
:101A90007C12086000F0E8FF0500DFF844020068EF
:101AA00080011AD500F0E0FF401B0328F5D3032086
:101AB00014E0E069012801D101200FE0D8F800000E
:101AC000060016F48030216A884204D116F47010A2
:101AD000616A884201D0012000E00020BDE8F6875D
:101AE0002DE9F04104000D00002C01D101209BE004
:101AF000DFF81C72386810F00700A8420BD2386873
:101B0000C008C00028433860386810F00700A842B9
:101B100001D0012088E02078800716D52078400782
:101B200004D57048016851F4E06101602078000735
:101B300004D56C48016851F46051016069490A6834
:101B400032F0F002A06802430A602078C00735D561
:101B50006068012805D162480068800310D4012024
:101B600062E06068022805D15D480068800107D402
:101B7000012059E05A480068800701D4012053E051
:101B8000DFF86081D8F80010890889006068014397
:101B9000C8F8001000F068FF0600D8F8000010F048
:101BA0000C006168B0EB810F08D000F05DFF801B76
:101BB00041F289318842F0D3032035E0386810F0D3
:101BC000070085420BD23868C008C000284338603F
:101BD000386810F00700A84201D0012024E02078E6
:101BE000400706D53F490A6832F4E062E0680243E4
:101BF0000A602078000707D53A48016831F460513F
:101C0000226951EAC201016000F010F84149354AE9
:101C10001268C2F30312895CC84034490860344832
:101C2000006800F027FF0020BDE8F081F0B400203C
:101C300000220023002400252A4E316811F00C07F1
:101C4000042F02D0082F02D01BE033481AE033489B
:101C5000C1F38347C05D0400C8030CD53048366823
:101C6000C6F34046805D02002B4800FB04F0B0FB49
:101C7000F2F0030003E02B4800FB04F0030018001F
:101C800000E01948F0BC704718480068704780B5FC
:101C9000FFF7FAFF2449134A1268C2F30222895C53
:101CA000C84002BD80B5FFF7EFFF1F490D4A12681B
:101CB000C2F3C222895CC84002BD81B00B490968E9
:101CC000C9084FF47A72B1FBF2F101FB00F1009107
:101CD00000BF00994A1E00920029F9D101B0704757
:101CE000001002400410024000127A00040000209C
:101CF00000000020241002400000424280044242C2
:101D00001C1002400070004020100240600042425F
:101D100000200240C83B0008001BB700B83B000889
:101D20003639000800093D00F43B00087047704751
:101D30007047704770B504000D0016002800C0B24F
:101D400054F8300000280CD03200D2B22800C0B2C3
:101D500004EBC00081882800C0B254F8300000F0C5
:101D600099FD70BD2DE9F843040014F0010725002A
:101D70003800C0B2012801D115F00105DFF8F46682
:101D8000308885435FF000084046C0B210281BD25F
:101D90000121308811FA08F2104212D111FA08F12B
:101DA000280080B2084202D05FF0010901E05FF034
:101DB00000094A46D2B24146C9B2DFF8BC06FFF775
:101DC000B9FF18F10108DFE7DFF8B0060580BDE8CC
:101DD000F18370B5040000252800C0B2082812D293
:101DE0000121A9402000C0B2084201D0012600E034
:101DF00000263200D2B22900C9B2DFF88406FFF70C
:101E000099FF6D1CE8E7DFF87C06047070BD70B5C3
:101E100004002000C0B2422824D10025DFF8546617
:101E2000308880050CD54FF48071DFF85C0600F037
:101E300026FD012802D14FF4007000E00020054388
:101E4000DFF838160A8830888243308828400243F9
:101E50000A80DFF838060A880270098889B2090A00
:101E6000417009E02000C0B2402805D1DFF8140617
:101E70000078DFF81816087070BD10B50400220055
:101E8000D2B22021DFF8000600F004FD10BD80B5BD
:101E9000DFF8FC150878002804D000200870012025
:101EA000FFF7EBFF01BD10B500F00AFE00F02FF8C0
:101EB00000F0DDF800F062F800F0BBF800F07DF80B
:101EC000DFF8D405FEF7AAFA0020FFF74BFF002049
:101ED000FFF77FFFDFF8C4454FF48071DFF8A805F6
:101EE00000F0CDFC20702078DFF8B41508700020D9
:101EF000DFF89C1508700120FFF7BFFF00F0F2FD2E
:101F0000DFF8A00501F0C7F800F0C2FEFCE700B55D
:101F10008FB02821002205A800F06EFB14210022BA
:101F2000684600F069FB012005905FF48030069060
:101F3000002107910121099102210C910D905FF47C
:101F400080100E9005A8FFF7CBFB002801D000F011
:101F5000CFFA0F20009002200190002002904FF451
:101F6000806003900020049002216846FFF7B8FDCE
:101F7000002801D000F0BCFA0FB000BD80B5DFF83A
:101F80001805DFF824150160DFF8201541600021F5
:101F900081600021C1604FF48041016100214161F5
:101FA000002181610021C16100210162FEF79EF8DC
:101FB000002801D000F09CFA01BD10B586B01021B8
:101FC000002202A800F018FB08210022684600F059
:101FD00013FBDFF8D0445FF08040206041F61F40E3
:101FE00060600020A0601320E060002020610020DD
:101FF000A061200001F018F8002801D000F078FA64
:102000004FF48050029002A9200001F022F900282C
:1020100001D000F06DFA0020009000200190694688
:10202000200001F009FA002801D000F061FA06B0A2
:1020300010BD80B5DFF87804DFF8781401605FF434
:10204000E1314160002181600021C1600021016116
:102050000C214161002181610021C16100210162E7
:1020600001F02AFA002801D000F042FA01BD2DE962
:10207000F84185B010210022684600F0BDFADFF873
:102080003804016851F010010160016811F010017D
:1020900004910499016851F020010160016811F078
:1020A000200104910499016851F004010160016864
:1020B00011F0040104910499016851F008010160D4
:1020C000006810F0080004900498DFF8F083002204
:1020D0004FF40051404600F0DDFBDFF8E4430022FE
:1020E0004FF40861200000F0D5FBDFF89C5300227C
:1020F0002421280000F0CEFB01224CF21801280018
:1021000000F0C8FB00224FF40071280000F0C2FB71
:1021100001224FF4E061200000F0BCFB4FF40050BE
:102120000090012001900020029002200390694657
:10213000404600F095FA4FF400460096DFF88473AD
:102140000197002002906946404600F089FA8020FD
:102150000090012001900020029002200390694627
:10216000200000F07DFA03200090DFF828030190A2
:10217000002002906946280000F072FA04200090C6
:10218000012001900120029002200390694628005E
:1021900000F066FA4FF4645000900197002002901E
:1021A0006946280000F05CFA4CF2082000900120FB
:1021B000019002200290022003906946280000F05E
:1021C0004FFA4FF4E060009001200190022002904D
:1021D000022003906946200000F042FA4FF40060AC
:1021E0000090012001900120029002200390694696
:1021F000200000F035FA00960020019001200290A6
:102200006946200000F02CFA302000900120019057
:1022100000200290022003906946280000F020FA76
:1022200000220021062000F0ECFB062000F0FEFB5F
:1022300000220021072000F0E4FB072000F0F6FB5D
:1022400000220021172000F0DCFB172000F0EEFB3D
:1022500000220021282000F0D4FB282000F0E6FB1B
:1022600006B0BDE8F08138B504002068B0F1804FB9
:102270001CD1954D2878002816D19449087800285B
:1022800012D193480268521C0260006841F2883201
:10229000904209D30120087001224FF400717A485E
:1022A00000F0F8FA0120287000F05BFC31BDF8B5B1
:1022B00004000D00160020687B49884244D1854FF8
:1022C0003E703878422801D1FFF7E1FD2800C0B206
:1022D00000281AD13878FFF79AFD3878422806D1BD
:1022E0000823022269492000FDF7FEFF2CE0387820
:1022F000402806D10823012264492000FDF7F4FF9D
:1023000022E02000FEF78AF81EE0387842280AD141
:102310007148022101700823027892B26F492000AF
:10232000FEF72FF810E0387840280AD16A480121DA
:1023300001700823027892B268492000FEF721F864
:1023400002E02000FEF76AF8F1BD38B5040020680D
:10235000554988421BD15F48017842290DD15F4819
:1023600005785D490978022902D3407855EA0025AD
:10237000280080B2FFF7F6FC06E00078402803D181
:1023800056480078FFF725FD2000FEF747F831BDDD
:1023900010B5040020684449884202D12000FEF7AD
:1023A0003DF810BD10B5040020683F49884202D1B5
:1023B0002000FEF733F810BD70B50400200080B295
:1023C000B0F5004F07D14FF400413C4800F057FAF8
:1023D000434908704CE0200080B2B0F5006F07D18F
:1023E0004FF40061284800F04AFA3E4908703FE087
:1023F000200080B2012806D10121234800F03FFAD5
:102400003949087034E0200080B2022806D1022148
:102410001D4800F034FA3549087029E0200080B2E8
:10242000B0F5807F24D14FF48071174800F027FA6F
:1024300005001A4E28003178C0B2884218D01449DD
:102440000878002808D13078154A107001200870EB
:102450000020FFF712FD0AE02800114A1278C0B2EE
:10246000904204D1002008700120FFF706FD35706E
:1024700070BD00005E260008043A000858030020E2
:10248000843A00085A030020000C01405603002043
:102490005E030020000011106C0200205C0300208D
:1024A0005D030020C002002000540040A08601000F
:1024B00008030020004400401810024000100140B2
:1024C0000008014000003110650300206403002073
:1024D0004C0300205B030020630300205403002012
:1024E0005F030020600300206103002062030020DE
:1024F00072B6FEE770470EE0026843680244083097
:102500005FEAC37C44BF4B445B1E52F804CB43F8E4
:1025100004CB091FF9D150F8041B0029ECD17047F6
:1025200038B50400002594F82100022804D00420C6
:10253000A063012005004AE02068006830F00E002A
:102540002168086020680068400840002168086031
:102550002068DFF88010884201D1012028E020683F
:10256000DFF87410884201D1102021E02068DFF8E4
:102570006C10884202D14FF4807019E02068DFF8B7
:102580006010884202D14FF4805011E02068DFF8DB
:102590005410884202D15FF4803009E02068DFF8EF
:1025A0004810884202D15FF4801001E05FF0807033
:1025B000DFF838100860012084F82100002084F83A
:1025C0002000606B002802D02000616B8847280043
:1025D000C0B232BD080002401C0002403000024080
:1025E00044000240580002406C00024004000240D7
:1025F00090F821007047704762F30F2262F31F4288
:10260000401810F0030308D0C91A1FD3DB0748BFD6
:1026100000F8012D28BF20F8022D130030B4144615
:102620001546103928BF20E93C00FAD8490728BFD1
:1026300020E90C0048BF40F8042D890028BF20F88D
:10264000022D48BF00F8012D30BC7047C91818BFD3
:1026500000F8012DCB0728BF00F8012D70470002BC
:102660002DE9F84703005FF0000E5FF000080868EE
:1026700030FA0EF0002800F00081012010FA0EF070
:102680000400086820400500A54240F0F380486837
:10269000002831D0012820D0022825D003283CD0A2
:1026A00011281DD0122823D0DFF824C2604523D082
:1026B000DFF820C260451FD0DFF81CC260451BD088
:1026C000DFF818C2604517D0DFF814C2604513D098
:1026D000DFF810C260450FD022E0C86880461FE0D6
:1026E000C868001D80461BE0C8680830804617E0B7
:1026F000C8680C30804613E08868002802D10420A6
:10270000804609E08868012803D1082080461C61C2
:1027100002E0082080465C6102E000208046FFE77E
:10272000B5F5807F01D21E0000E01E1DB5F5807F4B
:1027300002D25FEA8E0702E0BEF10807BF005FF039
:102740000F09D6F800C019FA07F03CEA000C18FA95
:1027500007F050EA0C0CC6F800C04868C00040F111
:1027600089806148D0F800C05CF0010CC0F800C05E
:10277000006810F0010000900098DFF870A170462A
:1027800080085AF820C01EF00300C0B2800019FA79
:1027900000F93CEA090C5648834202D15FF0000977
:1027A00013E05448834202D15FF001090DE0524822
:1027B000834202D15FF0020907E05048834202D110
:1027C0005FF0030901E05FF004091EF00300C0B2EE
:1027D000800019FA00F9624659EA02027046800840
:1027E0004AF820204868C00207D54548D0F800C004
:1027F00055EA0C0CC0F800C006E04148D0F800C013
:102800003CEA050CC0F800C04868800207D53D4886
:10281000D0F800C055EA0C0CC0F800C006E03948FA
:10282000D0F800C03CEA050CC0F800C0486880033E
:1028300007D53548D0F800C055EA0C0CC0F800C0E8
:1028400006E03148D0F800C03CEA050CC0F800C0F2
:102850004868C00307D52D48D0F800C055EA0C0CD5
:10286000C0F800C006E02948D0F800C03CEA050CDA
:10287000C0F800C01EF1010EF9E6BDE8F1870200C4
:1028800090680B009BB2184201D0012000E00020AC
:10289000C0B270471300DBB2002B03D00B009BB219
:1028A000036103E00B009BB21B040361704710B58A
:1028B000040017480168220092B2114206D021009C
:1028C00089B20160200080B2FFF776FD10BD0000E4
:1028D0000000111000001210000021100000221052
:1028E00000003110000032101810024008000140B2
:1028F00000080140000C014000100140001401409C
:10290000080401400C04014004040140000401409B
:102910001404014010B410F007034B4C22684FF62A
:10292000FF010A4052EA032248490A43226010BCD0
:10293000704745480068C0F302207047010049B263
:10294000002909D4012210F01F018A4040490300E8
:102950005BB25B0941F82320704710B4020052B209
:10296000002A05D40A013B4B040064B21A5508E062
:102970000A01394B040064B214F00F04234403F835
:10298000042C10BC704770B4030013F00704D4F19A
:102990000700052801D3042001E0D4F10700251D1C
:1029A000072D01D2002500E0E51E012616FA00F0F1
:1029B000401E0140A94016FA05F56D1E2A4011433C
:1029C000080070BC704710B50400601EB0F1807F35
:1029D00001D301200EE0601E204908600F215FF046
:1029E000FF30FFF7BAFF00201D49086007201D498E
:1029F0000860002010BD10B504002000FFF78AFF1A
:102A000010BD2DE9F04104000D0016000027FFF76E
:102A100090FF8046320029004046FFF7B4FF0100D6
:102A2000200040B2FFF799FFBDE8F08110B5040027
:102A3000200040B2FFF782FF10BD10B50400200057
:102A4000FFF7C1FF10BD00000CED00E00000FA052B
:102A500000E100E000E400E018ED00E014E000E038
:102A600018E000E010E000E001480068704700BF97
:102A70005003002010B504004FF47A700D49097816
:102A8000B0FBF1F00C490968B1FBF0F0FFF7D5FF9E
:102A9000002801D001200CE0102C09D200222100D6
:102AA0005FF0FF30FFF7ADFF04480460002000E056
:102AB000012010BD080000200400002000000020BC
:102AC00080B50748016851F0100101600320FFF74D
:102AD00092FF0F20FFF7CEFFFEF74AFD002002BD58
:102AE000002002402DE9F8434FF4FC740025DFF884
:102AF000286537002A0021003800FFF77DFD642794
:102B00005FF00008DFF81495424639004846FFF7A9
:102B100073FD01221021DFF80805FFF7BBFE40F628
:102B2000C410706001203070BDE8F183F8B5002258
:102B30001021DFF8EC04FFF7ADFEDFF8DC442020C5
:102B4000606000200021C4E90201E825002614F19C
:102B50001007320029003800FFF74EFD04202070D6
:102B6000F1BD2DE9F84F4FF40041DFF8B804FFF74D
:102B700086FE81464846C0B2012801D1002400E00B
:102B80000124DFF894542878012808D003280FD0B6
:102B9000042816D0052825D006282CD076E06868B1
:102BA000401E68606868012801DA022028706DE024
:102BB0006868401E68606868012801DA0220287091
:102BC00064E06868401E68606868012809DA0122CC
:102BD0001021DFF84C04FFF75DFE3B206860052004
:102BE000287053E06868401E68606868012801DA50
:102BF000062028704AE0D5E902014022002300F0B7
:102C00004FFD8046D5E902014022002300F048FD37
:102C10000092012600272000C0B2002811D005EB49
:102C2000C800D0E904AB30003900009A00F072FE11
:102C300052465B461043194305EBC802C2E9040142
:102C400012E005EBC800D0E904AB30003900009A6F
:102C500000F060FE52465B4632EA000033EA0101B2
:102C600005EBC802C2E90401D5E90201401C71F17B
:102C7000FF31C5E90201D5E90201002905DB02DCCB
:102C8000B0F5E06F01D307202870FFE7BDE8F18FB2
:102C900010B5DFF884432078022802D1FFF746FF01
:102CA00014E02078072807D100F09FF80320207057
:102CB00040F6C410606009E02078082806D100F0D2
:102CC00071F80320207040F6C410606010BD2DE93B
:102CD000F84F88B080463020049001240025200061
:102CE0002900049A00F016FE401E71F10001CDE9A2
:102CF0000601B8F1000F0BD5C74AD2E90401D8F19B
:102D0000000200F007FEDDE906231040194046E00E
:102D1000402098FBF0FB5FF0400998FBF9F009FBBD
:102D20001089D9F14000029004990298091A039180
:102D3000DFF8E4A20AEBCB02D2E904014A4600F034
:102D4000FBFD06000F0020002900029A00F0E2FDC2
:102D5000401E71F1000132003B0012EA000613EA46
:102D600001070398012816DB0AEBCB02D2E9060122
:102D7000CDE9000120002900039A00F0CBFD401EA0
:102D800071F10001DDE9002310401940029A00F0C2
:102D9000C1FD06430F43DDE906013040394009B06B
:102DA000BDE8F08F2DE9F04733240025DFF8688275
:102DB00018F1F8062A0021003000FFF71DFCCC2690
:102DC000002708F22B183A0031004046FFF714FCA8
:102DD0005FF064085FF00009DFF840A24A46414610
:102DE0005046FFF709FCBDE8F0872DE9F84F86B0A3
:102DF000894ED6E90401CDE90401002704200190A1
:102E00005FF0FF38CDF80080032F31D2CDF800807D
:102E1000019C0025002D0FD801D3302C0CD2DDE908
:102E20000401220000F088FDC00701D5009403E0F2
:102E3000641C75F1FF35EDE70098002805D5FFF714
:102E4000B1FF082030700120E2E000200700009C64
:102E5000202C09DADDE90401220000F06DFDC00735
:102E600002D57F1C641CF3E7009838180190CBE76B
:102E70001C2F08D30198202805D1FFF793FF0820C5
:102E800030700120C4E00098143003905FF0000817
:102E9000B8F1330F80F0A280039810EB4810FFF7D1
:102EA00016FF04000D005FF010095FF0000A002615
:102EB000B9F1010BBBF1000F0AD4200029005A46DA
:102EC00000F03AFDC00703D5761CBBF1010BF1E71A
:102ED000514800EB880080F82B615FF0000BB9F1DE
:102EE000180F0BD2200029004A4600F025FDC0072C
:102EF00001D51BF1010B19F10109F0E7464800EB80
:102F0000880080F82CB10026B9F1200F0AD22000E9
:102F100029004A4600F010FDC00700D5761C19F1C3
:102F20000109F1E73C4800EB880080F82D615FF073
:102F3000000B30200290029881450BD2200029001E
:102F40004A4600F0F9FCC00704D51BF1010B19F14A
:102F50000109F0E7304E06EB880080F82EB106EB51
:102F6000880090F82C0106EB880191F82D110918C2
:102F700006EB880090F82B0100280DD106EB8800A5
:102F800090F82E01411806EB880090F82E011028C9
:102F900015D35AF0040A12E006EB880090F82E01CF
:102FA00000280CD106EB880090F82B01411806EBA5
:102FB000880090F82B01102801D35AF0040A062942
:102FC00001D35AF0010A0C2901D35AF0020A06EB88
:102FD000080080F8F8A018F1010859E7012033280B
:102FE00015D2411E49000D4A06EB000393F8F83054
:102FF00013F00103535406EB000393F8F830DBB2EF
:103000005B0813F0010311444B70401CE7E70120FB
:1030100007B0BDE8F08F000010000020080200207B
:10302000000C01400008014010B50400002C01D143
:1030300001202FE094F83D00002805D1002084F8FD
:103040003C002000FEF7EEFA022084F83D00211D2E
:10305000206800F078F9012084F84600012084F807
:103060003E00012084F83F00012084F84000012048
:1030700084F84100012084F84200012084F84300D4
:10308000012084F84400012084F84500012084F8E0
:103090003D00002010BD010091F83D00012801D045
:1030A000012030E0022081F83D000868C06850F03F
:1030B00001000B68D8600868DFF84C3098420DD0EA
:1030C0000868B0F1804F09D00868DFF840309842B6
:1030D00004D00868DFF8383098420DD1086880685D
:1030E00010F007000200062A0CD00868006850F0B3
:1030F00001000B68186005E00868006850F00100E6
:103100000B68186000207047002C0140000400404C
:103110000008004070B504002068C5682068066992
:10312000B00718D5A80716D57FF0020021680861FE
:10313000012020772068806910F0030F03D0200061
:1031400000F009FC05E0200000F006FC200000F083
:1031500004FC00202077700718D5680716D57FF08B
:10316000040021680861022020772068806910F43B
:10317000407F03D0200000F0EEFB05E0200000F0CF
:10318000EBFB200000F0E9FB00202077300718D58A
:10319000280716D57FF008002168086104202077F1
:1031A0002068C06910F0030F03D0200000F0D3FBAB
:1031B00005E0200000F0D0FB200000F0CEFB002056
:1031C0002077F00618D5E80616D57FF010002168A4
:1031D0000861082020772068C06910F4407F03D080
:1031E000200000F0B8FB05E0200000F0B5FB200057
:1031F00000F0B3FB00202077F00708D5E80706D5DC
:103200007FF00100216808612000FFF72CF83006EC
:1032100008D5280606D57FF08000216808612000C7
:1032200000F09CFB700608D5680606D57FF04000CC
:1032300021680861200000F092FBB00608D5A806BE
:1032400006D57FF0200021680861200000F088FB8F
:1032500070BDF8B504000D00002694F83C0001286C
:1032600001D102206EE0012084F83C00022084F8A5
:103270003D002068876837F0770737F47F4720687C
:103280008760286800284ED010284CD020284AD0CB
:10329000302848D040283CD0502826D060282ED056
:1032A000702807D0B0F5805F03D0B0F5005F0FD075
:1032B0003EE03FE0EB686A68A968206800F0B1F87A
:1032C0002068806850F0770007002068876031E050
:1032D000EB686A68A968206800F0A3F82068806835
:1032E00050F480402168886024E0EA6869682068BA
:1032F00000F06AF85021206800F08BF81AE0EA68C4
:103300006968206800F072F86021206800F081F898
:1033100010E0EA686968206800F056F840212068EB
:1033200000F077F806E02968206800F072F801E004
:1033300001200600012084F83D00002084F83C00B4
:103340003000C0B2F2BD10B403681C4CA04208D0DB
:10335000B0F1804F05D01A4A904202D0194A9042EB
:1033600004D133F070031A004B681343A04208D015
:10337000B0F1804F05D0124A904202D0114A9042DB
:1033800004D133F440731A00CB68134333F0800345
:103390004A69134303608A68C2620A688262A04273
:1033A00001D10A690263012242610269D20703D591
:1033B000026952085200026110BC7047002C0140A3
:1033C000000400400008004010B4046A036A5B086F
:1033D0005B000362836933F0F00353EA021334F0B5
:1033E0000A040C438361046210BC704710B4046A81
:1033F000036A33F010030362836933F4704353EAC2
:10340000023334F0A00454EA01148361046210BC56
:103410007047826832F070020A4352F007028260FD
:10342000704710B4846834F47F440C43144354EA66
:103430000324846010BC704730B4020092F83C0052
:10344000012801D102202DE0012082F83C00022059
:1034500082F83D00106843681068846833F0700398
:1034600008680343106843601068104DA8420BD0F1
:103470001068B0F1804F07D010680D4DA84203D0FE
:1034800010680C4DA84206D134F0800420004C682E
:10349000044310688460012082F83D00002082F817
:1034A0003C00002030BC704700000000002C0140B0
:1034B000000400400008004010B50400002C01D1B9
:1034C000012027E094F83D00002805D1002084F871
:1034D0003C002000FEF7BFF8022084F83D002000E9
:1034E00000F019F82068006930F480402168086114
:1034F0002068406930F02A00216848612068C0686F
:1035000050F400502168C86000202064012084F835
:103510003D00002010BDF8B5050000212868C068F6
:1035200030F00C002A68D0602868026932F47C52BE
:10353000A8690243E8690243286A0243E868024333
:1035400052F40062286802612868C4685248044046
:10355000A868044328690443686904432868C46070
:103560002868406930F440702B68586128684B4BDC
:10357000984247D1FEF796FB7FF06301192202FBC8
:1035800000F36E68B600B3FBF6F36426B3FBF6F304
:1035900002FB00F66F68BF00B6FBF7F602FB00F710
:1035A000D5F804C05FEA8C0CB7FBFCF75FF0640C45
:1035B000B7FBFCF701FB0766360132366427B6FB22
:1035C000F7F6760016F4F07616EB031602FB00F31E
:1035D0006F68BF00B3FBF7F302FB00F26F68BF0038
:1035E000B2FBF7F26427B2FBF7F201FB02310901EB
:1035F00032316422B1FBF2F111F00F018E1929680A
:103600008E6046E0FEF743FB7FF06301192202FB68
:1036100000F36E68B600B3FBF6F36426B3FBF6F373
:1036200002FB00F66F68BF00B6FBF7F602FB00F77F
:10363000D5F804C05FEA8C0CB7FBFCF75FF0640CB4
:10364000B7FBFCF701FB0766360132366427B6FB91
:10365000F7F6760016F4F07616EB031602FB00F38D
:103660006F68BF00B3FBF7F302FB00F26F68BF00A7
:10367000B2FBF7F26427B2FBF7F201FB023109015A
:1036800032316422B1FBF2F111F00F018E19296879
:103690008E60F1BD00000000F3E9FFFF003801403B
:1036A00013F0004C03D55B42524263F100039CEAE5
:1036B000210C00F0178010B5644603D34942404204
:1036C00061F1000100F00EF8640004D34942404269
:1036D00061F10001244203D55B42524263F10003D1
:1036E00010BD0000BBBBE1B1B2F5803F80F07E8031
:1036F000022A1ED98C46B1FBF2F102FB11C31B0456
:1037000043EA1043B3FBF2FC02FB1C3380B240EAF5
:103710000343B3FBF2F002FB103240EA0C400023FB
:103720007047022A05D98446B0FBF2F002FB10C2B2
:1037300070474AB105D100F0010249085FEA300044
:10374000704700220023704700F00CB90B00020004
:10375000002100207047904271EB030CF6D3B3F5C3
:10376000803F2FD2F0B5B3FA83F7B1FA81F4A7F115
:103770000F0E3D1B5340CEF1200602FA0EF2F3412C
:103780005340B5F10F0746D80F3C2C444140C4F1DB
:103790002006A040F1414140B1FBF3F603FB1611B6
:1037A000A2FB0645001BA94102D2761E8018594192
:1037B00080EA010221FA0EF362FA0EF200215A4069
:1037C0003046F0BD30B4B1FBF3FC03FB1C11A2FB8F
:1037D0000C45001BA94103D2ACF1010C80185941E2
:1037E00030BC02460B46604600217047B2F1807F34
:1037F00065D3F0B5B2FA82F7B1FA81F4C7F10F06DA
:103800003D1B22FA06F307F1110EF24120355A4012
:10381000B5F10F07B8D94140C4F12006A040F141ED
:103820004140B1FBF3FC03FB1C11A2FB0C45001B48
:10383000A94103D2BCF1010C801859410F2F12D3BA
:103840000F3FC90341EA5041B1FBF3F603FB1611E8
:10385000A2FB0645D4EBC030A94102D2761E8018E7
:10386000594146EACC3C07B34140C7F12006B84075
:10387000F1414140B1FBF3F603FB1611A2FB0645F3
:10388000001BA94102D2761E8018594180EA01022C
:1038900021FA0EF3C7F1200462FA0EF20CFA07F0D7
:1038A0005A402CFA04F13043F0BD80EA010221FABB
:1038B0000EF3002162FA0EF260465A40F0BD8C46CB
:1038C000B1FBF2F102FB11C31B0243EA1063B3FB2D
:1038D000F2FC02FB1C331B024CEA002043EA10639B
:1038E000B3FBF2FC02FB1C331B024CEA002043EA50
:1038F0001063B3FBF2FC02FB1C331B024CEA0020FA
:1039000043EA1063B3FBF2FC02FB1C324CEA0020DA
:1039100000237047D2B2203A22BF00FA02F1002001
:1039200070475242D041D2F1200291404140D040F4
:103930009040414070470102D2B2203A22BF21FAA2
:1039400002F0002170472032D141D04048409140E0
:10395000D140484070477047704770477047704784
:103960007047000070470000FEE7FEE7FEE7FEE755
:10397000FEE770477047704780B500F037F801BD2B
:1039800080B50120FEF793FF01BD80B50220FEF750
:103990008EFF01BD80B54FF48070FEF788FF01BD3A
:1039A00080B50748FFF7B6FB01BD80B50548FCF7B9
:1039B00057FD01BD80B50348FCF735FE01BD000091
:1039C000C00200206C02002080B54FF40060FEF7BA
:1039D0006EFF4FF48050FEF76AFF4FF40050FEF781
:1039E00066FF4FF40040FEF762FF01BD03490A681D
:1039F0000348007882180A60704700BF5003002017
:103A0000080000200008014000080000000C0140F0
:103A100000800000000C01401000000000000000C9
:103A2000000000000000000000000000000801404D
:103A30000004000000000000000000000008014039
:103A4000000200000000000000000000000C014027
:103A5000000100000000000000000000000C014018
:103A600000400000000000000000000000080140CD
:103A700000010000000C01400800000000000000F0
:103A80000000000000000000000000000000000036
:103A90000000000000000000000000000000000026
:103AA00000000000001001400020000000000000A5
:103AB0000000000000000000000000000000000006
:103AC0000000000030B4002512E050F8042BD307AA
:103AD00044BF4A44521E091F042942F8045BFAD22B
:103AE00013468C0744BF15809B1CC90748BF1D7037
:103AF00050F8041B0029E8D130BC704710B50749C5
:103B000079441831064C7C44163404E00A68081DD8
:103B1000114488470146A142F8D110BD5800000069
:103B20007800000000F00FF8002801D0FFF7E6FF52
:103B3000AFF300800020AFF30080AFF30080FEF70A
:103B4000B2F900F002F80120704700F001B800005F
:103B500000F000F80746384600F002F8FBE70000E6
:103B600080B5AFF30080024A11001820ABBEFBE71E
:103B70002600020051FFFFFF580300001000002044
:103B80000000000073E9FFFF0C0000005C00000073
:103B900000000020000000004EF6A550CFF6F560B2
:103BA000014603B4684680F30988AFF30080AFF3A1
:103BB0000080FFF7B7FF00000203040506070809AD
:103BC0000A0B0C0D0E0F101000000000000000008A
:103BD000010203040607080901488047014800471D
:103BE0008D3C0008993B00081000000000127A008C
:103BF000010000000000000001020304FFF7FEBF07
:103C0000FFF7FEBFFFF7FEBFFFF7FEBFFFF7FEBFE8
:103C1000FFF7FEBFFFF7FEBFFFF7FEBFFFF7FEBFD8
:103C2000FFF7FEBFFFF7FEBFFFF7FEBFFFF7FEBFC8
:103C3000FFF7FEBFFFF7FEBFFFF7FEBFFFF7FEBFB8
:103C4000FFF7FEBFFFF7FEBFFFF7FEBFFFF7FEBFA8
:103C5000FFF7FEBFFFF7FEBFFFF7FEBFFFF7FEBF98
:103C6000FFF7FEBFFFF7FEBFFFF7FEBFFFF7FEBF88
:103C7000FFF7FEBFFFF7FEBFFFF7FEBFFFF7FEBF78
:0E3C8000FFF7FEBFFFF7FEBFFFF7FEBF704766
:0400000508003B991B
:00000001FF
